:020000040800F2
:10600000807A002095A30008AD630008AF63000804
:10601000D5630008D9630008DD63000800000000B4
:10602000000000000000000000000000E163000824
:10603000E363000800000000E5630008E763000870
:10604000AFA30008AFA30008E9630008E5CE01088C
:10605000AFA30008AFA30008AFA30008AFA30008D8
:10606000AFA3000801650008AFA30008AFA30008B4
:10607000AFA30008AFA30008AFA30008AFA30008B8
:10608000AFA30008AFA30008AFA30008AFA30008A8
:10609000F9640008AFA30008AFA30008AFA300088D
:1060A000AFA3000857640008AFA30008AFA300081F
:1060B000F7640008AFA30008AFA30008AFA300086F
:1060C000AFA30008AFA30008AFA30008AFA3000868
:1060D000AFA300080764000809640008AFA3000824
:1060E00011650008AFA30008AFA30008AFA3000824
:1060F000AFA30008AFA30008AFA30008AFA3000838
:10610000AFA30008AFA30008AFA30008AFA3000827
:1061100055640008AFA30008AFA30008AFA30008B0
:10612000AFA30008AFA30008AFA30008AFA3000807
:1061300000F002F800F05AF80AA090E8000C82443F
:106140008344AAF10107DA4501D100F04FF8AFF21C
:10615000090EBAE80F0013F0010F18BFFB1A43F045
:1061600001031847D0630200F06302000A444FF0B5
:10617000000C10F8013B13F0070408BF10F8014BA6
:106180001D1108BF10F8015B641E05D010F8016BEB
:10619000641E01F8016BF9D113F0080F1EBF10F84F
:1061A000014BAD1C0C1B09D16D1E58BF01F801CB72
:1061B000FAD505E014F8016B01F8016B6D1EF9D5F5
:1061C0009142D6D37047000000230024002500260A
:1061D000103A28BF78C1FBD8520728BF30C148BF4A
:1061E0000B6070471FB51FBD10B510BD22F0ABFF8F
:1061F0001146FFF7F7FF00F0B7F822F0C9FF03B42C
:10620000FFF7F2FF03BC22F0CDFF00003FB5A0FB7B
:10621000014515601C603FBD10B502F0ADFA4FF4AA
:10622000803002F0C9FA02F006FB0446012C27D1A7
:10623000102001F0A3FD022001F08CFD002002F0EF
:1062400040FB002002F04FFBA00202F043FBE00302
:1062500002F064FB4FF4E011200402F015FB012072
:1062600002F01EFB00BF392002F0C9FA0028FAD064
:10627000022002F018FB00BF02F01EFB0828FBD131
:106280004FF4C0414FF0006001F011FA4FF4C060CC
:1062900001F0D6F910BD00BFBFF34F8F3D48006835
:1062A00000F4E0603C490843001D3A490860BFF330
:1062B0004F8F00BF00BFFEE708B5FFF7ADFF4820D6
:1062C00005F0B0FD05F006FE16F012FC12F056FBCC
:1062D00012F035FD012012F060F806F07DFB07F0AA
:1062E0003BF813F0C9FC04F0CEFF04F05DF909F0AF
:1062F0007CFB01226946294808F042F99DF800001C
:10630000552803D09DF80000AA2800D100BF012223
:1063100069462248401C08F033F99DF800005528D2
:1063200005D118F083FD002001F0DEF80EE09DF8A5
:106330000000AA280AD118F0D3F918F0DDF918F0F6
:10634000EBF917F09FFB012001F0CEF813480A3853
:1063500000784E2803D11FF059F91FF0D8F816F035
:1063600006FB06F0C7FB08BDFF200D4981F8480475
:1063700000200C4908704FF496600B490860FFF745
:106380009BFF05E002F07BF900F01AF900F044FDF4
:10639000F8E700000CED00E00000FA058A5E000856
:1063A000F8470020B450002000000020704712F091
:1063B000B8F800BFBFF34F8F6F48006800F4E0608B
:1063C0006E490843001D6C490860BFF34F8F00BF42
:1063D00000BFFEE700BFFEE700BFFEE700BFFEE72D
:1063E000704770477047704710B501F013FC48B113
:1063F00001206349087001F012FC01F002FC00204A
:1064000001F0C3FB10BD704710B520215D4803F0BB
:1064100075FEF0B1002240F225515A4803F09FFD6D
:106420004FF48071584822F001FE574805F057F8A4
:10643000564908704FF49660554908600120554947
:10644000087011F0AAFF012240F225514D4803F0D7
:1064500086FD10BD704710B504F0ACFE4E490870C3
:1064600001214E4803F08BFC002843D001214B480A
:1064700003F096FC4A480078A0B10821494802F090
:106480003AF860B146480078401C45490870084613
:1064900000780A2806D1012016F04AFB02E000200D
:1064A0003F4908703A48006820B139480068401EEA
:1064B000374908603C48006820B13B480068401EEE
:1064C000394908603948006820B138480068401EE2
:1064D000364908603648006820B135480068401EDB
:1064E000334908603348006820B132480068401ED4
:1064F0003049086010BD704710B518F085F910BD1F
:1065000010B5082001F01DFC01202549087010BDC0
:1065100010B54FF4805001F003FC58B14FF4805097
:1065200001F00FFC012011F038FF4FF4966018497C
:1065300008601EE04FF4006001F0F2FBC8B10621D4
:106540001D4818F051FD00B110BD1B48017940797C
:1065500001EB002084B2E01C81B21748801D18F0C6
:1065600043FD00B1F0E7012014490870C00201F0BA
:10657000E8FB00BFE8E700000CED00E00000FA05D2
:106580002700002000440040041600206000002086
:10659000000000206900002068000020002C01405D
:1065A00088060020001001400400002008000020A0
:1065B000540000206C0000201C520020B007002076
:1065C00070B5FE48007808B100BFFEE704F0F2FDA8
:1065D0000446012C00D094B9F948007878B1002025
:1065E000F749087013F036F80321F6A013F0CEF83F
:1065F0001E20F8490860FF20F74981F8480406F09A
:10660000DCFCF648007808B106F0EEF9F1480068C5
:1066100088B9F14890F84804FF2809D14FF49670E2
:10662000EC4908600120ED49087006F063FA02E0C9
:106630001E20E8490860E74800680321B0FBF1F23A
:1066400001FB1200D8B113F062FB0546284612F098
:1066500083F912E012F0FEFF0321E1A013F096F897
:106660004FF47A7005F0FAFB13F051FB0546102049
:10667000DF4908700020D7490860002DEAD0DD48C6
:106680000068B0F5077F07D2D34890F84804FF2888
:1066900002D1002011F081FED648006810B9002018
:1066A00016F046FA70BDF8B5012013F00FFA044653
:1066B000FF2C09D1C7480068052804D20020CE4924
:1066C0000870CE490870F8BDC34890F84804FF2808
:1066D00047D0452C1CD1FF20BF4981F8480406F063
:1066E00052FCC748407A032806D1C548807A04285E
:1066F00002D114F013FB34E1C148407A0528FAD1E5
:10670000BF48807A0328F6D1072015F069F928E1FF
:10671000302CF0DB392CEEDCAF48407800F0100074
:106720000028E8D0B74A511C204615F07AFF0546EC
:106730002DB906F017FB062014F0F0FA0CE0012D3D
:1067400005D106F020FC042014F0E8FA04E0022D44
:1067500002D1032014F0E2FAFF209F4981F8480497
:10676000FFE04F2C07D1A848007820B100209949BC
:106770000860A5490870232C1ED1A0480078D8B91C
:10678000002616E0002013F0A1F90446232C0FD1B7
:10679000701CC6B2022E0CD106F027FC01209749CE
:1067A000087000208D49087064208A49086001E063
:1067B00000E0E7E700BFD4E090480078012840D12E
:1067C000312C08D106F02EFC3220824908600020CE
:1067D0008A4908702BE0322C08D1022087490870C2
:1067E00006F064FC64207B49086020E0332C0AD169
:1067F0008648047006F052FC642076490860032045
:106800007E49087013E0342C07D104F0E4FC00202A
:10681000704908607949087009E0352C07D116F0F5
:106820002CF814206B490860002074490870452C2E
:1068300096D10020674908606F4908706F49087059
:106840008FE06E48007802280ED1312C01D0322C16
:1068500086D16E48047006F021FC64205D49086012
:106860000320664908707CE064480078032878D1EA
:10687000302C16DB392C14DC65485F490978445408
:106880005D48007800EB400040002830C3B203228E
:10689000012160A012F09CFF57480078401C564927
:1068A00008705548007806284ED10721002011F0C5
:1068B00061FE06225849564822F0EEFA38B103210B
:1068C00056A012F063FF1E204249086036E0042102
:1068D00055A012F05BFF4D480078312807D15520B4
:1068E000009001226946544807F06FFE24E04748B3
:1068F0000078322807D1AA200090012269464E482C
:1069000007F063FE18E041480078332808D1FF20E3
:1069100000900122694648487B3807F056FE0BE09C
:106920003A480078352807D1FF20009001226946B7
:106930004148401E07F049FE00F018FE00202E4995
:1069400008702E49087000BF452C0AD106F0D2F815
:106950004FF496701F4908600020274908702749A6
:10696000087000BFAFE610B51B4890F84804012836
:1069700023D13248006806F0C4F90446012C08D13E
:10698000032014F0CBF9FF20134981F8480428466E
:1069900010BD1148407800F0800060B11949481CD2
:1069A00013F01CFB04463CB925480178254813F038
:1069B0002BFB044648E055E050E0AAE078060020B2
:1069C00069000020C0B6D1C0C1ACBDD3B6CFBFAA4C
:1069D0000000000004000020F84700201100002003
:1069E000B5E7C1BFB5CD2CC7EBB3E4B5E7000000F8
:1069F00060000020000000201A0000201800002085
:106A0000E4090020614C0020100000201900002043
:106A10001B0000202A00000021000020C3DCC2EB84
:106A2000B4EDCEF300000000C7D0BBBBD6D02CC75E
:106A3000EBC9D4B5C80000008B5E00080800002038
:106A400059000020A908002014B906F0DEF809E07A
:106A50000920FE4981F84804002099E7022C01D161
:106A600006F0E6F8F948407800F04000D8B111F09F
:106A7000DAFB09F07CFFF648007801280AD106F01D
:106A80007DF9052014F04AF9FF20F04981F8480407
:106A900000207DE7EE480078022804D10020EC4970
:106AA000087006F043FAE948407800F0200000281A
:106AB0007ED0E84800784E281CD1E5480078C8B957
:106AC0001EF02BFD0A2005F0C9F9E348007830B12B
:106AD0001EF0E5FB70B10020DF4908700AE01EF0EF
:106AE00026FCB0F5104F05D11EF01AFA10B901209E
:106AF000D9490870D84800780028D9D006F050F954
:106B0000072014F00BF9FF20D04981F84804002039
:106B10003EE7CE4890F8480402287CD1CF48A0F246
:106B20006F510A68C26189880184C8480146D1F85A
:106B30001E24C0F8A225B1F82214A0F8A615002042
:106B400013F033FA0220C6490870C04890F849048F
:106B500001280BD1BD4890F8461400F5B5631A1D05
:106B600000F29C5013F074FA044627E0B74890F8FE
:106B7000490402280BD1B54890F8461400F5B563D6
:106B80001A1D00F29C5013F09AFA044616E0AF4822
:106B900090F84904212811D0AC4890F849042228E3
:106BA0000CD0AA4890F84904232807D0A74800E051
:106BB00045E090F84904242800D000BF012013F0DC
:106BC000F4F9A748007801280AD105F093FFFF20C7
:106BD0009E4981F848041020A24908700020D7E699
:106BE00014BBA1480078994981F8690401F26A420E
:106BF000511E9D48401C05F0C6F9944890F8690460
:106C0000401E9A49085C3F2808D1904890F86904D2
:106C1000401E8E4900E013E081F8690409208B4989
:106C200081F848040020B3E6022C08D1FF208749F0
:106C300081F8480406F089F9072014F0D1FEE9E054
:106C4000824890F84804062835D114F0F4FB044635
:106C500006F07DF80CB1012C02D106F083F808E0B3
:106C6000022C02D106F08FF903E0032C01D106F0CB
:106C700040F87F48407A052806D17D48807A03286D
:106C800002D114F0ADFE0DE07948407A042809D114
:106C90007748807A042805D175491031081D14F011
:106CA00001FC0446002073490870FF20674981F801
:106CB000480400206CE6654890F84804082813D181
:106CC0006A4A383A511EA1F5846005F065FB044616
:106CD00005F038FF03F00EFD12F00DFF01205B49B7
:106CE00081F84804002053E6584890F848040928E1
:106CF00074D1564890F81B0301281AD15348807864
:106D000038B15248807800EB800040005A49086052
:106D100003E04FF41670584908604C4890F8691425
:106D2000524805F098FF13F006FF044606F00FF8EE
:106D300000E0002424BB06F015F84D48407A0328F3
:106D40000BD14B48807A042807D1002013F0E6FFCE
:106D5000FF203E4981F8480410E04548407A052864
:106D60000CD14348807A032808D1384890F8490468
:106D7000012803D10620354981F84804002007E6A0
:106D8000012C1DD1FF20314981F8480406F0FBF8A1
:106D90003748407A032806D13548807A042802D142
:106DA00013F0BCFF0AE03248407A052806D130488B
:106DB000807A032802D1072014F012FE0020E7E5B4
:106DC000022C1FD12A48407A032808D12848807A0B
:106DD000042804D1032013F0A1FF0BE018E024489D
:106DE000407A052806D12248807A032802D107205C
:106DF00014F0F6FD05F07DFFFF20144981F84804EA
:106E00000020C5E5FF20114981F848040020BFE5B6
:106E10000120BDE500BFBBE5F8B5154F16373E466E
:106E200012F0F5FF0F480078302867D11048807ABB
:106E30000F49497A00EB01250D480069801E00903A
:106E400040F20630291A854275D017E0F847002035
:106E500092000020805E000893000020784D002002
:106E60006900002060000020E9320020624C002010
:106E7000E4090020B45000200800002025DCB5F50E
:106E8000867F7ED00FDCB5F5847F5DD005DCA5F272
:106E9000011088B306286AD14EE0A5F2091060B34C
:106EA0000128F8D164E040F20721681A8D4275D0BC
:106EB00006DCA5F20220002873D00228EBD17CE08A
:106EC000FD286DD0FE28E6D19BE040F2FF12881A23
:106ED00091426FD013DC40F2FB12A1EB0200914211
:106EE00069D004DCFE2967D0FF29D4D1A5E00128B0
:106EF00077D00228CFD1BDE014E02EE0FCE00128DD
:106F000070D00B286FD0B0F5FE7F6DD0A0F5E240B9
:106F1000FB380028BFD113F00CF904461520FE49B8
:106F20000870E2E06946304613F00DF9044615207A
:106F3000F9490870D9E06EE013F011F91520F6490F
:106F4000087000200090D0E06946304613F01DF92B
:106F500004461520F0490870C7E06946384613F02A
:106F6000CFF904461520EC490870BEE009E0B5E011
:106F70006946304613F062FA04461520E649087067
:106F8000B3E00020E549087032466946384613F000
:106F9000F1FA04461520E0490870A6E017E000E089
:106FA00023E06946384613F0B8FB04461520DA4959
:106FB00008709AE067E049E036E0324669463846B4
:106FC00013F036FD04461520D34908708DE0324693
:106FD0006946384613F0D9FD04461520CE4908709D
:106FE00083E03DE05BE064E06CE00020CB490870AA
:106FF0006946384613F0B1FE04461020C6490870B1
:1070000073E032466946384613F0F1FF0446152016
:10701000C149087069E06946304615F071F90446C7
:107020001520BD49087060E06946384614F0F8FA4A
:1070300004461020B849087057E06946304614F0FD
:107040000DFB04461520B44908704EE032466946EF
:10705000384614F014FB04461520AF49087044E08C
:1070600032466946384614F05DFB04461520AA49AD
:1070700008703AE06946384614F013FC04461020C4
:10708000A549087031E00020A549C860694630462E
:1070900014F030FE044615209F49087025E0324662
:1070A0006946384614F029FE044615209A490870AE
:1070B0001BE06946384614F00FFF04461520964938
:1070C000087012E00020954908706946384614F0AF
:1070D00012FF044615209049087006E015208E49DD
:1070E000087001200090042400BF00BF0098801C9D
:1070F0008B49086181F81F4CFFF735FC10B91E2041
:107100008849086084480078152804D104F034FBCD
:10711000102081490870FFF7C6FAF8BDF8B505469A
:1071200005F108007E49C1F8180C0020C8607A48B3
:10713000007820BB0846807A497A00EB01266FF47C
:10714000F040304410B1012813D10BE055200090DD
:1071500001226946744807F038FA002415206E4968
:1071600008700BE00024AA20009015206A490870DE
:1071700004E0152068490870042400BF00BF664879
:107180000078152807D16648C168204604F0F4FA53
:107190001020614908709DF80000AA2801D1012043
:1071A000F8BD0020FCE770B592B004465F4AD2E912
:1071B00001311068D268CDE90631089205905CA3D0
:1071C000D3E90020D3E9021302AD0BC5019212F0FE
:1071D00041FA02215AA012F0D9FA03215CA012F060
:1071E000D5FA04210DA806F0CCFD28B103215AA040
:1071F00012F0CCFA00BFFEE70D9D00200A9013E0CC
:107200000A20B5FBF0F100FB115030309DF828103A
:10721000C1F104010BAA50540A20B5FBF0F59DF80A
:107220002800401CC0B20A909DF828000528E7DB22
:10723000002C24D112F00EFA02214AA012F0A6FA74
:1072400003214CA012F0A2FA04F0A1FB28B1032103
:107250004CA012F09BFA00BFFEE70B98CDF81D0082
:107260009DF830008DF821000E2105A804F0D9F812
:1072700028B1032143A012F089FA00BFFEE711F004
:1072800050F912F039FC11F036F912F040FD0646C3
:1072900011F062FB34B91423012211463DA012F013
:1072A00097FA07E0012C05D11423012211463AA0D8
:1072B00012F08EFA12F0CEF9022138A012F066FA1E
:1072C000032139A012F062FA12F016FC12F0C2F992
:1072D000022139A012F05AFA00BF12F018FC18B1BE
:1072E000032012F0C1F9F8E712F0B4F9022135A039
:1072F00012F04CFA032137A012F048FA00BF3849C7
:10730000481C12F06BFE0028F9D112F0A3F90221FB
:1073100034A012F03BFA6BE0600000201100002066
:10732000E4090020040000208A5E0008DC990208BD
:1073300055502D3031332D3030303030303030003A
:10734000B0B2C8ABD0BEC6ACBCECB2E22E2E2E00A2
:10735000C7EBC9D4B5C80000BCECB2E2CAA7B0DC28
:1073600000000000C0B6D1C0C4A3BFE9BCECB2E2CB
:1073700000000000C0B6D1C0B3F5CABCBBAFD6D0C8
:107380002E2E2E00C0B6D1C0B2E2CAD4CAA7B0DC3D
:10739000000000003100000032000000BFAACABC9B
:1073A000BCECB2E22E2E2E00C8B7C8CFB1B3B9E202
:1073B000D2D1C1C1C6F00000B0B4BCFCBCECB2E29A
:1073C0002E2E2E00B4C5CCF5BFA8BCECB2E22E2EFA
:1073D0002E000000C7EBCBA2B4C5CCF5BFA80000BF
:1073E000614C00204943BFA8BCECB2E22E2E2E0017
:1073F000032166A012F0CAF900BF002007F008FCC4
:1074000000BF07F049FB0028FBD009A90DA807F031
:1074100096FC20B1032160A012F0B8F9EDE76248B4
:1074200000784E2825D112F015F902215FA012F044
:10743000ADF91EF0EBF80A2004F010FD03215FA067
:1074400012F0A4F90BE01DF072FFB0F5104F06D159
:107450001DF066FD18B901205B49087003E05A4829
:1074600000780028EFD000BF0020574908701EF0B8
:107470004EF812F0EFF8022154A012F087F915F03F
:1074800014FC28B1032154A012F080F900BFFEE7DC
:1074900005F0AAFA12F0DEF812F039FC064611F0F7
:1074A0005BFA022150A012F071F9032105A812F035
:1074B0006DF905F099FA4FF47A7004F0CFFC4CB9ED
:1074C00055200A9001220AA937480A3007F07DF8B2
:1074D00000F04CF8AA200A9001220AA932480A308A
:1074E00007F073F812B070BD08B5044612F0B2F898
:1074F00024B9022140A012F049F909E0012C07D17A
:10750000022140A012F042F9032141A012F03EF9FD
:107510002BE0012012F0DAFA0546452D09D1FF20B3
:1075200000900122694620480B3007F04EF800F029
:107530001DF824B917F06DFDC0B2009005E0012CD4
:1075400003D117F0FBFBC0B200909DF8000020B9FA
:10755000042132A012F01AF907E09DF80000FF287C
:1075600003D0042131A012F011F9D2E7BFF34F8FFD
:107570003148006800F4E06030490843001D2E499E
:107580000860BFF34F8F00BFFEE70000B2E5C8EB15
:107590004943BFA800000000CAA7B0DC2CD6D8D051
:1075A000C2B2E5C8EB000000805E0008B7C7BDD3DB
:1075B000C4A3BFE9BCECB2E22E2E2E00C7EBB7C5C8
:1075C000D6C3BFA8C6AC000093000020B3F5CABC68
:1075D000BBAFCAB1D6D30000C7EBBCECB2E2525489
:1075E00043BEA7D5F1000000CBF9D3D0B2E2CAD494
:1075F000CDEAB3C900000000C7EBC1ACBDD3C4B82D
:10760000504F5300C7EBC1ACBDD3B5E7C4D40000A5
:10761000B0B4C8A1CFFBCDCBB3F60000C5E4D6C350
:10762000B3C9B9A62CC7EBD6D8C6F400C5E4D6C3F7
:10763000CAA7B0DC000000000CED00E00000FA0575
:1076400033490143334A1160704770B5002100236C
:107650000F22C47804B32F4C246804F4E064C4F50A
:10766000E064210AC1F10403CA40447804FA03F13A
:107670008478144021430901274C0678A1550478E9
:1076800004F01F050124AC4005786D11AD0005F133
:10769000E025C5F8004109E0047804F01F05012445
:1076A000AC401E4D0678761145F8264070BD1C4A48
:1076B0000A400243174B1B1F1A60704739B1154A25
:1076C000121D12680243134B1B1D1A6006E0114A7B
:1076D000121D126882430F4B1B1D1A60704704284D
:1076E00008D14FF0E021096941F004014FF0E02298
:1076F000116107E04FF0E021096921F004014FF02A
:10770000E022116170470248001D0249086070477D
:107710000000FA050CED00E000E400E080E100E08C
:1077200080FFFF1F10B50446FA48844208D10121AA
:10773000401501F0A9F90021601501F0A5F917E045
:10774000F548844208D10121001501F09DF900217E
:10775000201501F099F90BE0F048844208D101218D
:10776000C80301F091F900214FF4004001F08CF9B9
:1077700010BD30B50246002000235068E84C204080
:107780000D790C6844EA0524204350609068E54C6C
:107790002040D1E902542C434D7944EA450420436A
:1077A0009060D06A20F470000C7C641EE4B2234325
:1077B00040EA0350D06230BD002101600171417187
:1077C0008160C16001210174704721B1826842F07B
:1077D0000102826003E0826822F001028260704749
:1077E00021B1826842F48072826003E0826822F4F0
:1077F00080728260704710B50023CBB21AB1446822
:107800001C43446002E044689C43446010BD8168AE
:1078100041F0080181607047014600208A6802F04B
:1078200008020AB1012000E000207047816841F0A1
:10783000040181607047014600208A6802F004025A
:107840000AB1012000E00020704721B1826842F4B3
:10785000A002826003E0826822F4A0028260704786
:10786000014600208A6802F480020AB1012000E08B
:107870000020704710B50A4600210023416821F41A
:107880006041531E41EA4331416010BD21B142685D
:1078900042F40062426003E0426822F40062426007
:1078A0007047F0B504460D4600200021092D11DD7A
:1078B000E068A5F10A0606EB4607072606FA07F177
:1078C0008843A5F10A0606EB460603FA06F10843CB
:1078D000E0600CE0206905EB4507072606FA07F192
:1078E000884305EB450603FA06F108432061072AA1
:1078F0000FDA606B561E06EB86071F2606FA07F1A5
:107900008843561E06EB860605FA06F108436063B7
:1079100022E00D2A0FDA206BD61F06EB86071F2602
:1079200006FA07F18843D61F06EB860605FA06F12C
:107930000843206310E0E06AA2F10D0606EB86071B
:107940001F2606FA07F18843A2F10D0606EB86060C
:1079500005FA06F10843E062F0BD21B1826842F405
:107960008012826003E0826822F480128260704795
:107970000146C86C80B2704766484C30006870475A
:1079800021B1426842F48062426003E0426822F41E
:1079900080624260704721B1426842F48052426086
:1079A00003E0426822F48052426070470A46002198
:1079B000816821F4E04111438160704721B1826800
:1079C00042F40042826003E0826822F40042826056
:1079D000704721B1826842F40212826003E082683B
:1079E00022F4021282607047014600208A6802F485
:1079F00000120AB1012000E000207047F0B50446F3
:107A00001546002000220026092911DDE068A1F1B9
:107A10000A0707EB470C072707FA0CF29043A1F17E
:107A20000A0707EB470703FA07F21043E0600CE090
:107A3000206901EB410C072707FA0CF2904301EB98
:107A4000410703FA07F210432061A06BC0F301560F
:107A5000EF1C06F1010CA7EB0C0707EB870C1F27A7
:107A600007FA0CF29043EF1C06F1010CA7EB0C0790
:107A700007EB870701FA07F21043A063F0BD10B5CA
:107A80000A4600210023816B21F44011531E41EA74
:107A90000351816310BD08B5002300930090009B43
:107AA0000B440093009B1A6008BD08B502460020F5
:107AB0000090009201F12800009B1844009000986B
:107AC000006880B208BD0A4600214168164B194083
:107AD0001143416070474162826270470A4600214B
:107AE000416821F01F0111434160704740B10949CD
:107AF0000831096841F40001064A0832116007E0C4
:107B000004490831096821F40001024A0832116071
:107B1000704700000024014000280140003C014063
:107B2000FFFEF0FFFDF7F1FFFFFD3FFF02460020E3
:107B300013680B400BB1012000E000207047CA43DE
:107B40000260704770B502460020002300240B122B
:107B50005568CEB205EA060415681D4015B10CB192
:107B6000012000E0002070BD00220A12D343036010
:107B70007047000010B5012000F0A0FF002000F0C9
:107B80009DFF10BD2A49086070472949091F0860F8
:107B90007047274984310860704701460020254A14
:107BA00010884FF67F4210400843224A10807047E9
:107BB000014600201F4A10884FF68072104008438B
:107BC0001C4A1080704708B500220092194A2C3ACE
:107BD0000092009A02440092009A116008BD08B514
:107BE00001460020009013482C380090009808446B
:107BF00000900098008808BD0D489C300068C0B215
:107C000070470C480830008840F0010009490831ED
:107C1000088070470648A0300068C0B27047054829
:107C20000830008840F0020002490831088070479F
:107C300004860D422C6C0040002044490860091D58
:107C40000860091D0860091D086041483F4914315A
:107C50000860704700213D498279002A3AD00A46DF
:107C6000126803689A430B461A600A1D126803687B
:107C70009A430B1D1A60027911440A6803681A437B
:107C80000A60324A0832126803689A432F4B08335D
:107C90001A601A1D126803689A432C4B0C331A6041
:107CA0004279102A0ED11A1F126803681A43274B13
:107CB00008331A601A1D126803681A43234B0C33E9
:107CC0001A600DE02149427911440A6803681A4399
:107CD0000A6005E0027911440A6803689A430A6061
:107CE00070470021016001710C21417100218171F7
:107CF00070471649103109680143144A1032116067
:107D0000704701460020114A143212680A400AB135
:107D1000012000E0002070470C49143108607047D2
:107D2000014600200022094B1B6803EA0102074BB1
:107D300014331B680B4013B10AB1012000E000208E
:107D40007047024914310860704700000004014088
:107D5000FFFF0F0001460020FE4A106800F03800C7
:107D6000084310607047FB49096821F00801F94A8F
:107D7000116011460968014311607047F5490968AF
:107D800021F01001F34A11601146096801431160A6
:107D90007047F148EF494860F04848607047EE4846
:107DA000EC494860ED4848607047EA48006940F097
:107DB0008000E84908617047E648006940F08000AB
:107DC000E449086170470420E249C96801F00101F3
:107DD00009B101200EE0DF49C96801F0040109B1D1
:107DE000022007E0DB49C96801F0100109B1032056
:107DF00000E00420704700B502460423FFF7E3FFCC
:107E0000034603E0FFF7DFFF0346521E012B01D1BB
:107E1000002AF7D102B90523184600BD30B5044643
:107E200004254FF43020FFF7E6FF0546042D17D157
:107E3000C848006940F00200C6490861084644612C
:107E4000006940F0400008614FF43020FFF7D3FF95
:107E50000546C048006941F6FD710840BD4908610A
:107E6000284630BD10B504244FF43020FFF7C3FF7F
:107E70000446042C16D1B748006940F00400B54907
:107E800008610846006940F0400008614FF4302066
:107E9000FFF7B1FF0446AF48006941F6FB710840A7
:107EA000AC490861204610BD00B502460423FFF727
:107EB0008AFF034603E0FFF786FF0346521E012BAD
:107EC00001D1002AF7D102B90523184600BD10B52B
:107ED00004244FF43020FFF7E7FF0446042C16D1AA
:107EE0009C48006940F004009A490861084600690E
:107EF00040F0400008614FF43020FFF7D5FF044602
:107F00009448006941F6FB71084092490861204697
:107F100010BD00208F49C96901F0020109B101209B
:107F200000E00020704730B5A5250424FFF7F1FFDD
:107F300000B100254FF43020FFF75DFF0446042C0C
:107F40003AD185488349886084488860084600693A
:107F500040F0200008610846006940F040000861D8
:107F60004FF43020FFF747FF0446042C1BD179481B
:107F7000006941F6DF7108407649086108460069EA
:107F800040F01000086176480580E002FFF733FFFB
:107F90000446052C10D06F48006941F6EF71084087
:107FA0006C49086108E0052C06D06A48006941F672
:107FB000EF71084067490861204630BD78B5064634
:107FC0000C46042500200090E802FFF714FF054648
:107FD000042D24D15F48006940F001005D4908612B
:107FE0003480E802FFF707FF0546042D10D1B01CCE
:107FF0000090200C00990880E802FFF7FCFE05467F
:108000005448006941F6FE7108405249086106E093
:108010005048006941F6FE7108404E490861284603
:1080200078BD70B504460D460426F002FFF7E3FE66
:108030000646042E11D14748006940F00100454929
:1080400008612580F002FFF7D6FE06464148006928
:1080500041F6FE7108403F490861304670BD70B579
:1080600005460E460424E002FFF7C5FE0446042C34
:1080700017D1394837498860384888600846006910
:1080800040F0100008612E80E002FFF7B4FE0446C5
:10809000052C06D02F48006941F6EF7108402D49A4
:1080A0000861204670BD2DE9F04304464FF6FF7687
:1080B0003746B046B1460425E443E6B2C4F3072789
:1080C000C4F307484FEA1469E802FFF794FE054637
:1080D000042D49D120481F498860204888600846FF
:1080E000006940F010000861FF2E06D01C480830DF
:1080F0000680E802FFF77FFE0546042D08D1FF2F1A
:1081000006D017480A300780E802FFF774FE0546DC
:10811000042D0AD1B8F1FF0F07D011480C30A0F898
:108120000080E802FFF767FE0546042D0AD1B9F189
:10813000FF0F07D00A480E30A0F80090E802FFF7C2
:108140005AFE0546052D0FD00248006941F6EF7131
:10815000084007E00020024023016745AB89EFCDCE
:1081600000F8FF1F664908612846BDE8F08330B576
:10817000054604244FF43020FFF73DFE0446042C4E
:1081800041D160485E4988605F4888600846006960
:1081900040F0200008610846006940F04000086196
:1081A0004FF43020FFF727FE0446042C22D1544818
:1081B000006941F6DF7108405149086108460069CD
:1081C00040F0100008611DB100205049088002E015
:1081D000A5204E4908804FF43020FFF70CFE0446DE
:1081E000052C10D04648006941F6EF71084044491B
:1081F000086108E0052C06D04148006941F6DF71AE
:1082000008403F490861204630BDF0B505460E469E
:10821000174604243B483A4988603B488860E0029E
:10822000FFF7E9FD0446042C19D13548006940F0F8
:1082300010003349086147F0F800304328433349C0
:10824000891C0880E002FFF7D6FD0446052C06D005
:108250002B48006941F6EF71084029490861204622
:10826000F0BD2748C069800870472548006A7047FC
:1082700000202349096801F0200109B1012000E034
:108280000020704729B11E4A126902431C4B1A6133
:1082900004E01B4A12698243194B1A617047014678
:1082A0000020012908D1164AD26902F001020AB160
:1082B000012008E0002006E0114AD2680A400AB115
:1082C000012000E0002070470D49C860704704207D
:1082D0000B49C96801F0010109B101200EE008490C
:1082E000C96801F0040109B1022007E00449C96826
:1082F00001F0100109B1032000E0042070470000E4
:108300000020024023016745AB89EFCD00F8FF1F35
:1083100010B50446CC48844208D10121042000F065
:10832000B3FB0021042000F0AFFB46E0C7488442C5
:1083300008D10121082000F0A7FB0021082000F04F
:10834000A3FB3AE0C248844208D10121102000F08A
:108350009BFB0021102000F097FB2EE0BD488442DB
:1083600008D10121202000F08FFB0021202000F007
:108370008BFB22E0B848844208D10121402000F064
:1083800083FB0021402000F07FFB16E0B3488442CD
:1083900008D10121802000F077FB0021802000F02F
:1083A00073FB0AE0AE48844207D10121801500F03A
:1083B0006BFB0021A01500F067FB10BD10B501217B
:1083C000084600F061FB0021012000F05DFB10BDBC
:1083D0002DE9F0410246002500260020002300245C
:1083E000002791F803C00CF00F0591F803C00CF0C2
:1083F000100CBCF1000F03D091F802C04CEA050547
:1084000091F800C0BCF1000F31D0146800202BE0BF
:108410004FF0010C0CFA00F3B1F800C00CEA0306AF
:108420009E4220D183004FF00F0C0CFA03F7BC439F
:1084300005FA03FC4CEA040491F803C0BCF1280FD0
:1084400006D14FF0010C0CFA00FCC2F814C00AE08F
:1084500091F803C0BCF1480F05D14FF0010C0CFAA4
:1084600000FCC2F810C0401C0828D1D31460B1F839
:1084700000C0BCF1FF0F34DD546800202EE000F195
:10848000080C4FF0010808FA0CF3B1F800C00CEA30
:1084900003069E4221D183004FF00F0C0CFA03F724
:1084A000BC4305FA03FC4CEA040491F803C0BCF198
:1084B000280F05D100F1080C08FA0CF8C2F8148056
:1084C00091F803C0BCF1480F07D100F1080C4FF040
:1084D000010808FA0CF8C2F81080401C0828CED316
:1084E0005460BDE8F0814FF6FF7101800221817078
:1084F0000421C17070470246002093680B400BB105
:10850000012000E0002070470146886880B2704773
:1085100002460020D3680B400BB1012000E0002090
:1085200070470146C86880B2704701617047416179
:1085300070470AB1016100E041617047C160704756
:108540004FF480320A43826181618261826982696B
:10855000704702460020434B18684FF6807318405E
:1085600040EA021008433F4B186070473E49C8611B
:108570007047F0B50A46002300240021002500F0D2
:108580000046B6F1004F02D1364EF16901E0354E9A
:108590007168C0F3034583B200F44016B6F5401F7E
:1085A00008D121F070612F4E766826F070662D4F4D
:1085B0007E6012E000F48016B6F5801F06D1032617
:1085C00006FA05F4A14341F0706106E0460D36015C
:1085D00003FA06F6B14341F0706122B1460D36014F
:1085E00003FA06F6314300F00046B6F1004F02D11F
:1085F0001C4EF16101E01B4E7160F0BD30B50022F0
:108600008B071C0F0F2303FA04F2164B08338C1050
:1086100053F824309343134C08348D1044F825301C
:1086200023468C1053F824308C07240F00FA04F4EE
:1086300023430C4C08348D1044F8253030BD0A49D2
:10864000DC3108607047000000080140000C014068
:10865000001001400014014000180140001C0140BE
:108660000020014000000140000020420E49086047
:1086700070470D49486070470B49886070474AF65B
:10868000AA200949086070474CF6CC4006490860AA
:10869000704701460020044AD2680A400AB101200E
:1086A00000E00020704700000030004010B50121BC
:1086B000080700F0F6F900214FF0805000F0F1F9C2
:1086C00010BD2A4908627047284908617047014671
:1086D0000020274A106820F0E0000843106070472F
:1086E0002249A0310860704710B502460020204B97
:1086F000186820F00300104318601E4B1B6843F0FD
:1087000004031C4C2360012901D130BF00E020BFCD
:10871000184B1B6823F00403164C236010BD14484B
:10872000006840F00400124908600846006840F004
:10873000020008600F48006840F004000D4908601E
:1087400000BF00BF30BF704701460020084A526892
:108750000A400AB1012000E000207047044909687E
:1087600041EA8001024A11607047000000000E4299
:108770000070004010ED00E0DF48006840F00100AC
:10878000DD49086008464068DC490840DA4948602D
:1087900008460068DA490840D7490860084600687A
:1087A00020F4802008600846406820F4FE004860FD
:1087B0004FF41F0088607047CF49096821F4803169
:1087C000CD4A11601146096821F480211160B0F58D
:1087D000803F03D0B0F5802F0ED106E0C64909686E
:1087E00041F48031C44A116007E0C349096841F48B
:1087F000A021C14A116000E000BF00BF704710B562
:1088000001460022002300204A11012A02D1BA4C5D
:10881000236806E0022A02D1B74C236A01E0B64C75
:10882000636A01F01F02012494401C400CB1012036
:1088300000E0002010BD38B5002000900024002585
:1088400000BF3120FFF7DBFF05460098401C009079
:108850000098B0F5A06F01D0002DF2D03120FFF7C5
:10886000CEFF08B1012400E00024204638BD0146B7
:108870000020A14A106820F0F80040EAC100106012
:108880007047A04908607047024600209A4B58681C
:1088900020F47C1042EA01031843974B586070475C
:1088A00098490866704701460020934A506820F0B6
:1088B00003000843506070478F48406800F00C0088
:1088C0007047014600208C4A506820F0F0000843B1
:1088D0005060704701460020874A506820F4E060ED
:1088E00008435060704701460020834A506820F4D6
:1088F000605040EAC1005060704729B17E4A527A08
:1089000002437D4B5A7204E07B4A527A82437A4B8F
:108910005A7270477B49D831086070470146002081
:10892000754A506820F44040084350607047002169
:10893000714A20321170704A82F82010012802D04A
:1089400004280AD104E001216B4A2032117005E0AD
:108950000521694A2032117000E000BF00BF704756
:108960006949086070476449096A0143624A1162B3
:108970007047654944390860704730B500210022CE
:10898000002400235C4D6D6805F00C0121B1042921
:1089900005D0082923D105E05C4D056022E05B4D40
:1089A00005601FE0544D6D6805F47012524D6D68FE
:1089B00005F48034022505EB92421CB9544D554311
:1089C00005600BE04C4D6D6805F400351DB1504D50
:1089D0005543056002E04D4D5543056002E04B4DA7
:1089E000056000BF00BF444D6D6805F0F001090946
:1089F000484D6B5C0568DD4045603F4D6D6805F492
:108A0000E061090A434D6B5C4568DD4085603A4D85
:108A10006D6805F46051C90A3E4D6B5C4568DD40E8
:108A2000C560354D6D6805F44041890B3A4D6B5C6E
:108A3000C568B5FBF3F5056130BD29B12E4A526911
:108A400002432D4B5A6104E02B4A526982432A4B60
:108A50005A61704729B1284A92690243264B9A61AC
:108A600004E0254A92698243234B9A61704729B1F9
:108A7000214AD2690243204BDA6104E01E4AD269DE
:108A800082431D4BDA61704729B11B4AD268024309
:108A9000194BDA6004E0184AD2688243164BDA6058
:108AA000704729B1144A12690243134B1A6104E05A
:108AB000114A12698243104B1A61704712494039BA
:108AC000086070470F49C86470470B49C871704708
:108AD0000948406A40F08070074948627047014683
:108AE0000020054A92680A400AB1012000E00020F7
:108AF0007047014988727047001002400000FFF87B
:108B0000FFFFF6FE000042428004424200127A005B
:108B100000093D00280000203800002029B1574AF4
:108B200012880243554B1A8004E0544A128882434B
:108B3000524B1A8070475148001D008840F01000C9
:108B40004E49091D088070474C48001D00884FF6AB
:108B5000EF7108404949091D0880704700214748C6
:108B60001C300188001F008841EA0040704700B5B2
:108B70000246FFF7E0FF100C404918310880091D3C
:108B80000A80FFF7E1FF00BD00B50246FFF7D3FF03
:108B9000C2F30340394908310880091D0A80FFF7F4
:108BA000D3FF00BD00B50246FFF7C5FF100C3349E7
:108BB00020310880091D0A80FFF7C6FF00BD002094
:108BC0002E49103109880907080B2C4914310988EE
:108BD00008437047002004E0401CB0F5801F00D916
:108BE00070472649091D098801F020010029F3D0AA
:108BF00000BFF5E700202149091D09884FF6F772EB
:108C000011401E4A121D118004E0401CB0F5801F67
:108C100000D970471949091D098801F00801002988
:108C2000F3D000BFF5E701460020144A121D128858
:108C30000A400AB1012000E0002070470F49091DD9
:108C4000098881430D4A121D11807047014600209A
:108C50000A4A121D12880A40D0B2084A12880A40F5
:108C600012B108B1012000E0002070470349091D3E
:108C700009888143014A121D118070470028004075
:108C800010B50446BE48844208D101218014FFF784
:108C9000FBFE0021A014FFF7F7FE16E0B94884425E
:108CA00008D101210014FFF7FCFE00212014FFF77A
:108CB000F8FE0AE0B448844207D10121C013FFF74F
:108CC000F0FE0021E013FFF7ECFE10BD10B500220E
:108CD000028802F441520B884C8823438C8823433A
:108CE000CC8823430C8923434C8923438C89234319
:108CF000CC8923431A430280838B4FF2FF742340B5
:108D000083830B8A038210BD2DE9F04F85B00546A1
:108D10000C464FF0000902274FF000084FF0010BFE
:108D20000026B246A88B4FF240010840A8830220DB
:108D30002884B5F81C90A068022801D100BF38E053
:108D4000A08810B94FF0010B01E04FF0020B8D48E5
:108D5000854200D100E000BF6846FFF70EFEDDF857
:108D600000A0E088B0F5007F0AD14FEA1A2000EB9E
:108D700080004000A168B0FBF1F0401D86B20BE01E
:108D80004FEA4B10BAFBF0F000EB80004000A16806
:108D9000B0FBF1F0401D86B20A20B6FBF0F606F0FB
:108DA0000108A6EB0800C0F34F074FF6FF7000EA7A
:108DB0000828022F01DBFF2F02DD02274FF00008F9
:108DC000E08840EA080038432884A088A189084345
:108DD000618808432188084340F4006040EA09099B
:108DE000A5F81C9005B0BDE8F08F002101804180FE
:108DF0008180C180018141818181C18107210182FE
:108E000070470021018041808180C1800221816002
:108E100000218181704721B1028842F04002028026
:108E200004E002884FF6BF731A400280704721B1F8
:108E3000828B42F48062828304E0828B4FF6FF33A0
:108E40001A408283704730B5002400230C1101259D
:108E5000A540ABB21AB185881D43858002E08588A4
:108E60009D43858030BD1AB183880B43838002E027
:108E700083888B438380704781817047014688894E
:108E800070474FF6FF62914204D0028842F480722C
:108E9000028004E002884FF6FF631A4002807047A8
:108EA00021B1828842F00402828004E082884FF679
:108EB000FB731A408280704702884FF2FF731A409A
:108EC000028002880A4302807047018841F4805181
:108ED0000180704721B1028842F40052028004E010
:108EE00002884DF6FF731A40028070470246002048
:108EF000012901D0108B00E0908A70470146088A52
:108F00007047B1F5804F04D1028842F4804202805C
:108F100004E002884BF6FF731A4002807047024655
:108F2000002013890B400BB1012000E000207047A6
:108F3000CA4302817047F0B5024600200024002396
:108F4000002501F00F070126BE40B4B20B11012627
:108F50009E40B3B2968806EA03051689264016B1EC
:108F60000DB1012000E00020F0BD10B5002201F09D
:108F70000F040123A3409AB2D343038110BD000024
:108F80000030014000380040003C004010B504466D
:108F9000FE48844208D10121C014FFF775FD00216D
:108FA000E014FFF771FDC4E0B4F1804F08D1012156
:108FB0000846FFF776FD00210120FFF772FDB8E0BB
:108FC000F348844208D101210220FFF76AFD002105
:108FD0000220FFF766FDACE0EE48844208D1012193
:108FE0000420FFF75EFD00210420FFF75AFDA0E0FA
:108FF000E948844208D101210820FFF752FD0021F1
:109000000820FFF74EFD94E0E448844208D1012196
:109010001020FFF746FD00211020FFF742FD88E0F9
:10902000DF48844208D101212020FFF73AFD0021CA
:109030002020FFF736FD7CE0DA48844208D1012188
:109040004014FFF721FD00216014FFF71DFD70E0C3
:10905000D548844209D10121C804FFF715FD00213C
:109060004FF40020FFF710FD63E0D048844209D19F
:1090700001210805FFF708FD00214FF48010FFF7DC
:1090800003FD56E0CA48844209D101214805FFF793
:10909000FBFC00214FF40010FFF7F6FC49E0C54847
:1090A000844208D101214020FFF7FBFC0021402031
:1090B000FFF7F7FC3DE0C048844208D10121802041
:1090C000FFF7EFFC00218020FFF7EBFC31E0BB480D
:1090D000844208D101218015FFF7E3FC0021A0158F
:1090E000FFF7DFFC25E0B648844209D101210804DE
:1090F000FFF7CAFC00214FF48030FFF7C5FC18E0F1
:10910000B048844209D101214804FFF7BDFC002189
:109110004FF40030FFF7B8FC0BE0AB48844208D1B5
:1091200001218804FFF7B0FC00214FF48020FFF7F5
:10913000ABFC10BD00220288944B98420ED0994B94
:1091400098420BD0B0F1804F08D0914B984205D097
:10915000904B984202D0904B984204D14FF68F73B7
:109160001A404B881A438D4B984207D08C4B98423B
:1091700004D04FF6FF431A40CB881A4302808B88F5
:1091800083850B880385814B98420BD0854B984291
:1091900008D08B4B984205D08A4B984202D08A4B1C
:1091A000984201D10B7A038601238382704770B500
:1091B000002400220023058C4FF6FE7635400584FE
:1091C000028C8388048B4FF68F752C40B51E2C4083
:1091D0000D882C43751E2A400D892A434D882A4349
:1091E0006A4DA8420BD06F4DA84208D0744DA842DA
:1091F00005D0744DA84202D0734DA84213D14FF64A
:10920000F7752A404D892A434FF6FB752A408D8811
:109210002A434FF6FF652B404FF6FF552B408D89B3
:109220002B43CD892B4383800483CD88858602849C
:1092300070BD70B5002400220023058C4FF6EF7638
:1092400035400584028C8388048B48F6FF752C40DA
:109250004FF6FF452C400D884FF6FF7606EA0525B0
:109260002C434FF6DF752A400D8906EA05152A437F
:109270004D8806EA05152A43444DA84202D0494DBF
:10928000A8421DD14FF67F752A404D894FF6FF76D3
:1092900006EA05152A434FF6BF752A408D8806EA6F
:1092A00005152A434FF6FF352B404FF2FF752B4033
:1092B0008D8906EA85052B43CD8906EA85052B4372
:1092C00083800483CD880587028470BD70B5002437
:1092D00000220023058C4FF6FF6635400584028C82
:1092E0008388848B4FF68F752C404FF6FC752C408D
:1092F0000D882C434FF6FF552A400D894FF6FF7617
:1093000006EA05252A434D8806EA05252A431F4D0E
:10931000A84202D0234DA8421DD14FF2FF752A402A
:109320004D894FF6FF7606EA05252A434FF6FF35AD
:109330002A408D8806EA05252A434EF6FF752B4004
:109340004DF6FF752B408D8906EA05152B43CD8917
:1093500006EA05152B4383808483CD8885870284A4
:1093600070BD70B5002200230024058C4EF6FF76F8
:1093700035400584038C8488828B48F6FF752A402B
:109380004FF6FF452A400D8820E00000002C0140E8
:109390000004004000080040000C004000100040A5
:1093A0000014004000340140004C014000500140D6
:1093B0000054014000180040001C00400020004004
:1093C0000040014000440140004801404FF6FF7654
:1093D00006EA05252A434DF6FF752B400D8906EA5E
:1093E00005352B434D8806EA05352B43FA4DA84237
:1093F00002D0FA4DA84208D14BF6FF752C408D895A
:109400004FF6FF7606EA85152C4384808283CD884B
:10941000A0F84050038470BD828B4FF2FF331A4096
:109420008283828B4FF6FF7303EA01231A43828300
:109430007047F0B50C461546002200210026078C27
:109440004EF6FF7C07EA0C070784828B018C4FF6EF
:10945000FF7707EA043640F6FF473A404FF6FF77BA
:1094600007EA05273A434FF6FF7707EA03373A43FF
:10947000D94FB8420ED0D94FB8420BD0B0F1804F7F
:1094800008D0D74FB84205D0D64FB84202D0D64FF9
:10949000B84206D14DF6FF77394046F4805739433C
:1094A00005E047F6FF57394044F48057394382833B
:1094B0000184F0BD828B4FF6F3731A408283828B56
:1094C0000A4382837047F0B50C46154600220021FE
:1094D0000026078C4FF6FF6C07EA0C070784828B87
:1094E000018C4FF6FF7707EA04264FF60C773A40D7
:1094F0004FF6FF7707EA03172F433A43B64FB842B8
:109500000ED0B64FB8420BD0B0F1804F08D0B44F58
:10951000B84205D0B34FB84202D0B34FB84206D1DB
:109520004FF6FF57394046F48077394305E04FF254
:10953000FF57394044F48077394382830184F0BD7A
:10954000028B4FF2FF331A400283028B4FF6FF73F8
:1095500003EA01231A4302837047F0B50C4615460F
:10956000002200210026078C4FF6EF7C07EA0C074B
:109570000784028B018C4FF6FF7707EA041640F64A
:10958000FF473A404FF6FF7707EA03373A434FF673
:10959000FF7707EA05273A438F4FB8420ED08F4F27
:1095A000B8420BD0B0F1804F08D08D4FB84205D0F3
:1095B0008C4FB84202D08C4FB84206D14FF6DF77BD
:1095C000394046F01007394305E04FF65F773940E0
:1095D00044F01007394302830184F0BD028B4FF63B
:1095E000F3731A400283028B0A4302837047F0B57B
:1095F0000C46154600220021068C4FF6FE773E40B1
:109600000684028B018C4FF60C7632407E1C06EAF3
:1096100003162E433243704EB0420ED06F4EB0420E
:109620000BD0B0F1804F08D06D4EB04205D06D4EDA
:10963000B04202D06C4EB04206D14FF6FD763140BA
:1096400044F00106314305E04FF6F576314044F031
:109650000106314302830184F0BD70B505460C4616
:109660005D4885420ED05D4885420BD0B5F1804FF4
:1096700008D05B48854205D05A48854202D05A48F6
:10968000854200D100E000BF208850B92389A2881C
:1096900061882846FFF7ABFFE1882846FFF79EFF69
:1096A00025E0208804280AD12389A28861882846D9
:1096B000FFF753FFE1882846FFF742FF17E02088B5
:1096C00008280AD12389A28861882846FFF7FBFE73
:1096D000E1882846FFF7EEFE09E02389A288618829
:1096E0002846FFF7A6FEE1882846FFF795FE70BDE5
:1096F0002DE9F04105460C4600260127608808B98F
:10970000022600E00026A088012801D1022700E0FF
:1097100001272088A0B92389A28861882846FFF7FD
:1097200066FFE1882846FFF759FF23893A4631460C
:109730002846FFF712FFE1882846FFF701FF13E0F4
:109740002389A28861882846FFF707FFE188284619
:10975000FFF7F6FE23893A4631462846FFF747FFD2
:10976000E1882846FFF73AFFBDE8F0810A884B8878
:109770001A438B881A43CB881A430B891A434B89A7
:109780001A438B891A43A0F8442070474FF6FF71A3
:10979000818000210180C1804180017270470021D9
:1097A000018041808180C180018141818181C181AD
:1097B0007047002101804180012181800021C1800A
:1097C000018170470021018041808180C180018139
:1097D0004181818170470000002C0140003401402C
:1097E0000004004000080040000C004021B1028845
:1097F00042F00102028004E002884FF6FE731A4034
:109800000280704731B1B0F8442042F40042A0F821
:10981000442005E0B0F84420C2F30E02A0F8442032
:1098200070471AB183890B43838102E083898B439C
:10983000838170478182704741EA0203A0F8483073
:1098400070471AB183890B43838102E083898B437C
:109850008381704701894FF6F8721140018170478A
:109860000A46002101894FF68F7319401143018187
:10987000704730B504460D4629462046FFF7F0FFF5
:10988000208940F00700208130BD2DE9F0410446D9
:109890000D4616461F46602D06D13B460122314635
:1098A0002046FFF75AFE05E03B460122314620469E
:1098B000FFF79DFE29462046FFF7D2FF208940F0A2
:1098C00007002081BDE8F08130B50C4600210189F8
:1098D000C9B24FF6FF7505EA032515432543294311
:1098E000018130BD2DE9F04105460E4617469846E8
:1098F000002443463A4631462846FFF7E5FF2C89C7
:109900004FF6F870044044F007044FF68F7004409F
:1099100044F070042C81BDE8F081F0B504460D469A
:1099200016461F463B46324629462046FFF7CCFFE7
:10993000208940F480402081F0BD018582827047FB
:109940000A46002101884FF68F73194011430180A8
:109950007047F0B50C4615461E4600210022002334
:109960000189028B038C4FF6F877394021434FF67B
:10997000FC473A4040F201173A434FF6DD773B404F
:109980004FF6FF7707EA06172F433B430181028317
:109990000384F0BD0A460021018B4FF68F731940F6
:1099A0001143018370470A460021018B48F6FF737B
:1099B00019404FF6FF7303EA0223194301837047EE
:1099C0000A460021818B4FF68F7319401143818322
:1099D00070470A460021818B48F6FF7319404FF605
:1099E000FF7303EA022319438183704721B1028880
:1099F00042F08002028004E002884FF67F731A4032
:109A00000280704721B1828842F00402828004E023
:109A100082884FF6FB731A408280704721B182889A
:109A200042F00802828004E082884FF6F7731A4001
:109A30008280704721B1828842F00102828004E076
:109A400082884FF6FE731A40828070470A460021D2
:109A5000018B4FF6F77319401143018370470A4693
:109A60000021018B4FF2FF7319404FF6FF7303EA99
:109A700002231943018370470A460021818B4FF668
:109A8000F77319401143818370470A460021818B87
:109A90004FF2FF7319404FF6FF7303EA0223194395
:109AA000818370470A460021018B4FF6FB731940F2
:109AB0001143018370470A460021018B4FF6FF33A3
:109AC00019404FF6FF7303EA0223194301837047DD
:109AD0000A460021818B4FF6FB73194011438183A5
:109AE00070470A460021818B4FF6FF3319404FF62D
:109AF000FF7303EA02231943818370470A4600215A
:109B0000018B4FF67F7319401143018370470A465A
:109B10000021018BC1F30E014FF6FF7303EA02230C
:109B20001943018370470A460021818B4FF67F73EA
:109B300019401143818370470A460021818BC1F38C
:109B40000E014FF6FF7303EA022319438183704726
:109B50000A460021018C4FF6FD7319401143018420
:109B600070470A460021018C4FF6F77319401143E4
:109B7000018470470A460021018C4FF6DF731940BB
:109B80004FF6FF7303EA02131943018470470A4634
:109B90000021018C4FF67F7319404FF6FF7303EAE3
:109BA00002131943018470470A460021018C4FF6C5
:109BB000FF5319404FF6FF7303EA02231943018450
:109BC00070470A460021018C4FF2FF7319404FF68F
:109BD000FF7303EA02231943018470470A460021F8
:109BE000018C4DF6FF7319404FF6FF7303EA023301
:109BF00019430184704730B5002301248C40A3B27F
:109C0000048C9C430484048C02FA01F5ADB22C430D
:109C1000048430BD30B5002304248C40A3B2048CEE
:109C20009C430484048C02FA01F5ADB22C430484F5
:109C300030BD70B5034600200024184618300125B9
:109C40008D40ACB21D8CA5431D8409B1082909D1F2
:109C500000EB6100056825F0700505600568154397
:109C600005600EE00D1FC5F34E052844056825F478
:109C7000E045056005684FF6FF7606EA02263543A3
:109C8000056070BD21B1028842F00202028004E04A
:109C900002884FF6FD731A400280704721B1028896
:109CA00042F00402028004E002884FF6FB731A407F
:109CB0000280704721B1828842F08002828004E0F5
:109CC00082884FF67F731A408280704702884FF671
:109CD000F7731A40028002880A4302807047828824
:109CE0004FF68F731A40828082880A4382807047C1
:109CF00002894FF6F8731A40028102890A430281F1
:109D0000704702894FF67F731A40028102890A4325
:109D100002817047818470478185704781867047D2
:109D20000187704781877047A0F84010704702880C
:109D30004FF6FF431A40028002880A4302807047B0
:109D40000146888E70470146088F70470146888F0C
:109D500070470146B1F8400070470146888C704753
:109D60000146088D704702460020138A0B400BB154
:109D7000012000E000207047CA430282704730B5DE
:109D80000246002000230024158A05EA0103958974
:109D900005EA010413B10CB1012000E0002030BD40
:109DA000CA4302827047000010B50446FB48844253
:109DB00009D101218803FEF767FE00214FF480409E
:109DC000FEF762FE32E0F648844209D101214804E0
:109DD000FEF767FE00214FF40030FEF762FE25E03B
:109DE000F048844209D101218804FEF75AFE00217F
:109DF0004FF48020FEF755FE18E0EB48844209D16D
:109E00000121C804FEF74DFE00214FF40020FEF7AB
:109E100048FE0BE0E548844208D101210805FEF721
:109E200040FE00214FF48010FEF73BFE10BD2DE9EF
:109E3000F04786B005460E460024A24600BFA14664
:109E40000027B08900B100BF2F462C8A4CF6FF7066
:109E50000440F08804432C82AC894EF6F310044091
:109E6000B08831890843718908430443AC81AC8AC6
:109E70004FF6FF400440B0890443AC8201A8FEF7CE
:109E80007CFDC648874202D1DDF810A001E0DDF874
:109E90000CA0A88900F4004040B10AEBCA0000EB16
:109EA0000A1031684900B0FBF1F807E00AEBCA007C
:109EB00000EB0A1031688900B0FBF1F86420B8FBB0
:109EC000F0F004012009642101FB1089A88900F445
:109ED000004040B1322000EBC900B0FBF1F000F0CF
:109EE0000700044308E0322000EB09106421B0FBB6
:109EF000F1F000F00F0004432C8106B0BDE8F087BC
:109F00004FF41651016000218180C18001810C2134
:109F1000418100218181704710B502460020108ADE
:109F20004FF2FF0318400B884C8823438C8823434F
:109F3000CC8823431843108210BD0021018041804A
:109F40008180C180704721B1828942F400528281B0
:109F500004E082894DF6FF731A4082817047F0B5A4
:109F60000346002400260025002040F66A17B94267
:109F700000D100BF1846C1F3421401F01F060127AB
:109F800007FA06F5012C01D10C3004E0022C01D1B6
:109F9000103000E014301AB107682F43076002E068
:109FA0000768AF430760F0BD1AB1838A0B43838211
:109FB00002E0838A8B4383827047028A4FF6F073F4
:109FC0001A400282028A0A430282704782894FF253
:109FD000FF731A40828182890A438281704721B1CE
:109FE000828942F00202828104E082894FF6FD7389
:109FF0001A4082817047028A4FF6DF731A4002824C
:10A00000028A0A430282704721B1028A42F48042E6
:10A01000028204E0028A4BF6FF731A400282704704
:10A02000C1F308028280704701468888C0F30800A7
:10A030007047818941F0010181817047028BD2B262
:10A040000283028B42EA012202837047028B02F4F0
:10A050007F420283028B0A430283704721B1828AC6
:10A0600042F02002828204E0828A4FF6DF731A40B7
:10A070008282704721B1828A42F01002828204E01B
:10A08000828A4FF6EF731A408282704721B1828A2A
:10A0900042F00802828204E0828A4FF6F7731A4087
:10A0A0008282704721B1828942F40042828103E0BA
:10A0B0008289C2F30E028281704721B1828A42F402
:10A0C0000062828204E0828A4FF2FF731A40828229
:10A0D0007047828A4FF6FB731A408282828A0A4353
:10A0E0008282704721B1828A42F00202828204E0B9
:10A0F000828A4FF6FD731A40828270470246002022
:10A10000B1F5007F00D100BF13880B400BB10120D7
:10A1100000E00020704701F40072B2F5007F00D12A
:10A1200000BFCA430280704770B502460024002376
:10A130000025002040F66A16B14200D100BFC1F3ED
:10A14000421501F01F03012606FA03F3012D02D187
:10A150009689334006E0022D02D1168A334001E091
:10A16000968A33400C12012606FA04F4168834400D
:10A1700013B10CB1012000E0002070BD10B5002229
:10A18000002340F66A14A14200D100BF0A12012444
:10A190009440A3B2DC43048010BD000000380140AD
:10A1A0000044004000480040004C00400050004087
:10A1B0000CB50020019000906D48006840F480309C
:10A1C0006B49086000BF6A48006800F400300090E6
:10A1D0000198401C0190009818B90198B0F5A06F43
:10A1E000F1D16348006800F4003010B10120009004
:10A1F00001E0002000900098012843D15D480068EC
:10A2000040F010005B4908600846006820F0030039
:10A2100008600846006840F0020008605448406842
:10A22000534948600846406848600846406840F422
:10A23000806048600846406820F47C10486008460A
:10A24000406840F4E81048600846006840F08070BC
:10A25000086000BF4648006800F000700028F9D090
:10A260004348406820F00300414948600846406880
:10A2700040F00200486000BF3D48406800F00C001C
:10A280000828F9D10CBD10B5FFF792FF10BD10B52D
:10A29000FDF77FFD3648006840F001003449086052
:10A2A000084640683449084031494860084600681B
:10A2B000324908402E4908600846006820F4802092
:10A2C00008600846406820F4FE0048604FF41F0014
:10A2D0008860FFF7D8FF4FF000602949086010BD83
:10A2E00010B5002100200022214B5B6803F00C0117
:10A2F00021B1042906D0082928D107E0214B224C9E
:10A30000236027E01F4B204C236023E0184B5B6841
:10A3100003F47010164B5B6803F48032022303EBE6
:10A32000904022B9194B4343174C23600DE0104B6A
:10A330005B6803F4003323B1144B4343124C236096
:10A3400003E0104B4343104C236003E00D4B0E4CD5
:10A35000236000BF00BF064B5B68C3F303130C4CC4
:10A36000E15C094B1B68CB40074C236010BD00002B
:10A3700000100240002002400000FFF8FFFFF6FE40
:10A3800008ED00E000127A003C00002000093D00CA
:10A39000400000200948804709480047FEE7FEE7E3
:10A3A000FEE7FEE7FEE7FEE7FEE7FEE7FEE7FEE785
:10A3B00004480549054A064B704700008FA2000873
:10A3C00031610008805A0020807A0020806A0020D5
:10A3D000806A002008B501210820FEF73BFB4020E1
:10A3E000ADF8000001208DF8020010208DF8030068
:10A3F0006946FA48FDF7ECFF4021F848FEF795F86A
:10A4000008BD38B5044601210820FEF723FB6CB1D6
:10A410008020ADF8000001208DF8020048208DF862
:10A4200003006946ED48FDF7D3FF10E08020ADF84A
:10A43000000001208DF8020014208DF80300694609
:10A44000E648FDF7C5FF8021E448FEF76EF838BD09
:10A4500008B519208DF8000001208DF801000320B7
:10A460008DF8020001208DF803006846FDF7EDF835
:10A4700008BD0EB50121C802FEF7ECFA41F61F40F7
:10A48000ADF800004FF47A70ADF804000020ADF88C
:10A490000600ADF802006946D148FEF74BFE0122E6
:10A4A0001146CF48FFF7BDF90121CD48FFF79EF9CE
:10A4B0000EBD00BF00BF00BF00BF00BF00BF00BF98
:10A4C00000BF00BF4020C5491031086000BF00BF79
:10A4D00000BF00BF00BF00BF00BF00BF00BF4020E3
:10A4E000BE4914310860704710B500BF00BF00BFFF
:10A4F00000BF00BF00BF00BF00BF00BF0020FFF7CC
:10A5000080FF4020B5491031086000BF00BF00BF88
:10A5100000BF00BF00BF00BF00BF00BF8020AF4929
:10A5200014310860062001F0B5FC4020AB4914311D
:10A53000086000BF00BF00BF00BF00BF00BF00BF7A
:10A5400000BF00BF4020A5491031086000BF00BF18
:10A5500000BF00BF00BF00BF00BF00BF00BF402062
:10A560009E491431086000BF00BF00BF00BF00BF9C
:10A5700000BF00BF00BF00BF0120FFF742FF00BFC8
:10A5800000BF00BF00BF00BF00BF00BF00BF00BFD3
:10A590004020924910310860822001F07BFC40206D
:10A5A0008E491431086010BD10B500208D49087027
:10A5B000FFF75FFFFFF74CFFFFF70CFF0020FFF7EF
:10A5C00020FF8020854910310860402008600A2063
:10A5D00001F044FCFFF788FFFFF76BFF0020824982
:10A5E000086010BD10B500BF00BF00BF00BF00BFB6
:10A5F00000BF00BF00BF00BF402078491031086095
:10A60000022001F047FC402074491431086010BD5D
:10A6100010B57448007810B101282AD111E06F48B4
:10A620000830006800F0800050B97048007838B9F0
:10A63000FFF7D8FF01206B4908701F206A490860A6
:10A6400017E066480830006800F0800030B901204B
:10A650006649087000206349087009E06248006894
:10A6600030B9FFF741FFFFF724FF00205D49087074
:10A6700000BF00BF10BD10B501220023037000BF52
:10A6800000BF00BF00BF00BF00BF00BF00BF00BFD2
:10A690002AE04023514C1034236000BF00BF00BFAC
:10A6A00000BF00BF00BF00BF00BF00BF40234B4C36
:10A6B0001434236000BF00BF00BF00BF00BF00BF55
:10A6C00000BF00BF00BF454B08331B6803F0800389
:10A6D00013B903781343037053061A0E22B90122EB
:10A6E000401C09B1002303700B00A1F10104A1B2C9
:10A6F000CFD110BD10B500203C490870FFF7F4FE23
:10A70000FFF7D7FE10BD10B501211023002221E074
:10A710004020324C1034206000BF00BF00BF00BF9B
:10A7200000BF00BF00BF00BF00BF40202B4C14344F
:10A73000206000BF00BF00BF00BF00BF00BF00BF60
:10A7400000BF00BF25480830006800F0800000B955
:10A750000A4349001800A3F10104E3B2D8D1B2F5CD
:10A76000404F01D0401E10BD0020FCE72DE9F04114
:10A77000034617460BB1002902DC0120BDE8F08139
:10A78000012F04D0022F05D0032F07D103E03F246F
:10A79000072605E000BF0F24052601E00220EDE7B3
:10A7A00000BF491E002226E0491E4FF0000C35462E
:10A7B0000CE06D1E18784FF0010808FA05F800EA61
:10A7C000080018B10CF1010000F0FF0C002DF0D1D1
:10A7D0000CF0010060B90320D0E70000000C01403C
:10A7E000002C0140500000205400002051000020A7
:10A7F000187842405B1C0029D6D1224018782040AE
:10A80000904201D00420B9E70020B7E709E04A1ED2
:10A81000D1B2425C02F00F024254425C42F030027C
:10A8200042540029F3D170472DE9F74F06460D46F3
:10A8300006B115B90120BDE8FE8F0298012804D0A9
:10A84000022808D003280DD106E03F274FF0450825
:10A850004FF01F0A0AE000BF0F274FF00B084FF020
:10A860001F0A03E0002028700220E4E700BF002454
:10A87000A14608EA07080AEA070A30783840404546
:10A8800003D0002028700320D5E70AE0305D38406F
:10A89000404500D1A146305D3840504500D103E02D
:10A8A000641C2878A042F1DC00BF2878A04203DCB9
:10A8B000002028700420BEE7641C641CA4EB09047B
:10A8C0002C70B9F1000F0AD003E016F809003070BF
:10A8D000761C2000A4F10104F7D12878361A2978D3
:10A8E0003046029AFFF742FF83464FEA0B20A2E769
:10A8F000F0B502460C460026012500214FF43073C6
:10A9000002B10CB90120F0BD00BF00BF00BF00BF05
:10A9100000BF00BF00BF00BF00BF002010702EE0CE
:10A920005B1E491001F07F014020FA4F386000BFE4
:10A9300000BF00BF00BF00BF00BF00BF00BF00BF1F
:10A940004020F44F3F1D386000BF00BF00BF00BF74
:10A9500000BF00BF00BF00BF00BFEE48083800685E
:10A9600000F0800010B941F0400101E001F03F012A
:10A97000452904D11170521C0020107001E0002BF9
:10A98000CED100BF002B03DC002020700220BAE7EC
:10A99000072093FBF0F0401C2070012500212AE0E5
:10A9A0005B1E4020DB4F386000BF00BF00BF00BF10
:10A9B00000BF00BF00BF00BF00BF4020D54F3F1DFC
:10A9C000386000BF00BF00BF00BF00BF00BF00BFB6
:10A9D00000BF00BFCF480838006800F0800000B911
:10A9E00029436806050E802D05D101251170521CE2
:10A9F0000020107001E0002BD2D100BF7F2903D1CD
:10AA000046F0100600202070002B03DC0020207090
:10AA1000032078E701252AE05B1E4020BD4F386007
:10AA200000BF00BF00BF00BF00BF00BF00BF00BF2E
:10AA300000BF4020B74F3F1D386000BF00BF00BFC0
:10AA400000BF00BF00BF00BF00BF00BFB148083853
:10AA5000006800F0800010B9107828431070680674
:10AA6000050E802D03D10125521C00201070002BF3
:10AA7000D2D1304647E7F0B502460C460026012504
:10AA800000214FF4307302B10CB90120F0BD00BFBA
:10AA900000BF00BF00BF00BF00BF00BF00BF00BFBE
:10AAA000002010702EE05B1E491001F01F014020B5
:10AAB000984F386000BF00BF00BF00BF00BF00BF9D
:10AAC00000BF00BF00BF4020924F3F1D386000BF55
:10AAD00000BF00BF00BF00BF00BF00BF00BF00BF7E
:10AAE0008C480838006800F0800010B941F010016F
:10AAF00001E001F00F010B2904D11170521C00205C
:10AB0000107001E0002BCED100BF002B03DC002031
:10AB100020700220BAE7052093FBF0F0401C207063
:10AB2000012500212AE05B1E40207A4F386000BFDB
:10AB300000BF00BF00BF00BF00BF00BF00BF00BF1D
:10AB40004020744F3F1D386000BF00BF00BF00BFF2
:10AB500000BF00BF00BF00BF00BF6E4808380068DC
:10AB600000F0800000B929436806050E202D05D1AC
:10AB700001251170521C0020107001E0002BD2D171
:10AB800000BF1F2903D146F0100600202070002BC3
:10AB900003DC00202070032078E701252AE05B1EFB
:10ABA00040205C4F386000BF00BF00BF00BF00BF47
:10ABB00000BF00BF00BF00BF4020564F3F1D3860A0
:10ABC00000BF00BF00BF00BF00BF00BF00BF00BF8D
:10ABD00000BF50480838006800F0800010B91078B5
:10ABE000284310706806050E202D03D10125521C44
:10ABF00000201070002BD2D1304647E710B5FFF788
:10AC000007FD4548007800287DD080204349087022
:10AC1000002043490870434908704349087043497C
:10AC20000870FFF770FD3E494148FFF761FE04469A
:10AC30008CB901223A493E48FFF7F6FD044634B983
:10AC40003648007840F001003449087006E00020E2
:10AC50003349087002E00020314908703149354815
:10AC6000FFF709FF04468CB902222E493148FFF74D
:10AC7000DBFD044634B92948007840F0020027493A
:10AC8000087006E000202749087002E000202549EE
:10AC9000087025492848FFF7EEFE04468CB90322C8
:10ACA00021492548FFF7C0FD044634B91B48007808
:10ACB00040F004001949087006E000201A490870A5
:10ACC00002E00020184908701448007800F00200E3
:10ACD00048B11248007840F0400010490870FFF772
:10ACE00009FD002010BD10491348FFF7C4FE0446BB
:10ACF0007CB903220C491048FFF796FD0446ECB9D5
:10AD00000648007800E06CE040F004000349087059
:10AD10001BE017E0100C0140510000205C000020F7
:10AD200058000020590000205A0000205B0000203D
:10AD30001C080020A90800203609002000205849DE
:10AD4000087002E000205649087056495648FFF73F
:10AD500092FE04468CB9022252495348FFF764FD23
:10AD6000044634B95148007840F002004F49087059
:10AD700006E000204B49087002E0002049490870B5
:10AD80004B494C48FFF7B4FD04468CB901224849B1
:10AD90004848FFF749FD044634B94448007840F07C
:10ADA00001004249087006E000204149087002E0B5
:10ADB00000203F4908703D48007800F0020048B18B
:10ADC0003A48007840F0400038490870FFF792FC9C
:10ADD000002087E7032001F0B3F8FFF78BFC022087
:10ADE00080E701207EE770B506460D4606B10DB935
:10ADF000012070BD2B4801782B48FFF707FD28483C
:10AE000001782D48FFF702FD002408E02648005D88
:10AE10003D2802D1601EC4B205E0601CC4B22148C6
:10AE200000788442F2DD00BF1E480078844225DDB0
:10AE3000002408E02048005D3D2802D1E01EC4B295
:10AE400005E0601CC4B2164800788442F2DD00BF01
:10AE500013480078844201DD0120CAE72C702246A5
:10AE60001549C91C30461EF062F814480470224689
:10AE70001149491C12481EF05AF80EE02C70224667
:10AE80000949491C30461EF052F80C48047022460D
:10AE90000549491C0A481EF04AF80020A9E70000AD
:10AEA0005A00002059000020A90800205C00002062
:10AEB000580000201C080020360900205B000020FC
:10AEC000C30900201CB501213C20FDF7C3FD04206F
:10AED000ADF8040003208DF8060018208DF8070057
:10AEE00001A9FA48FDF774FA0820ADF80400032020
:10AEF0008DF8060004208DF8070001A9F348FDF73E
:10AF000067FA4FF4C050ADF8040003208DF8060036
:10AF100004208DF8070001A9ED48FDF759FA042037
:10AF2000ADF8040003208DF8060010208DF807000E
:10AF300001A9E848FDF74CFA4FF48060ADF8040031
:10AF400003208DF8060010208DF8070001A9E048C5
:10AF5000FDF73EFA0220ADF8040003208DF806004C
:10AF600010208DF8070001A9D948FDF731FA4FF4F8
:10AF70008070ADF8040003208DF8060010208DF8D5
:10AF8000070001A9D448FDF723FA4FF40070ADF88B
:10AF9000040003208DF8060010208DF8070001A999
:10AFA000CD48FDF715FA4FF40071CB48FDF7BDFA17
:10AFB0000421C848FDF7B9FA4FF48061C448FDF791
:10AFC000B4FA4FF48071C448FDF7AFFA0221C048CB
:10AFD000FDF7ADFA552000F041FF0221BC48FDF716
:10AFE000A4FA4FF4007000F039FF26208DF800001D
:10AFF00001208DF8010000208DF8020001208DF85D
:10B0000003006846FCF721FB1CBD1CB501213C2058
:10B01000FDF720FD0420ADF8040003208DF80600A4
:10B0200018208DF8070001A9A848FDF7D1F90820DC
:10B03000ADF8040003208DF8060004208DF8070009
:10B0400001A9A248FDF7C4F94FF40060ADF804006F
:10B0500003208DF8060004208DF8070001A99C4804
:10B06000FDF7B6F90220ADF8040003208DF80600C4
:10B0700010208DF8070001A99548FDF7A9F90221D4
:10B080009348FDF752FA0420ADF8040003208DF830
:10B09000060010208DF8070001A98E48FDF798F9E9
:10B0A00004218C48FDF743FA4FF40070ADF804001A
:10B0B00003208DF8060010208DF8070001A98648AE
:10B0C000FDF786F94FF400718348FDF730FA26202A
:10B0D0008DF8000001208DF8010000208DF802009D
:10B0E00001208DF803006846FCF7AFFA1CBD1FB5C0
:10B0F00001214804FDF7BBFC7848FEF755FE4FF4EC
:10B10000E13000900020ADF80400ADF80600ADF885
:10B110000800ADF80C000C20ADF80A0069466F4835
:10B12000FEF785FE20216D48FEF7F5FF012240F273
:10B1300025516A48FEF713FF01216848FEF703FF17
:10B140001FBD0EB50C210220FDF758FA4FF48050B8
:10B15000019000208DF8080008208DF809000120DA
:10B160008DF80A0001A8FCF775FD28208DF8000075
:10B1700001208DF801008DF802008DF8030068466B
:10B18000FCF763FA0EBD10B502215148FDF7CDF969
:10B19000022000F063FE02214D48FDF7C8F90A20A5
:10B1A00000F05CFE02214A48FDF7BFF90A2000F0DA
:10B1B00055FE10BD70B54FF400614548FDF79BF991
:10B1C00005461DB1012D03D1002401E0022400BF7A
:10B1D00000BF204670BD10B5FFF7ECFF0446022CFF
:10B1E00001D1FFF7D0FF10BD70B505460E46002413
:10B1F0000BE0295D3948FEF713FF00BF3748008890
:10B2000000F080000028F9D0641CB442F1D370BD76
:10B210002DE9F04105460E464FF08077002400BF2F
:10B2200012E004E07F1E17B90120BDE8F0812B4831
:10B23000008800F020000028F4D02848FEF7F4FE33
:10B2400028554FF08077641CB442EAD30020ECE725
:10B2500010B5044624B1012C09D0022C0DD105E013
:10B260004FF400711C48FDF762F906E005E04FF469
:10B2700000711948FDF759F900BF00BF10BD00204B
:10B2800070470020704710B5FFF7BFFEFFF72FFF94
:10B29000FFF757FF10BD70B504460D46FFF7F1FFED
:10B2A00000B170BD4FF480610948FDF740F90320FB
:10B2B00000F0D4FD29462046FFF796FF4FF4806149
:10B2C0000348FDF732F900BFEBE70000000801403A
:10B2D0000010014000140140000C014000440040F7
:10B2E0002DE9F04106460F4614461D464FF0000872
:10B2F000002240F22551F748FEF731FE394630462C
:10B30000FFF772FF29462046FFF782FF00F0FF0893
:10B31000012240F22551EF48FEF721FE4046BDE8EC
:10B32000F0812DE9F04389B005460C4616462021F0
:10B3300001A81DF09DFE0027B846B94601208DF8F2
:10B34000040029208DF80500FC208DF8060003205C
:10B350008DF8070020788DF8080060788DF80900D6
:10B360008DF80A6007279DF80A000A3000F0FF08F0
:10B3700043462A46394601A8FFF7B2FF00F0FF090D
:10B38000484609B0BDE8F0832DE9F047CAB007464A
:10B390000E4614464FF4847108A81DF069FE202162
:10B3A00068461DF065FE4FF00009CA460025A84614
:10B3B00001208DF8200027208DF82100FC208DF839
:10B3C0002200E01CC0B28DF8230030788DF82400F4
:10B3D00070788DF825008DF8264000BF05E0795D76
:10B3E000E81D08AA1154681CC5B2A542F7DB9DF8F8
:10B3F000230000F104094FF0070A53466A46494604
:10B4000008A8FFF76DFF00F0FF08B8F1000F04D1A6
:10B410009DF8060008B14FF0010840464AB0BDE86B
:10B42000F0872DE9F0418AB006460D464FF000083E
:10B43000A9A0006809900024A8A103C9CDE90101D1
:10B44000083401A908192A4631461DF070FD2C4424
:10B450000D2001A90855641CFFF7BDFE002240F233
:10B4600025519C48FEF77BFD214601A8FFF7BCFE55
:10B47000062101A8FFF7CCFE0746012240F2255124
:10B480009448FEF76CFD38460AB0BDE8F08170B50F
:10B4900088B005460026002493A103C9CDE9000128
:10B4A0000834002240F225518A48FEF758FD214613
:10B4B0006846FFF799FE1F216846FFF7A9FEC6B24E
:10B4C000012240F225518348FEF749FD10220DF17B
:10B4D0000B0128461DF02BFD304608B070BD38B575
:10B4E000054600200090002405F109008149C1F8BB
:10B4F000140C02217F48FFF78BFEC0B200909DF82C
:10B50000000008B1102038BD7A480078552803D1D2
:10B5100078484078AA2801D01120F4E70121754825
:10B52000801CFFF775FEC0B200909DF8000008B1C6
:10B530001020E8E702216F48C01CFFF769FEC0B287
:10B5400000909DF8000008B11020DCE76948007900
:10B550006849C97801F07F0140EA0124B4F5A06F81
:10B5600001D91220CFE76348C4600121401DFFF7D5
:10B570004FFEC0B200909DF8000008B11020C2E755
:10B5800001215C48801DFFF743FEC0B200909DF88A
:10B59000000008B11020B6E702215648C01DFFF791
:10B5A00037FEC0B200909DF8000008B11020AAE755
:10B5B0005048007A4F49C97940EA01204D49086155
:10B5C000B4F5406F01D912209DE7241F4949D1F8F5
:10B5D000140C2146FFF71CFEC0B200909DF800003D
:10B5E00008B110208FE701214348FFF711FEC0B2D8
:10B5F00000909DF8000008B1102084E702213E4829
:10B60000401CFFF705FEC0B200909DF8000008B195
:10B61000102078E7374890F81D0CCC2804D1354825
:10B6200090F81E0C332801D014206CE731480168D3
:10B63000296041686960007A28722E48C068C11C80
:10B640006A46A81C00F016FE2A4890F81C0C9DF8CB
:10B650000010884201D0132055E726484079512830
:10B6600052D12448807878B90020244908602148C4
:10B670002246D0F8141C14301DF059FC1F480068F5
:10B6800020441E49086019E01A4880781C4909784E
:10B69000884204D119480068001B18490860154AFF
:10B6A000D2F8141C1432154B1B68D01822461DF01A
:10B6B0003EFC124800682044104908600D4880781C
:10B6C0000F4908700B4800690C490968884219D174
:10B6D000002018E700440040000B000041542B4EAE
:10B6E000414D453D0000000041542B475645520D49
:10B6F00000000000E4090020001600207000002077
:10B70000740000202020FEE6FE484079582801D130
:10B710002120F8E6FB484079592801D12220F2E6A1
:10B720000020F0E670B505460E461020F649087078
:10B7300000241DE031462846FFF7ADFD1E20F349E9
:10B7400008600220F24908700FE0EF4800782128D5
:10B7500002D1ED48007870BDEC48006800B905E002
:10B76000EB480078012800D1F5E7EEE700BF641C44
:10B77000002CDFD00120EEE770B5ADF5A06D0DF126
:10B780000900E049C1F8180C08460669B6F5406F93
:10B7900003D971200DF5A06D70BDDA4890F81F0C2B
:10B7A00018B94120D749487104E04520D54948716E
:10B7B00003200861D348008A000AD249C8710846AC
:10B7C000017C01720069B0F5806F7DD900250020F1
:10B7D000CC4988708BE0CB480069B0F5806F39D9CF
:10B7E000C8488078401CC74988708420C8700421EC
:10B7F000C44801710922014668461DF0DDFBC148BD
:10B80000143041194FF480620DF109001DF08FFBD7
:10B810000020BC4981F81C0C01F61C4240F2074193
:10B820000DF1020000F026FDB64890F81C0C8DF8D2
:10B830000904CC208DF80A0433208DF80B0440F263
:10B840000C4605F58065AF480069A0F58060AD49FC
:10B85000086144E0AB488078401CAA4988700846DB
:10B86000008A001D000AC8700846007C001DC1B295
:10B87000A44801710922014668461DF09DFBA148BC
:10B880000269143041190DF109001DF050FB002030
:10B890009C4981F81C0C08460069C11D9D4A0DF1A8
:10B8A000020000F0E7FC974890F81C1C0069093082
:10B8B0000DF80010CC21934800690A300DF80010F3
:10B8C00033219048006900E017E00B300DF80010BC
:10B8D0008C48006900F10C0600208A490861314655
:10B8E0006846FFF71FFF04460CB1204652E7854823
:10B8F000006900287FF46FAF47E00020814988701D
:10B900000846008A001D000AC8700846007C001D19
:10B91000C1B27C48017100207A4981F81C0C0922CF
:10B9200068461DF049FB774800F1140102690DF1EA
:10B9300009001DF0FCFA73480069C11D754A0DF13C
:10B94000020000F097FC6F4890F81C1CD0F8180C0F
:10B950006C4A12698154CC216A48D0F8182C0069CD
:10B96000401C115433216748D0F8182C0069801C02
:10B9700011546448006900F10C0631466846FFF72F
:10B98000D1FE04460CB1204604E7002002E7002067
:10B9900070471FB56048FEF707FA4FF4E13000909A
:10B9A0004FF48050ADF804000020ADF806004FF4CD
:10B9B0008060ADF808000020ADF80C000C20ADF858
:10B9C0000A0069465448FEF732FA01215248FEF750
:10B9D000BAFA1FBD70B504460D4629462046FFF74A
:10B9E00017FC08B1012070BD2078792801D0012012
:10B9F000F9E70020F7E710B502460B4600200021CA
:10BA000003E0545C60404C1CA1B29942F9DB10BDCC
:10BA10002DE9F041CCB0054688460024287801285D
:10BA20006ED103213DA00DF0B1FE002240F2255160
:10BA30003948FEF794FA01224BA93C4802F0A0FDD8
:10BA40009DF82C0155280FD139493848401C02680F
:10BA50000A6042684A608068886034490D31E0229B
:10BA600034481DF064FA80E033A2D2E900109268F5
:10BA7000CDE9010200910C2421466846FFF7B4FB92
:10BA80001F216846FFF7C4FB18B101204CB0BDE888
:10BA9000F0812748DDF80B100160DDF80F104160E0
:10BAA000DDF8131081600C2201462048401C02F092
:10BAB0008CFD0D2224A168461DF07EFA0D2421463E
:10BAC0006846FFF791FBF2216846FFF7A1FB22A130
:10BAD00068461DF0CFF907460FB90220D6E70A37AE
