:020000040800F2
:10000000D07A0020954100089D0300089F03000856
:10001000C5030008C9030008CD0300080000000064
:10002000000000000000000000000000D1030008F4
:10003000D303000800000000D5030008D703000820
:10004000AF410008AF410008D9030008956B0108D3
:10005000AF410008AF410008AF410008AF410008C0
:10006000AF410008F1040008AF410008AF410008AB
:10007000AF410008AF410008AF410008AF410008A0
:10008000AF410008AF410008AF410008AF41000890
:10009000E9040008AF410008AF410008AF41000883
:1000A000AF41000847040008AF410008AF41000815
:1000B000E7040008AF410008AF410008AF41000865
:1000C000AF410008AF410008AF410008AF41000850
:1000D000AF410008F7030008F9030008AF4100082A
:1000E00001050008AF410008AF410008AF4100081A
:1000F000AF410008AF410008AF410008AF41000820
:10010000AF410008AF410008AF410008AF4100080F
:1001100045040008AF410008AF410008AF410008A6
:10012000AF410008AF410008AF410008AF410008EF
:1001300000F002F800F05AF80AA090E8000C82449F
:100140008344AAF10107DA4501D100F04FF8AFF27C
:10015000090EBAE80F0013F0010F18BFFB1A43F0A5
:1001600001031847AC6C0200CC6C02000A444FF04B
:10017000000C10F8013B13F0070408BF10F8014B06
:100180001D1108BF10F8015B641E05D010F8016B4B
:10019000641E01F8016BF9D113F0080F1EBF10F8AF
:1001A000014BAD1C0C1B09D16D1E58BF01F801CBD2
:1001B000FAD505E014F8016B01F8016B6D1EF9D555
:1001C0009142D6D37047000000230024002500266A
:1001D000103A28BF78C1FBD8520728BF30C148BFAA
:1001E0000B6070471FB51FBD10B510BD21F06CFE30
:1001F0001146FFF7F7FF00F0AFF821F08AFE03B4D5
:10020000FFF7F2FF03BC21F08FFE00003FB5A0FB1B
:10021000014515601C603FBD10B502F0ADF94FF40B
:10022000803002F0C9F902F006FA0446012C27D109
:10023000102001F0A3FC022001F08CFC002002F051
:1002400040FA002002F04FFAA00202F043FAE00365
:1002500002F064FA4FF4E011200402F015FA0120D4
:1002600002F01EFA00BF392002F0C9F90028FAD0C6
:10027000022002F018FA00BF02F01EFA0828FBD193
:1002800000214FF0006001F012F94FF4C06001F05E
:10029000D7F810BD00BFBFF34F8F3A48006800F495
:1002A000E06039490843001D36490860BFF34F8FAD
:1002B00000BF00BFFEE708B5FFF7AEFF482005F01E
:1002C000F7FC05F04DFD16F06BFA12F005FB12F08D
:1002D00066FD012012F013F806F0C4FA07F012F8D8
:1002E00013F002FD04F0BDFE04F05EF809F04EFBD1
:1002F00001226946254808F019F99DF800005528A3
:1003000003D09DF80000AA2800D100BF0122694651
:100310001E48401C08F00AF99DF80000552805D138
:1003200018F0DCFB002001F00EF80EE09DF8000054
:10033000AA280AD118F02CF818F036F818F044F86A
:1003400017F0F8F9012000F0FEFF1EF0B7FF13F0E0
:1003500069FD06F015FB08BDFF200D4981F8470433
:1003600000200C4908704FF496600B490860FFF7B5
:10037000A2FF05E002F083F800F01AF900F00DFD8D
:10038000F8E700000CED00E00000FA058A5E0008C6
:10039000484800200451002000000020704712F05F
:1003A0006EF800BFBFF34F8F6F48006800F4E06045
:1003B0006E490843001D6C490860BFF34F8F00BFB2
:1003C00000BFFEE700BFFEE700BFFEE700BFFEE79D
:1003D000704770477047704710B501F01BFB48B17C
:1003E00001206349087001F01AFB01F00AFB0020AC
:1003F00001F0CBFA10BD704710B520215D4803F025
:100400007DFDF0B1002240F225515A4803F0A7FCCF
:100410004FF48071584821F00BFD574804F067FFF6
:10042000564908704FF496605549086001205549B7
:10043000087011F064FF012240F225514D4803F08D
:100440008EFC10BD704710B504F099FD4E49087040
:1004500001214E4803F093FB002843D001214B4873
:1004600003F09EFB4A480078A0B10821494801F0FA
:1004700042FF60B146480078401C45490870084674
:1004800000780A2806D1012016F0AAF902E000201F
:100490003F4908703A48006820B139480068401E5A
:1004A000374908603C48006820B13B480068401E5E
:1004B000394908603948006820B138480068401E52
:1004C000364908603648006820B135480068401E4B
:1004D000334908603348006820B132480068401E44
:1004E0003049086010BD704710B517F0E5FF10BD2A
:1004F00010B5082001F025FB01202549087010BD2A
:1005000010B54FF4805001F00BFB58B14FF4805000
:1005100001F017FB012011F0F2FE4FF4966018492C
:1005200008601EE04FF4006001F0FAFAC8B106213D
:100530001D4818F0B1FB00B110BD1B48017940798E
:1005400001EB002084B2E01C81B21748801D18F036
:10055000A3FB00B1F0E7012014490870C00201F0CC
:10056000F0FA00BFE8E700000CED00E00000FA053B
:1005700027000020004400405416002060000020A6
:10058000000000206900002068000020002C0140CD
:10059000D8060020001001400400002008000020C0
:1005A000540000206C0000206C5200200008002045
:1005B00070B504F0E4FC0546012D00D095B9FE4865
:1005C000007878B10020FC49087013F073F803211B
:1005D000FAA013F01EF91E20FC490860FF20FC4918
:1005E00081F8470406F0AEFCFA48007808B106F03E
:1005F00041F9F648006888B9F54890F84704FF28A3
:1006000009D14FF49670F14908600120F149087052
:1006100006F0B6F902E03C20EC490860EB480068BF
:100620000321B0FBF1F201FB1200E8B113F0A7FBCC
:100630000446204612F03EF914E00721012011F093
:1006400047FF0321E4A012F0C7FA4FF47A7005F0D7
:100650004BFB13F094FB04461020E3490870002084
:10066000DA490860002CE8D0E0480068B0F5077F60
:1006700007D2D74890F84704FF2802D1002011F094
:100680003EFEDA48006810B9002016F0A9F870BDE7
:1006900038B5012013F04CFA0446FF2C09D1CB48A1
:1006A0000068052804D20020D1490870D14908709B
:1006B00038BDC74890F84704FF281ED0452C0FD1FD
:1006C000FF20C34981F8470406F0D6FBCA48407AA8
:1006D000032806D1C848807A042802D114F016FBFA
:1006E000F7E0C548407A0528FAD1C348807A032844
:1006F000F6D1072015F04CF9EBE04F2C07D1BF489D
:10070000007820B10020B1490860BC490870232C52
:100710001BD1B8480078C0B9002513E0002013F0C1
:1007200007FA0446232C0CD1681CC5B2032D09D14D
:1007300006F020FC0120AF4908706420A34908603E
:1007400001E000E0EAE700BFC3E0AA480078012822
:1007500031D1312C08D106F022FC1E209B490860C3
:100760000020A449087018E0322C08D10220A149C9
:10077000087006F03CFC6420944908600DE0332CBE
:1007800001D0342C09D19E48047006F026FC642068
:100790008E490860032097490870452CA0D106F0C7
:1007A000EFF84FF49670894908600020904908706E
:1007B000904908708DE08F48007802280ED1312CC6
:1007C00001D0322C8CD18E48047006F006FC6420D7
:1007D0007E4908600320874908707AE085480078E0
:1007E000032876D1302C14DB392C12DC8548804963
:1007F000097844547E480078C0002830C1B2824B4A
:100800002A22042011F03CFF79480078401C7849E6
:1008100008707748007806284ED10721002011F093
:1008200057FE06227949774821F038FA38B103217A
:1008300077A012F0D1F91E206449086036E0032148
:1008400076A012F0C9F96E480078312807D15520FA
:10085000009001226946754807F08DFE24E0684843
:100860000078322807D1AA200090012269466F48FB
:1008700007F081FE18E062480078332808D1FF2095
:1008800000900122694669487B3807F074FE0BE04E
:100890005B480078342807D1FF2000900122694688
:1008A0006248401E07F067FE00F095FD00205049A9
:1008B00008705049087000BF452C0AD106F060F856
:1008C0004FF4967041490860002049490870494931
:1008D000087000BFECE610B53D4890F847040128C9
:1008E00068D15348006806F0A6F90446012C0AD1E5
:1008F000032014F00BFA002035498870FF2081F89E
:100900004704284610BD3248407800F0800030B3DC
:100910004848006820B91EF052FC052005F0E4F9B3
:1009200044480068401C434908604349481C13F090
:10093000B3FB04467CB941480178414813F0C2FB3F
:10094000044614B906F0BEF809E00920204981F8F0
:1009500047040020D6E7022C01D106F0C3F81C485A
:10096000407800F04000D8B111F00FFC09F0B6FF5C
:100970003448007801280AD106F027FA052014F03F
:10098000C5F9FF20124981F847040020BAE72D4835
:100990000078022804D100202A49087006F025FAC0
:1009A0000B48407800F0200000287DD025480078D2
:1009B00008B949E07BE069E069000020C0B6D1C019
:1009C000C1ACBDD3B6CFBFAA000000000400002018
:1009D0004848002011000020B5E7C1BFB5CD2CC7A5
:1009E000EBB3E4B5E7000000600000200000002049
:1009F0001A00002018000020340A002010000020F7
:100A0000190000201B00002087410208210000205F
:100A1000C3DCC2EBB4EDCEF300000000C7D0BBBB1B
:100A2000D6D02CC7EBC9D4B5C80000008B5E000837
:100A30000800002014000020B04C002059000020C5
:100A4000F90800208A000020FD480068B0F5407FCA
:100A500007D10020FA4908601EF0B7FB0A2005F014
:100A600043F9F848007830B11EF071FA70B10020F7
:100A7000F44908700AE01EF0B2FAB0F5104F05D143
:100A80001EF0A6F810B90120EE490870ED48007874
:100A900000288AD006F099F9072014F037F9FF20D2
:100AA000E94981F8470400E094E000202AE7E6489D
:100AB00090F8470402287DD1E448E3490A69C261FD
:100AC000898A0184E0480146D1F81D24C0F8A22596
:100AD000B1F82114A0F8A615002013F0C4FA0220E2
:100AE000DB490870D84890F8480401280BD1D64853
:100AF00090F8451400F5B5631A1D00F29C5013F0F0
:100B000005FB044625E0D04890F8480402280BD1A4
:100B1000CD4890F8451400F5B5631A1D00F29C50BD
:100B200013F02BFB044614E0C74890F84804212832
:100B30000FD0C54890F8480422280AD0C24890F83F
:100B40004804232805D0C04890F84804242800D041
:100B500000BF012013F087FABD48007801280AD1B0
:100B600005F00EFFFF20B84981F847041020B9496D
:100B700008700020C6E614BBB7480078B24981F877
:100B8000680401F26942511EB348401C05F041F966
:100B9000AD4890F86804401EB049085C3F2806D173
:100BA000A94890F86804401EA74981F86804092004
:100BB000A54900E00FE081F847040020A2E6022CDE
:100BC00008D1FF20A04981F8470406F01DF907204D
:100BD00014F0DEFEDFE09C4890F847040328F9D0CB
:100BE000994890F847040428F4D0974890F84704AF
:100BF000062832D114F0FCFB04460CB1012C02D1C2
:100C000006F0DAF808E0022C02D106F035F903E02C
:100C1000032C01D106F007F89148407A052805D148
:100C20008F48807A032801D114F0B2FE8C48407AB4
:100C3000042809D18A48807A042805D188491031CE
:100C4000081D14F00DFC0446002086490870FF20A2
:100C50007D4981F84704002054E67B4890F847041A
:100C6000082813D17D4A383A511EA1F5846005F059
:100C7000D9FA044605F0A8FE03F03CFC12F06DFF23
:100C80000120714981F8470400203BE66E4890F846
:100C9000470409287DD16C4890F868146F4805F026
:100CA0005CFF694890F81A03012803D113F03BFF59
:100CB000044600E0002424BB06F07EF86848407A31
:100CC00003280BD16648807A042807D1002014F04D
:100CD0001DF8FF205C4981F8470410E06048407A25
:100CE00005280CD15E48807A032808D1564890F830
:100CF0004804012803D10620534981F84704002005
:100D000000E6012C1DD1FF204F4981F8470406F071
:100D1000B3F85348407A032806D15148807A042812
:100D200002D113F0F3FF0AE04D48407A052806D1BE
:100D30004B48807A032802D1072014F029FE0020B6
:100D4000E0E5022C1FD14648407A032807D14448E9
:100D5000807A042803D1032013F0D8FF0AE040482A
:100D6000407A052806D13E48807A032802D1072020
:100D700014F00EFE05F057FFFF20334981F84704B9
:100D80000020BFE505E0FF202F4981F8470400203F
:100D9000B8E50120B6E500BFB4E5F8B5304F163729
:100DA0003E4613F0A2F82B480078302875D12C4825
:100DB000807A2B49497A00EB012529480069801E79
:100DC000009040F20630291A854267D025DCB5F53F
:100DD000867F75D00FDCB5F5847F74D005DCA5F275
:100DE000011060B306286DD162E0A5F20910D8B3F6
:100DF0000128F8D17CE040F20721681A8D4274D0B6
:100E000006DCA5F20220002870D00228EBD18EE08B
:100E1000FD286CD0FE28E6D1ADE040F2FF12881A22
:100E200091426ED026DC40F2FB12A1EB020091420F
:100E300068D01ADCFE2970D0FF29D4D1B7E02EE0AB
:100E4000140000208B00002048480020C84D0020DE
:100E5000690000206000002039330020B14C0020E0
:100E6000340A00200451002036E0012873D0022803
:100E7000B9D1B9E001286FD00B286ED0B0F5FE7F54
:100E80006CD0A0F5E240FB380028ACD113F0AFF9EC
:100E900004461520F9490870E0E0E6E075E069468F
:100EA000304613F0D1F904461520F4490870D5E016
:100EB00013F0D6F91520F149087000200090CDE01C
:100EC00021E000E0C5E06946304613F0D9F9044658
:100ED0001520EA490870C1E06946384613F076FAF1
:100EE00004461520E5490870B8E02AE016E036E02F
:100EF0006946304613F008FB04461520DF490870A8
:100F0000ACE07AE05CE032466946384613F03FFBDD
:100F100004461520D9490870A0E03FE069463846EC
:100F200013F0FAFB04461520D449087096E03246C7
:100F30006946384613F06DFD04461520CF49087008
:100F40008CE032466946384613F017FE04461520F9
:100F5000CA49087082E03DE05BE064E06DE000209B
:100F6000C74908706946384613F0EFFE0446102062
:100F7000C249087072E032466946384614F02CF8CF
:100F800004461520BD49087068E06946304615F0F2
:100F9000A0F904461520B94908705FE06946384653
:100FA00014F01CFB04461020B449087056E0694652
:100FB000304614F031FB04461520B04908704DE06E
:100FC00032466946384614F038FB04461520AB49D2
:100FD000087043E032466946384614F081FB044607
:100FE0001520A649087039E06946384614F037FCE8
:100FF00004461020A149087030E00020A149C860D3
:101000006946304614F03AFE044615209B490870A4
:1010100024E032466946384614F033FE0446152073
:10102000964908701AE032466946384614F029FE9F
:10103000044615209149087010E00020904908707E
:101040006946384614F011FF044615208B49087094
:1010500004E0152089490870042400BF00BF0098EF
:10106000801C8849086181F81F4CFFF734FC10B9D7
:101070003C208549086081480078152804D104F097
:10108000A8FA10207D490870FFF702FBF8BDF8B5FB
:10109000054605F108007B49C1F8180C0020C8601E
:1010A0007648007820BB0846807A497A00EB012612
:1010B0006FF4F040304410B1012813D10BE05520FB
:1010C000009001226946714807F055FA0024152066
:1010D0006A4908700BE00024AA2000901520674997
:1010E000087004E0152065490870042400BF00BFA3
:1010F00062480078152807D16248C168204604F08C
:1011000068FA10205D4908709DF80000AA2801D1F6
:101110000120F8BD0020FCE7F0B591B004465C4A20
:10112000D2E901311068D268CDE906310892059004
:1011300058A3D3E90020D3E9021302AD0BC50192F5
:1011400000260721012011F0C3F9012155A011F05B
:1011500043FD032157A011F03FFD04210CA806F028
:10116000E6FD28B1032155A011F036FD00BFFEE7D2
:101170000C9D0020099013E00A20B5FBF0F100FB64
:10118000115030309DF82410C1F104010AAA5054C6
:101190000A20B5FBF0F59DF82400401CC0B2099070
:1011A0009DF824000528E7DB0721012011F090F9C4
:1011B000012145A011F010FD15F0CFFB28B103214E
:1011C00044A011F009FD00BFFEE705F053FB002C21
:1011D00026D10521012011F07BF9012141A011F058
:1011E000FBFC032143A011F0F7FC04F0FDFA28B149
:1011F000052144A011F0F0FC00BFFEE70A98CDF8ED
:101200001D009DF82C008DF821000E2105A803F08B
:10121000F6FF28B103213BA011F0DEFC00BFFEE782
:101220000721012011F054F912F0A9FD074611F031
:1012300041FB022137A011F0CFFC042105A811F0D9
:10124000CBFC05F017FB4FF47A7004F04DFD9CB910
:1012500011E03448FFF71BFF68B111F0FAF80221E2
:1012600031A011F0B9FC04F0C1FA102101A803F07B
:10127000C6FF00F0B0F8ECE75CE000006000002082
:1012800011000020340A0020040000208A5E0008BB
:101290006027020855502D6D504F532D303030309F
:1012A00030303030B0B2C8ABD0BEC6ACBCECB2E26D
:1012B0002E2E2E00C7EBC9D4B5C80000BCECB2E29C
:1012C000CAA7B0DC00000000B3F5CABCBBAFCAB10E
:1012D000D6D30000C7EBBCECB2E2525443BEA7D554
:1012E000F1000000C0B6D1C0C4A3BFE9BCECB2E2BB
:1012F00000000000C0B6D1C0B3F5CABCBBAFD6D0A9
:101300002E2E2E00C0B6D1C0B2E2CAD4CAA7B0DC1D
:1013100000000000CBF9D3D0B2E2CAD4CDEAB3C901
:101320000000000054160020D5FDD4DAB9D8BBFA6D
:101330002E2E2E00AA200990012209A92D4807F07F
:101340001AF911B0F0BD08B5044644B907210020D0
:1013500011F0BEF8022128A011F03EFC0DE0012C96
:101360000BD10721002011F0B3F8022125A011F0C4
:1013700033FC042126A011F02FFC2BE0012012F0F9
:10138000D7FB0546452D09D1FF2000900122694673
:101390001848401C07F0EFF800F01DF824B917F0CA
:1013A00090FCC0B2009005E0012C03D117F01EFBA9
:1013B000C0B200909DF8000020B9062117A011F0DE
:1013C0000BFC07E09DF80000FF2803D0062117A0C2
:1013D00011F002FCD2E7BFF34F8F1748006800F40A
:1013E000E06016490843001D13490860BFF34F8FA2
:1013F00000BFFEE78A5E0008C7EBC1ACBDD3C4B82E
:10140000504F5300C7EBC1ACBDD3B5E7C4D4000007
:10141000B0B4C8A1CFFBCDCBB3F60000C5E4D6C3B2
:10142000B3C9B9A62CC7EBD6D8C6F400C5E4D6C359
:10143000CAA7B0DC000000000CED00E00000FA05D7
:1014400033490143334A1160704770B500210023CE
:101450000F22C47804B32F4C246804F4E064C4F56C
:10146000E064210AC1F10403CA40447804FA03F19C
:101470008478144021430901274C0678A15504784B
:1014800004F01F050124AC4005786D11AD0005F195
:10149000E025C5F8004109E0047804F01F050124A7
:1014A000AC401E4D0678761145F8264070BD1C4AAA
:1014B0000A400243174B1B1F1A60704739B1154A87
:1014C000121D12680243134B1B1D1A6006E0114ADD
:1014D000121D126882430F4B1B1D1A6070470428AF
:1014E00008D14FF0E021096941F004014FF0E022FA
:1014F000116107E04FF0E021096921F004014FF08C
:10150000E022116170470248001D024908607047DF
:101510000000FA050CED00E000E400E080E100E0EE
:1015200080FFFF1F10B50446FA48844208D101210C
:10153000401501F0A9F90021601501F0A5F917E0A7
:10154000F548844208D10121001501F09DF90021E0
:10155000201501F099F90BE0F048844208D10121EF
:10156000C80301F091F900214FF4004001F08CF91B
:1015700010BD30B50246002000235068E84C2040E2
:101580000D790C6844EA0524204350609068E54CCE
:101590002040D1E902542C434D7944EA45042043CC
:1015A0009060D06A20F470000C7C641EE4B2234387
:1015B00040EA0350D06230BD0021016001714171E9
:1015C0008160C16001210174704721B1826842F0DD
:1015D0000102826003E0826822F0010282607047AB
:1015E00021B1826842F48072826003E0826822F452
:1015F00080728260704710B50023CBB21AB1446884
:101600001C43446002E044689C43446010BD816810
:1016100041F0080181607047014600208A6802F0AD
:1016200008020AB1012000E000207047816841F003
:10163000040181607047014600208A6802F00402BC
:101640000AB1012000E00020704721B1826842F415
:10165000A002826003E0826822F4A00282607047E8
:10166000014600208A6802F480020AB1012000E0ED
:101670000020704710B50A4600210023416821F47C
:101680006041531E41EA4331416010BD21B14268BF
:1016900042F40062426003E0426822F40062426069
:1016A0007047F0B504460D4600200021092D11DDDC
:1016B000E068A5F10A0606EB4607072606FA07F1D9
:1016C0008843A5F10A0606EB460603FA06F108432D
:1016D000E0600CE0206905EB4507072606FA07F1F4
:1016E000884305EB450603FA06F108432061072A03
:1016F0000FDA606B561E06EB86071F2606FA07F107
:101700008843561E06EB860605FA06F10843606319
:1017100022E00D2A0FDA206BD61F06EB86071F2664
:1017200006FA07F18843D61F06EB860605FA06F18E
:101730000843206310E0E06AA2F10D0606EB86077D
:101740001F2606FA07F18843A2F10D0606EB86066E
:1017500005FA06F10843E062F0BD21B1826842F467
:101760008012826003E0826822F4801282607047F7
:101770000146C86C80B2704766484C3000687047BC
:1017800021B1426842F48062426003E0426822F480
:1017900080624260704721B1426842F480524260E8
:1017A00003E0426822F48052426070470A460021FA
:1017B000816821F4E04111438160704721B1826862
:1017C00042F40042826003E0826822F400428260B8
:1017D000704721B1826842F40212826003E082689D
:1017E00022F4021282607047014600208A6802F4E7
:1017F00000120AB1012000E000207047F0B5044655
:101800001546002000220026092911DDE068A1F11B
:101810000A0707EB470C072707FA0CF29043A1F1E0
:101820000A0707EB470703FA07F21043E0600CE0F2
:10183000206901EB410C072707FA0CF2904301EBFA
:10184000410703FA07F210432061A06BC0F3015671
:10185000EF1C06F1010CA7EB0C0707EB870C1F2709
:1018600007FA0CF29043EF1C06F1010CA7EB0C07F2
:1018700007EB870701FA07F21043A063F0BD10B52C
:101880000A4600210023816B21F44011531E41EAD6
:101890000351816310BD08B5002300930090009BA5
:1018A0000B440093009B1A6008BD08B50246002057
:1018B0000090009201F12800009B184400900098CD
:1018C000006880B208BD0A4600214168164B1940E5
:1018D0001143416070474162826270470A460021AD
:1018E000416821F01F0111434160704740B109492F
:1018F0000831096841F40001064A0832116007E026
:1019000004490831096821F40001024A08321160D3
:10191000704700000024014000280140003C0140C5
:10192000FFFEF0FFFDF7F1FFFFFD3FFF0246002045
:1019300013680B400BB1012000E000207047CA4340
:101940000260704770B502460020002300240B128D
:101950005568CEB205EA060415681D4015B10CB1F4
:10196000012000E0002070BD00220A12D343036072
:101970007047000010B5012000F0A0FF002000F02B
:101980009DFF10BD2A49086070472949091F08605A
:101990007047274984310860704701460020254A76
:1019A00010884FF67F4210400843224A108070474B
:1019B000014600201F4A10884FF6807210400843ED
:1019C0001C4A1080704708B500220092194A2C3A30
:1019D0000092009A02440092009A116008BD08B576
:1019E00001460020009013482C38009000980844CD
:1019F00000900098008808BD0D489C300068C0B277
:101A000070470C480830008840F00100094908314F
:101A1000088070470648A0300068C0B2704705488B
:101A20000830008840F00200024908310880704701
:101A300004860D422C6C0040002044490860091DBA
:101A40000860091D0860091D086041483F491431BC
:101A50000860704700213D498279002A3AD00A4641
:101A6000126803689A430B461A600A1D12680368DD
:101A70009A430B1D1A60027911440A6803681A43DD
:101A80000A60324A0832126803689A432F4B0833BF
:101A90001A601A1D126803689A432C4B0C331A60A3
:101AA0004279102A0ED11A1F126803681A43274B75
:101AB00008331A601A1D126803681A43234B0C334B
:101AC0001A600DE02149427911440A6803681A43FB
:101AD0000A6005E0027911440A6803689A430A60C3
:101AE00070470021016001710C2141710021817159
:101AF00070471649103109680143144A10321160C9
:101B0000704701460020114A143212680A400AB197
:101B1000012000E0002070470C4914310860704734
:101B2000014600200022094B1B6803EA0102074B13
:101B300014331B680B4013B10AB1012000E00020F0
:101B400070470249143108607047000000040140EA
:101B5000FFFF0F0001460020FE4A106800F0380029
:101B6000084310607047FB49096821F00801F94AF1
:101B7000116011460968014311607047F549096811
:101B800021F01001F34A1160114609680143116008
:101B90007047F148EF494860F04848607047EE48A8
:101BA000EC494860ED4848607047EA48006940F0F9
:101BB0008000E84908617047E648006940F080000D
:101BC000E449086170470420E249C96801F0010155
:101BD00009B101200EE0DF49C96801F0040109B133
:101BE000022007E0DB49C96801F0100109B10320B8
:101BF00000E00420704700B502460423FFF7E3FF2E
:101C0000034603E0FFF7DFFF0346521E012B01D11D
:101C1000002AF7D102B90523184600BD30B50446A5
:101C200004254FF43020FFF7E6FF0546042D17D1B9
:101C3000C848006940F00200C6490861084644618E
:101C4000006940F0400008614FF43020FFF7D3FFF7
:101C50000546C048006941F6FD710840BD4908616C
:101C6000284630BD10B504244FF43020FFF7C3FFE1
:101C70000446042C16D1B748006940F00400B54969
:101C800008610846006940F0400008614FF43020C8
:101C9000FFF7B1FF0446AF48006941F6FB71084009
:101CA000AC490861204610BD00B502460423FFF789
:101CB0008AFF034603E0FFF786FF0346521E012B0F
:101CC00001D1002AF7D102B90523184600BD10B58D
:101CD00004244FF43020FFF7E7FF0446042C16D10C
:101CE0009C48006940F004009A4908610846006970
:101CF00040F0400008614FF43020FFF7D5FF044664
:101D00009448006941F6FB710840924908612046F9
:101D100010BD00208F49C96901F0020109B10120FD
:101D200000E00020704730B5A5250424FFF7F1FF3F
:101D300000B100254FF43020FFF75DFF0446042C6E
:101D40003AD185488349886084488860084600699C
:101D500040F0200008610846006940F0400008613A
:101D60004FF43020FFF747FF0446042C1BD179487D
:101D7000006941F6DF71084076490861084600694C
:101D800040F01000086176480580E002FFF733FF5D
:101D90000446052C10D06F48006941F6EF710840E9
:101DA0006C49086108E0052C06D06A48006941F6D4
:101DB000EF71084067490861204630BD78B5064696
:101DC0000C46042500200090E802FFF714FF0546AA
:101DD000042D24D15F48006940F001005D4908618D
:101DE0003480E802FFF707FF0546042D10D1B01C30
:101DF0000090200C00990880E802FFF7FCFE0546E1
:101E00005448006941F6FE7108405249086106E0F5
:101E10005048006941F6FE7108404E490861284665
:101E200078BD70B504460D460426F002FFF7E3FEC8
:101E30000646042E11D14748006940F0010045498B
:101E400008612580F002FFF7D6FE0646414800698A
:101E500041F6FE7108403F490861304670BD70B5DB
:101E600005460E460424E002FFF7C5FE0446042C96
:101E700017D1394837498860384888600846006972
:101E800040F0100008612E80E002FFF7B4FE044627
:101E9000052C06D02F48006941F6EF7108402D4906
:101EA0000861204670BD2DE9F04304464FF6FF76E9
:101EB0003746B046B1460425E443E6B2C4F30727EB
:101EC000C4F307484FEA1469E802FFF794FE054699
:101ED000042D49D120481F49886020488860084661
:101EE000006940F010000861FF2E06D01C48083041
:101EF0000680E802FFF77FFE0546042D08D1FF2F7C
:101F000006D017480A300780E802FFF774FE05463E
:101F1000042D0AD1B8F1FF0F07D011480C30A0F8FA
:101F20000080E802FFF767FE0546042D0AD1B9F1EB
:101F3000FF0F07D00A480E30A0F80090E802FFF724
:101F40005AFE0546052D0FD00248006941F6EF7193
:101F5000084007E00020024023016745AB89EFCD30
:101F600000F8FF1F664908612846BDE8F08330B5D8
:101F7000054604244FF43020FFF73DFE0446042CB0
:101F800041D160485E4988605F48886008460069C2
:101F900040F0200008610846006940F040000861F8
:101FA0004FF43020FFF727FE0446042C22D154487A
:101FB000006941F6DF71084051490861084600692F
:101FC00040F0100008611DB100205049088002E077
:101FD000A5204E4908804FF43020FFF70CFE044640
:101FE000052C10D04648006941F6EF71084044497D
:101FF000086108E0052C06D04148006941F6DF7110
:1020000008403F490861204630BDF0B505460E4600
:10201000174604243B483A4988603B488860E00200
:10202000FFF7E9FD0446042C19D13548006940F05A
:1020300010003349086147F0F80030432843334922
:10204000891C0880E002FFF7D6FD0446052C06D067
:102050002B48006941F6EF71084029490861204684
:10206000F0BD2748C069800870472548006A70475E
:1020700000202349096801F0200109B1012000E096
:102080000020704729B11E4A126902431C4B1A6195
:1020900004E01B4A12698243194B1A6170470146DA
:1020A0000020012908D1164AD26902F001020AB1C2
:1020B000012008E0002006E0114AD2680A400AB177
:1020C000012000E0002070470D49C86070470420DF
:1020D0000B49C96801F0010109B101200EE008496E
:1020E000C96801F0040109B1022007E00449C96888
:1020F00001F0100109B1032000E004207047000046
:102100000020024023016745AB89EFCD00F8FF1F97
:1021100010B50446CC48844208D10121042000F0C7
:10212000B3FB0021042000F0AFFB46E0C748844227
:1021300008D10121082000F0A7FB0021082000F0B1
:10214000A3FB3AE0C248844208D10121102000F0EC
:102150009BFB0021102000F097FB2EE0BD4884423D
:1021600008D10121202000F08FFB0021202000F069
:102170008BFB22E0B848844208D10121402000F0C6
:1021800083FB0021402000F07FFB16E0B34884422F
:1021900008D10121802000F077FB0021802000F091
:1021A00073FB0AE0AE48844207D10121801500F09C
:1021B0006BFB0021A01500F067FB10BD10B50121DD
:1021C000084600F061FB0021012000F05DFB10BD1E
:1021D0002DE9F041024600250026002000230024BE
:1021E000002791F803C00CF00F0591F803C00CF024
:1021F000100CBCF1000F03D091F802C04CEA0505A9
:1022000091F800C0BCF1000F31D0146800202BE021
:102210004FF0010C0CFA00F3B1F800C00CEA030611
:102220009E4220D183004FF00F0C0CFA03F7BC4301
:1022300005FA03FC4CEA040491F803C0BCF1280F32
:1022400006D14FF0010C0CFA00FCC2F814C00AE0F1
:1022500091F803C0BCF1480F05D14FF0010C0CFA06
:1022600000FCC2F810C0401C0828D1D31460B1F89B
:1022700000C0BCF1FF0F34DD546800202EE000F1F7
:10228000080C4FF0010808FA0CF3B1F800C00CEA92
:1022900003069E4221D183004FF00F0C0CFA03F786
:1022A000BC4305FA03FC4CEA040491F803C0BCF1FA
:1022B000280F05D100F1080C08FA0CF8C2F81480B8
:1022C00091F803C0BCF1480F07D100F1080C4FF0A2
:1022D000010808FA0CF8C2F81080401C0828CED378
:1022E0005460BDE8F0814FF6FF71018002218170DA
:1022F0000421C17070470246002093680B400BB167
:10230000012000E0002070470146886880B27047D5
:1023100002460020D3680B400BB1012000E00020F2
:1023200070470146C86880B27047016170474161DB
:1023300070470AB1016100E041617047C1607047B8
:102340004FF480320A4382618161826182698269CD
:10235000704702460020434B18684FF680731840C0
:1023600040EA021008433F4B186070473E49C8617D
:102370007047F0B50A46002300240021002500F034
:102380000046B6F1004F02D1364EF16901E0354EFC
:102390007168C0F3034583B200F44016B6F5401FE0
:1023A00008D121F070612F4E766826F070662D4FAF
:1023B0007E6012E000F48016B6F5801F06D1032679
:1023C00006FA05F4A14341F0706106E0460D3601BE
:1023D00003FA06F6B14341F0706122B1460D3601B1
:1023E00003FA06F6314300F00046B6F1004F02D181
:1023F0001C4EF16101E01B4E7160F0BD30B5002252
:102400008B071C0F0F2303FA04F2164B08338C10B2
:1024100053F824309343134C08348D1044F825307E
:1024200023468C1053F824308C07240F00FA04F450
:1024300023430C4C08348D1044F8253030BD0A4934
:10244000DC3108607047000000080140000C0140CA
:10245000001001400014014000180140001C014020
:102460000020014000000140000020420E490860A9
:1024700070470D49486070470B49886070474AF6BD
:10248000AA200949086070474CF6CC40064908600C
:10249000704701460020044AD2680A400AB1012070
:1024A00000E00020704700000030004010B501211E
:1024B000080700F0F6F900214FF0805000F0F1F924
:1024C00010BD2A49086270472849086170470146D3
:1024D0000020274A106820F0E00008431060704791
:1024E0002249A0310860704710B502460020204BF9
:1024F000186820F00300104318601E4B1B6843F05F
:1025000004031C4C2360012901D130BF00E020BF2F
:10251000184B1B6823F00403164C236010BD1448AD
:10252000006840F00400124908600846006840F066
:10253000020008600F48006840F004000D49086080
:1025400000BF00BF30BF704701460020084A5268F4
:102550000A400AB1012000E00020704704490968E0
:1025600041EA8001024A11607047000000000E42FB
:102570000070004010ED00E0DF48006840F001000E
:10258000DD49086008464068DC490840DA4948608F
:1025900008460068DA490840D749086008460068DC
:1025A00020F4802008600846406820F4FE0048605F
:1025B0004FF41F0088607047CF49096821F48031CB
:1025C000CD4A11601146096821F480211160B0F5EF
:1025D000803F03D0B0F5802F0ED106E0C6490968D0
:1025E00041F48031C44A116007E0C349096841F4ED
:1025F000A021C14A116000E000BF00BF704710B5C4
:1026000001460022002300204A11012A02D1BA4CBF
:10261000236806E0022A02D1B74C236A01E0B64CD7
:10262000636A01F01F02012494401C400CB1012098
:1026300000E0002010BD38B50020009000240025E7
:1026400000BF3120FFF7DBFF05460098401C0090DB
:102650000098B0F5A06F01D0002DF2D03120FFF727
:10266000CEFF08B1012400E00024204638BD014619
:102670000020A14A106820F0F80040EAC100106074
:102680007047A04908607047024600209A4B58687E
:1026900020F47C1042EA01031843974B58607047BE
:1026A00098490866704701460020934A506820F018
:1026B00003000843506070478F48406800F00C00EA
:1026C0007047014600208C4A506820F0F000084313
:1026D0005060704701460020874A506820F4E0604F
:1026E00008435060704701460020834A506820F438
:1026F000605040EAC1005060704729B17E4A527A6A
:1027000002437D4B5A7204E07B4A527A82437A4BF1
:102710005A7270477B49D8310860704701460020E3
:10272000754A506820F440400843506070470021CB
:10273000714A20321170704A82F82010012802D0AC
:1027400004280AD104E001216B4A2032117005E00F
:102750000521694A2032117000E000BF00BF7047B8
:102760006949086070476449096A0143624A116215
:102770007047654944390860704730B50021002230
:10278000002400235C4D6D6805F00C0121B1042983
:1027900005D0082923D105E05C4D056022E05B4DA2
:1027A00005601FE0544D6D6805F47012524D6D6860
:1027B00005F48034022505EB92421CB9544D554373
:1027C00005600BE04C4D6D6805F400351DB1504DB2
:1027D0005543056002E04D4D5543056002E04B4D09
:1027E000056000BF00BF444D6D6805F0F0010909A8
:1027F000484D6B5C0568DD4045603F4D6D6805F4F4
:10280000E061090A434D6B5C4568DD4085603A4DE7
:102810006D6805F46051C90A3E4D6B5C4568DD404A
:10282000C560354D6D6805F44041890B3A4D6B5CD0
:10283000C568B5FBF3F5056130BD29B12E4A526973
:1028400002432D4B5A6104E02B4A526982432A4BC2
:102850005A61704729B1284A92690243264B9A610E
:1028600004E0254A92698243234B9A61704729B15B
:10287000214AD2690243204BDA6104E01E4AD26940
:1028800082431D4BDA61704729B11B4AD26802436B
:10289000194BDA6004E0184AD2688243164BDA60BA
:1028A000704729B1144A12690243134B1A6104E0BC
:1028B000114A12698243104B1A617047124940391C
:1028C000086070470F49C86470470B49C87170476A
:1028D0000948406A40F080700749486270470146E5
:1028E0000020054A92680A400AB1012000E0002059
:1028F0007047014988727047001002400000FFF8DD
:10290000FFFFF6FE000042428004424200127A00BD
:1029100000093D00280000203800002029B1574A56
:1029200012880243554B1A8004E0544A12888243AD
:10293000524B1A8070475148001D008840F010002B
:102940004E49091D088070474C48001D00884FF60D
:10295000EF7108404949091D088070470021474828
:102960001C300188001F008841EA0040704700B514
:102970000246FFF7E0FF100C404918310880091D9E
:102980000A80FFF7E1FF00BD00B50246FFF7D3FF65
:10299000C2F30340394908310880091D0A80FFF756
:1029A000D3FF00BD00B50246FFF7C5FF100C334949
:1029B00020310880091D0A80FFF7C6FF00BD0020F6
:1029C0002E49103109880907080B2C491431098850
:1029D00008437047002004E0401CB0F5801F00D978
:1029E00070472649091D098801F020010029F3D00C
:1029F00000BFF5E700202149091D09884FF6F7724D
:102A000011401E4A121D118004E0401CB0F5801FC9
:102A100000D970471949091D098801F008010029EA
:102A2000F3D000BFF5E701460020144A121D1288BA
:102A30000A400AB1012000E0002070470F49091D3B
:102A4000098881430D4A121D1180704701460020FC
:102A50000A4A121D12880A40D0B2084A12880A4057
:102A600012B108B1012000E0002070470349091DA0
:102A700009888143014A121D1180704700280040D7
:102A800010B50446BE48844208D101218014FFF7E6
:102A9000FBFE0021A014FFF7F7FE16E0B9488442C0
:102AA00008D101210014FFF7FCFE00212014FFF7DC
:102AB000F8FE0AE0B448844207D10121C013FFF7B1
:102AC000F0FE0021E013FFF7ECFE10BD10B5002270
:102AD000028802F441520B884C8823438C8823439C
:102AE000CC8823430C8923434C8923438C8923437B
:102AF000CC8923431A430280838B4FF2FF74234017
:102B000083830B8A038210BD2DE9F04F85B0054603
:102B10000C464FF0000902274FF000084FF0010B60
:102B20000026B246A88B4FF240010840A88302203D
:102B30002884B5F81C90A068022801D100BF38E0B5
:102B4000A08810B94FF0010B01E04FF0020B8D4847
:102B5000854200D100E000BF6846FFF70EFEDDF8B9
:102B600000A0E088B0F5007F0AD14FEA1A2000EB00
:102B700080004000A168B0FBF1F0401D86B20BE080
:102B80004FEA4B10BAFBF0F000EB80004000A16868
:102B9000B0FBF1F0401D86B20A20B6FBF0F606F05D
:102BA0000108A6EB0800C0F34F074FF6FF7000EADC
:102BB0000828022F01DBFF2F02DD02274FF000085B
:102BC000E08840EA080038432884A088A1890843A7
:102BD000618808432188084340F4006040EA0909FD
:102BE000A5F81C9005B0BDE8F08F00210180418060
:102BF0008180C180018141818181C1810721018260
:102C000070470021018041808180C1800221816064
:102C100000218181704721B1028842F04002028088
:102C200004E002884FF6BF731A400280704721B15A
:102C3000828B42F48062828304E0828B4FF6FF3302
:102C40001A408283704730B5002400230C110125FF
:102C5000A540ABB21AB185881D43858002E0858806
:102C60009D43858030BD1AB183880B43838002E089
:102C700083888B43838070478181704701468889B0
:102C800070474FF6FF62914204D0028842F480728E
:102C9000028004E002884FF6FF631A40028070470A
:102CA00021B1828842F00402828004E082884FF6DB
:102CB000FB731A408280704702884FF2FF731A40FC
:102CC000028002880A4302807047018841F48051E3
:102CD0000180704721B1028842F40052028004E072
:102CE00002884DF6FF731A400280704702460020AA
:102CF000012901D0108B00E0908A70470146088AB4
:102D00007047B1F5804F04D1028842F480420280BE
:102D100004E002884BF6FF731A40028070470246B7
:102D2000002013890B400BB1012000E00020704708
:102D3000CA4302817047F0B50246002000240023F8
:102D4000002501F00F070126BE40B4B20B11012689
:102D50009E40B3B2968806EA03051689264016B14E
:102D60000DB1012000E00020F0BD10B5002201F0FF
:102D70000F040123A3409AB2D343038110BD000086
:102D80000030014000380040003C004010B50446CF
:102D9000FE48844208D10121C014FFF775FD0021CF
:102DA000E014FFF771FDC4E0B4F1804F08D10121B8
:102DB0000846FFF776FD00210120FFF772FDB8E01D
:102DC000F348844208D101210220FFF76AFD002167
:102DD0000220FFF766FDACE0EE48844208D10121F5
:102DE0000420FFF75EFD00210420FFF75AFDA0E05C
:102DF000E948844208D101210820FFF752FD002153
:102E00000820FFF74EFD94E0E448844208D10121F8
:102E10001020FFF746FD00211020FFF742FD88E05B
:102E2000DF48844208D101212020FFF73AFD00212C
:102E30002020FFF736FD7CE0DA48844208D10121EA
:102E40004014FFF721FD00216014FFF71DFD70E025
:102E5000D548844209D10121C804FFF715FD00219E
:102E60004FF40020FFF710FD63E0D048844209D101
:102E700001210805FFF708FD00214FF48010FFF73E
:102E800003FD56E0CA48844209D101214805FFF7F5
:102E9000FBFC00214FF40010FFF7F6FC49E0C548A9
:102EA000844208D101214020FFF7FBFC0021402093
:102EB000FFF7F7FC3DE0C048844208D101218020A3
:102EC000FFF7EFFC00218020FFF7EBFC31E0BB486F
:102ED000844208D101218015FFF7E3FC0021A015F1
:102EE000FFF7DFFC25E0B648844209D10121080440
:102EF000FFF7CAFC00214FF48030FFF7C5FC18E053
:102F0000B048844209D101214804FFF7BDFC0021EB
:102F10004FF40030FFF7B8FC0BE0AB48844208D117
:102F200001218804FFF7B0FC00214FF48020FFF757
:102F3000ABFC10BD00220288944B98420ED0994BF6
:102F400098420BD0B0F1804F08D0914B984205D0F9
:102F5000904B984202D0904B984204D14FF68F7319
:102F60001A404B881A438D4B984207D08C4B98429D
:102F700004D04FF6FF431A40CB881A4302808B8857
:102F800083850B880385814B98420BD0854B9842F3
:102F900008D08B4B984205D08A4B984202D08A4B7E
:102FA000984201D10B7A038601238382704770B562
:102FB000002400220023058C4FF6FE763540058460
:102FC000028C8388048B4FF68F752C40B51E2C40E5
:102FD0000D882C43751E2A400D892A434D882A43AB
:102FE0006A4DA8420BD06F4DA84208D0744DA8423C
:102FF00005D0744DA84202D0734DA84213D14FF6AC
:10300000F7752A404D892A434FF6FB752A408D8873
:103010002A434FF6FF652B404FF6FF552B408D8915
:103020002B43CD892B4383800483CD8885860284FE
:1030300070BD70B5002400220023058C4FF6EF769A
:1030400035400584028C8388048B48F6FF752C403C
:103050004FF6FF452C400D884FF6FF7606EA052512
:103060002C434FF6DF752A400D8906EA05152A43E1
:103070004D8806EA05152A43444DA84202D0494D21
:10308000A8421DD14FF67F752A404D894FF6FF7635
:1030900006EA05152A434FF6BF752A408D8806EAD1
:1030A00005152A434FF6FF352B404FF2FF752B4095
:1030B0008D8906EA85052B43CD8906EA85052B43D4
:1030C00083800483CD880587028470BD70B5002499
:1030D00000220023058C4FF6FF6635400584028CE4
:1030E0008388848B4FF68F752C404FF6FC752C40EF
:1030F0000D882C434FF6FF552A400D894FF6FF7679
:1031000006EA05252A434D8806EA05252A431F4D70
:10311000A84202D0234DA8421DD14FF2FF752A408C
:103120004D894FF6FF7606EA05252A434FF6FF350F
:103130002A408D8806EA05252A434EF6FF752B4066
:103140004DF6FF752B408D8906EA05152B43CD8979
:1031500006EA05152B4383808483CD888587028406
:1031600070BD70B5002200230024058C4EF6FF765A
:1031700035400584038C8488828B48F6FF752A408D
:103180004FF6FF452A400D8820E00000002C01404A
:103190000004004000080040000C00400010004007
:1031A0000014004000340140004C01400050014038
:1031B0000054014000180040001C00400020004066
:1031C0000040014000440140004801404FF6FF76B6
:1031D00006EA05252A434DF6FF752B400D8906EAC0
:1031E00005352B434D8806EA05352B43FA4DA84299
:1031F00002D0FA4DA84208D14BF6FF752C408D89BC
:103200004FF6FF7606EA85152C4384808283CD88AD
:10321000A0F84050038470BD828B4FF2FF331A40F8
:103220008283828B4FF6FF7303EA01231A43828362
:103230007047F0B50C461546002200210026078C89
:103240004EF6FF7C07EA0C070784828B018C4FF651
:10325000FF7707EA043640F6FF473A404FF6FF771C
:1032600007EA05273A434FF6FF7707EA03373A4361
:10327000D94FB8420ED0D94FB8420BD0B0F1804FE1
:1032800008D0D74FB84205D0D64FB84202D0D64F5B
:10329000B84206D14DF6FF77394046F4805739439E
:1032A00005E047F6FF57394044F48057394382839D
:1032B0000184F0BD828B4FF6F3731A408283828BB8
:1032C0000A4382837047F0B50C4615460022002160
:1032D0000026078C4FF6FF6C07EA0C070784828BE9
:1032E000018C4FF6FF7707EA04264FF60C773A4039
:1032F0004FF6FF7707EA03172F433A43B64FB8421A
:103300000ED0B64FB8420BD0B0F1804F08D0B44FBA
:10331000B84205D0B34FB84202D0B34FB84206D13D
:103320004FF6FF57394046F48077394305E04FF2B6
:10333000FF57394044F48077394382830184F0BDDC
:10334000028B4FF2FF331A400283028B4FF6FF735A
:1033500003EA01231A4302837047F0B50C46154671
:10336000002200210026078C4FF6EF7C07EA0C07AD
:103370000784028B018C4FF6FF7707EA041640F6AC
:10338000FF473A404FF6FF7707EA03373A434FF6D5
:10339000FF7707EA05273A438F4FB8420ED08F4F89
:1033A000B8420BD0B0F1804F08D08D4FB84205D055
:1033B0008C4FB84202D08C4FB84206D14FF6DF771F
:1033C000394046F01007394305E04FF65F77394042
:1033D00044F01007394302830184F0BD028B4FF69D
:1033E000F3731A400283028B0A4302837047F0B5DD
:1033F0000C46154600220021068C4FF6FE773E4013
:103400000684028B018C4FF60C7632407E1C06EA55
:1034100003162E433243704EB0420ED06F4EB04270
:103420000BD0B0F1804F08D06D4EB04205D06D4E3C
:10343000B04202D06C4EB04206D14FF6FD7631401C
:1034400044F00106314305E04FF6F576314044F093
:103450000106314302830184F0BD70B505460C4678
:103460005D4885420ED05D4885420BD0B5F1804F56
:1034700008D05B48854205D05A48854202D05A4858
:10348000854200D100E000BF208850B92389A2887E
:1034900061882846FFF7ABFFE1882846FFF79EFFCB
:1034A00025E0208804280AD12389A288618828463B
:1034B000FFF753FFE1882846FFF742FF17E0208817
:1034C00008280AD12389A28861882846FFF7FBFED5
:1034D000E1882846FFF7EEFE09E02389A28861888B
:1034E0002846FFF7A6FEE1882846FFF795FE70BD47
:1034F0002DE9F04105460C4600260127608808B9F1
:10350000022600E00026A088012801D1022700E061
:1035100001272088A0B92389A28861882846FFF75F
:1035200066FFE1882846FFF759FF23893A4631466E
:103530002846FFF712FFE1882846FFF701FF13E056
:103540002389A28861882846FFF707FFE18828467B
:10355000FFF7F6FE23893A4631462846FFF747FF34
:10356000E1882846FFF73AFFBDE8F0810A884B88DA
:103570001A438B881A43CB881A430B891A434B8909
:103580001A438B891A43A0F8442070474FF6FF7105
:10359000818000210180C18041800172704700213B
:1035A000018041808180C180018141818181C1810F
:1035B0007047002101804180012181800021C1806C
:1035C000018170470021018041808180C18001819B
:1035D0004181818170470000002C0140003401408E
:1035E0000004004000080040000C004021B10288A7
:1035F00042F00102028004E002884FF6FE731A4096
:103600000280704731B1B0F8442042F40042A0F883
:10361000442005E0B0F84420C2F30E02A0F8442094
:1036200070471AB183890B43838102E083898B43FE
:10363000838170478182704741EA0203A0F84830D5
:1036400070471AB183890B43838102E083898B43DE
:103650008381704701894FF6F872114001817047EC
:103660000A46002101894FF68F73194011430181E9
:10367000704730B504460D4629462046FFF7F0FF57
:10368000208940F00700208130BD2DE9F04104463B
:103690000D4616461F46602D06D13B460122314697
:1036A0002046FFF75AFE05E03B4601223146204600
:1036B000FFF79DFE29462046FFF7D2FF208940F004
:1036C00007002081BDE8F08130B50C46002101895A
:1036D000C9B24FF6FF7505EA032515432543294373
:1036E000018130BD2DE9F04105460E46174698464A
:1036F000002443463A4631462846FFF7E5FF2C8929
:103700004FF6F870044044F007044FF68F70044001
:1037100044F070042C81BDE8F081F0B504460D46FC
:1037200016461F463B46324629462046FFF7CCFF49
:10373000208940F480402081F0BD0185828270475D
:103740000A46002101884FF68F731940114301800A
:103750007047F0B50C4615461E4600210022002396
:103760000189028B038C4FF6F877394021434FF6DD
:10377000FC473A4040F201173A434FF6DD773B40B1
:103780004FF6FF7707EA06172F433B430181028379
:103790000384F0BD0A460021018B4FF68F73194058
:1037A0001143018370470A460021018B48F6FF73DD
:1037B00019404FF6FF7303EA022319430183704750
:1037C0000A460021818B4FF68F7319401143818384
:1037D00070470A460021818B48F6FF7319404FF667
:1037E000FF7303EA022319438183704721B10288E2
:1037F00042F08002028004E002884FF67F731A4094
:103800000280704721B1828842F00402828004E085
:1038100082884FF6FB731A408280704721B18288FC
:1038200042F00802828004E082884FF6F7731A4063
:103830008280704721B1828842F00102828004E0D8
:1038400082884FF6FE731A40828070470A46002134
:10385000018B4FF6F77319401143018370470A46F5
:103860000021018B4FF2FF7319404FF6FF7303EAFB
:1038700002231943018370470A460021818B4FF6CA
:10388000F77319401143818370470A460021818BE9
:103890004FF2FF7319404FF6FF7303EA02231943F7
:1038A000818370470A460021018B4FF6FB73194054
:1038B0001143018370470A460021018B4FF6FF3305
:1038C00019404FF6FF7303EA02231943018370473F
:1038D0000A460021818B4FF6FB7319401143818307
:1038E00070470A460021818B4FF6FF3319404FF68F
:1038F000FF7303EA02231943818370470A460021BC
:10390000018B4FF67F7319401143018370470A46BC
:103910000021018BC1F30E014FF6FF7303EA02236E
:103920001943018370470A460021818B4FF67F734C
:1039300019401143818370470A460021818BC1F3EE
:103940000E014FF6FF7303EA022319438183704788
:103950000A460021018C4FF6FD7319401143018482
:1039600070470A460021018C4FF6F7731940114346
:10397000018470470A460021018C4FF6DF7319401D
:103980004FF6FF7303EA02131943018470470A4696
:103990000021018C4FF67F7319404FF6FF7303EA45
:1039A00002131943018470470A460021018C4FF627
:1039B000FF5319404FF6FF7303EA022319430184B2
:1039C00070470A460021018C4FF2FF7319404FF6F1
:1039D000FF7303EA02231943018470470A4600215A
:1039E000018C4DF6FF7319404FF6FF7303EA023363
:1039F00019430184704730B5002301248C40A3B2E1
:103A0000048C9C430484048C02FA01F5ADB22C436F
:103A1000048430BD30B5002304248C40A3B2048C50
:103A20009C430484048C02FA01F5ADB22C43048457
:103A300030BD70B50346002000241846183001251B
:103A40008D40ACB21D8CA5431D8409B1082909D154
:103A500000EB6100056825F07005056005681543F9
:103A600005600EE00D1FC5F34E052844056825F4DA
:103A7000E045056005684FF6FF7606EA0226354305
:103A8000056070BD21B1028842F00202028004E0AC
:103A900002884FF6FD731A400280704721B10288F8
:103AA00042F00402028004E002884FF6FB731A40E1
:103AB0000280704721B1828842F08002828004E057
:103AC00082884FF67F731A408280704702884FF6D3
:103AD000F7731A40028002880A4302807047828886
:103AE0004FF68F731A40828082880A438280704723
:103AF00002894FF6F8731A40028102890A43028153
:103B0000704702894FF67F731A40028102890A4387
:103B10000281704781847047818570478186704734
:103B20000187704781877047A0F84010704702886E
:103B30004FF6FF431A40028002880A430280704712
:103B40000146888E70470146088F70470146888F6E
:103B500070470146B1F8400070470146888C7047B5
:103B60000146088D704702460020138A0B400BB1B6
:103B7000012000E000207047CA430282704730B540
:103B80000246002000230024158A05EA01039589D6
:103B900005EA010413B10CB1012000E0002030BDA2
:103BA000CA4302827047000010B50446FB488442B5
:103BB00009D101218803FEF767FE00214FF4804000
:103BC000FEF762FE32E0F648844209D10121480442
:103BD000FEF767FE00214FF40030FEF762FE25E09D
:103BE000F048844209D101218804FEF75AFE0021E1
:103BF0004FF48020FEF755FE18E0EB48844209D1CF
:103C00000121C804FEF74DFE00214FF40020FEF70D
:103C100048FE0BE0E548844208D101210805FEF783
:103C200040FE00214FF48010FEF73BFE10BD2DE951
:103C3000F04786B005460E460024A24600BFA146C6
:103C40000027B08900B100BF2F462C8A4CF6FF70C8
:103C50000440F08804432C82AC894EF6F3100440F3
:103C6000B08831890843718908430443AC81AC8A28
:103C70004FF6FF400440B0890443AC8201A8FEF730
:103C80007CFDC648874202D1DDF810A001E0DDF8D6
:103C90000CA0A88900F4004040B10AEBCA0000EB78
:103CA0000A1031684900B0FBF1F807E00AEBCA00DE
:103CB00000EB0A1031688900B0FBF1F86420B8FB12
:103CC000F0F004012009642101FB1089A88900F4A7
:103CD000004040B1322000EBC900B0FBF1F000F031
:103CE0000700044308E0322000EB09106421B0FB18
:103CF000F1F000F00F0004432C8106B0BDE8F0871E
:103D00004FF41651016000218180C18001810C2196
:103D1000418100218181704710B502460020108A40
:103D20004FF2FF0318400B884C8823438C882343B1
:103D3000CC8823431843108210BD002101804180AC
:103D40008180C180704721B1828942F40052828112
:103D500004E082894DF6FF731A4082817047F0B506
:103D60000346002400260025002040F66A17B942C9
:103D700000D100BF1846C1F3421401F01F0601270D
:103D800007FA06F5012C01D10C3004E0022C01D118
:103D9000103000E014301AB107682F43076002E0CA
:103DA0000768AF430760F0BD1AB1838A0B43838273
:103DB00002E0838A8B4383827047028A4FF6F07356
:103DC0001A400282028A0A430282704782894FF2B5
:103DD000FF731A40828182890A438281704721B130
:103DE000828942F00202828104E082894FF6FD73EB
:103DF0001A4082817047028A4FF6DF731A400282AE
:103E0000028A0A430282704721B1028A42F4804248
:103E1000028204E0028A4BF6FF731A400282704766
:103E2000C1F308028280704701468888C0F3080009
:103E30007047818941F0010181817047028BD2B2C4
:103E40000283028B42EA012202837047028B02F452
:103E50007F420283028B0A430283704721B1828A28
:103E600042F02002828204E0828A4FF6DF731A4019
:103E70008282704721B1828A42F01002828204E07D
:103E8000828A4FF6EF731A408282704721B1828A8C
:103E900042F00802828204E0828A4FF6F7731A40E9
:103EA0008282704721B1828942F40042828103E01C
:103EB0008289C2F30E028281704721B1828A42F464
:103EC0000062828204E0828A4FF2FF731A4082828B
:103ED0007047828A4FF6FB731A408282828A0A43B5
:103EE0008282704721B1828A42F00202828204E01B
:103EF000828A4FF6FD731A40828270470246002084
:103F0000B1F5007F00D100BF13880B400BB1012039
:103F100000E00020704701F40072B2F5007F00D18C
:103F200000BFCA430280704770B5024600240023D8
:103F30000025002040F66A16B14200D100BFC1F34F
:103F4000421501F01F03012606FA03F3012D02D1E9
:103F50009689334006E0022D02D1168A334001E0F3
:103F6000968A33400C12012606FA04F4168834406F
:103F700013B10CB1012000E0002070BD10B500228B
:103F8000002340F66A14A14200D100BF0A120124A6
:103F90009440A3B2DC43048010BD0000003801400F
:103FA0000044004000480040004C004000500040E9
:103FB0000CB50020019000906D48006840F48030FE
:103FC0006B49086000BF6A48006800F40030009048
:103FD0000198401C0190009818B90198B0F5A06FA5
:103FE000F1D16348006800F4003010B10120009066
:103FF00001E0002000900098012843D15D4800684E
:1040000040F010005B4908600846006820F003009B
:1040100008600846006840F00200086054484068A4
:10402000534948600846406848600846406840F484
:10403000806048600846406820F47C10486008466C
:10404000406840F4E81048600846006840F080701E
:10405000086000BF4648006800F000700028F9D0F2
:104060004348406820F003004149486008464068E2
:1040700040F00200486000BF3D48406800F00C007E
:104080000828F9D10CBD10B5FFF792FF10BD10B58F
:10409000FDF77FFD3648006840F0010034490860B4
:1040A000084640683449084031494860084600687D
:1040B000324908402E4908600846006820F48020F4
:1040C00008600846406820F4FE0048604FF41F0076
:1040D0008860FFF7D8FF4FF000602949086010BDE5
:1040E00010B5002100200022214B5B6803F00C0179
:1040F00021B1042906D0082928D107E0214B224C00
:10410000236027E01F4B204C236023E0184B5B68A3
:1041100003F47010164B5B6803F48032022303EB48
:10412000904022B9194B4343174C23600DE0104BCC
:104130005B6803F4003323B1144B4343124C2360F8
:1041400003E0104B4343104C236003E00D4B0E4C37
:10415000236000BF00BF064B5B68C3F303130C4C26
:10416000E15C094B1B68CB40074C236010BD00008D
:1041700000100240002002400000FFF8FFFFF6FEA2
:1041800008ED00E000127A003C00002000093D002C
:10419000400000200948804709480047FEE7FEE745
:1041A000FEE7FEE7FEE7FEE7FEE7FEE7FEE7FEE7E7
:1041B00004480549054A064B704700008F40000837
:1041C00031010008D05A0020D07A0020D06A0020A7
:1041D000D06A002008B501210820FEF73BFB4020F3
:1041E000ADF8000001208DF8020010208DF80300CA
:1041F0006946FA48FDF7ECFF4021F848FEF795F8CC
:1042000008BD38B5044601210820FEF723FB6CB138
:104210008020ADF8000001208DF8020048208DF8C4
:1042200003006946ED48FDF7D3FF10E08020ADF8AC
:10423000000001208DF8020014208DF8030069466B
:10424000E648FDF7C5FF8021E448FEF76EF838BD6B
:1042500008B519208DF8000001208DF80100032019
:104260008DF8020001208DF803006846FDF7EDF897
:1042700008BD0EB50121C802FEF7ECFA41F61F4059
:10428000ADF800004FF47A70ADF804000020ADF8EE
:104290000600ADF802006946D148FEF74BFE012248
:1042A0001146CF48FFF7BDF90121CD48FFF79EF930
:1042B0000EBD00BF00BF00BF00BF00BF00BF00BFFA
:1042C00000BF00BF4020C5491031086000BF00BFDB
:1042D00000BF00BF00BF00BF00BF00BF00BF402045
:1042E000BE4914310860704710B500BF00BF00BF61
:1042F00000BF00BF00BF00BF00BF00BF0020FFF72E
:1043000080FF4020B5491031086000BF00BF00BFEA
:1043100000BF00BF00BF00BF00BF00BF8020AF498B
:1043200014310860062001F0FBFC4020AB49143139
:10433000086000BF00BF00BF00BF00BF00BF00BFDC
:1043400000BF00BF4020A5491031086000BF00BF7A
:1043500000BF00BF00BF00BF00BF00BF00BF4020C4
:104360009E491431086000BF00BF00BF00BF00BFFE
:1043700000BF00BF00BF00BF0120FFF742FF00BF2A
:1043800000BF00BF00BF00BF00BF00BF00BF00BF35
:104390004020924910310860822001F0C1FC402089
:1043A0008E491431086010BD10B500208D49087089
:1043B000FFF75FFFFFF74CFFFFF70CFF0020FFF751
:1043C00020FF8020854910310860402008600A20C5
:1043D00001F08AFCFFF788FFFFF76BFF002082499E
:1043E000086010BD10B500BF00BF00BF00BF00BF18
:1043F00000BF00BF00BF00BF4020784910310860F7
:10440000022001F08DFC402074491431086010BD79
:1044100010B57448007810B101282AD111E06F4816
:104420000830006800F0800050B97048007838B952
:10443000FFF7D8FF01206B4908701F206A49086008
:1044400017E066480830006800F0800030B90120AD
:104450006649087000206349087009E062480068F6
:1044600030B9FFF741FFFFF724FF00205D490870D6
:1044700000BF00BF10BD10B501220023037000BFB4
:1044800000BF00BF00BF00BF00BF00BF00BF00BF34
:104490002AE04023514C1034236000BF00BF00BF0E
:1044A00000BF00BF00BF00BF00BF00BF40234B4C98
:1044B0001434236000BF00BF00BF00BF00BF00BFB7
:1044C00000BF00BF00BF454B08331B6803F08003EB
:1044D00013B903781343037053061A0E22B901224D
:1044E000401C09B1002303700B00A1F10104A1B22B
:1044F000CFD110BD10B500203C490870FFF7F4FE85
:10450000FFF7D7FE10BD10B501211023002221E0D6
:104510004020324C1034206000BF00BF00BF00BFFD
:1045200000BF00BF00BF00BF00BF40202B4C1434B1
:10453000206000BF00BF00BF00BF00BF00BF00BFC2
:1045400000BF00BF25480830006800F0800000B9B7
:104550000A4349001800A3F10104E3B2D8D1B2F52F
:10456000404F01D0401E10BD0020FCE72DE9F04176
:10457000034617460BB1002902DC0120BDE8F0819B
:10458000012F04D0022F05D0032F07D103E03F24D1
:10459000072605E000BF0F24052601E00220EDE715
:1045A00000BF491E002226E0491E4FF0000C354690
:1045B0000CE06D1E18784FF0010808FA05F800EAC3
:1045C000080018B10CF1010000F0FF0C002DF0D133
:1045D0000CF0010060B90320D0E70000000C01409E
:1045E000002C014050000020540000205100002009
:1045F000187842405B1C0029D6D122401878204010
:10460000904201D00420B9E70020B7E709E04A1E34
:10461000D1B2425C02F00F024254425C42F03002DE
:1046200042540029F3D170472DE9F74F06460D4655
:1046300006B115B90120BDE8FE8F0298012804D00B
:10464000022808D003280DD106E03F274FF0450887
:104650004FF01F0A0AE000BF0F274FF00B084FF082
:104660001F0A03E0002028700220E4E700BF0024B6
:10467000A14608EA07080AEA070A307838404045A8
:1046800003D0002028700320D5E70AE0305D3840D1
:10469000404500D1A146305D3840504500D103E08F
:1046A000641C2878A042F1DC00BF2878A04203DC1B
:1046B000002028700420BEE7641C641CA4EB0904DD
:1046C0002C70B9F1000F0AD003E016F80900307021
:1046D000761C2000A4F10104F7D12878361A297835
:1046E0003046029AFFF742FF83464FEA0B20A2E7CB
:1046F000F0B502460C460026012500214FF4307328
:1047000002B10CB90120F0BD00BF00BF00BF00BF67
:1047100000BF00BF00BF00BF00BF002010702EE030
:104720005B1E491001F07F014020FA4F386000BF46
:1047300000BF00BF00BF00BF00BF00BF00BF00BF81
:104740004020F44F3F1D386000BF00BF00BF00BFD6
:1047500000BF00BF00BF00BF00BFEE4808380068C0
:1047600000F0800010B941F0400101E001F03F018C
:10477000452904D11170521C0020107001E0002B5B
:10478000CED100BF002B03DC002020700220BAE74E
:10479000072093FBF0F0401C2070012500212AE047
:1047A0005B1E4020DB4F386000BF00BF00BF00BF72
:1047B00000BF00BF00BF00BF00BF4020D54F3F1D5E
:1047C000386000BF00BF00BF00BF00BF00BF00BF18
:1047D00000BF00BFCF480838006800F0800000B973
:1047E00029436806050E802D05D101251170521C44
:1047F0000020107001E0002BD2D100BF7F2903D12F
:1048000046F0100600202070002B03DC00202070F2
:10481000032078E701252AE05B1E4020BD4F386069
:1048200000BF00BF00BF00BF00BF00BF00BF00BF90
:1048300000BF4020B74F3F1D386000BF00BF00BF22
:1048400000BF00BF00BF00BF00BF00BFB1480838B5
:10485000006800F0800010B91078284310706806D6
:10486000050E802D03D10125521C00201070002B55
:10487000D2D1304647E7F0B502460C460026012566
:1048800000214FF4307302B10CB90120F0BD00BF1C
:1048900000BF00BF00BF00BF00BF00BF00BF00BF20
:1048A000002010702EE05B1E491001F01F01402017
:1048B000984F386000BF00BF00BF00BF00BF00BFFF
:1048C00000BF00BF00BF4020924F3F1D386000BFB7
:1048D00000BF00BF00BF00BF00BF00BF00BF00BFE0
:1048E0008C480838006800F0800010B941F01001D1
:1048F00001E001F00F010B2904D11170521C0020BE
:10490000107001E0002BCED100BF002B03DC002093
:1049100020700220BAE7052093FBF0F0401C2070C5
:10492000012500212AE05B1E40207A4F386000BF3D
:1049300000BF00BF00BF00BF00BF00BF00BF00BF7F
:104940004020744F3F1D386000BF00BF00BF00BF54
:1049500000BF00BF00BF00BF00BF6E48083800683E
:1049600000F0800000B929436806050E202D05D10E
:1049700001251170521C0020107001E0002BD2D1D3
:1049800000BF1F2903D146F0100600202070002B25
:1049900003DC00202070032078E701252AE05B1E5D
:1049A00040205C4F386000BF00BF00BF00BF00BFA9
:1049B00000BF00BF00BF00BF4020564F3F1D386002
:1049C00000BF00BF00BF00BF00BF00BF00BF00BFEF
:1049D00000BF50480838006800F0800010B9107817
:1049E000284310706806050E202D03D10125521CA6
:1049F00000201070002BD2D1304647E710B5FFF7EA
:104A000007FD4548007800287DD080204349087084
:104A100000204349087043490870434908704349DE
:104A20000870FFF770FD3E494148FFF761FE0446FC
:104A30008CB901223A493E48FFF7F6FD044634B9E5
:104A40003648007840F001003449087006E0002044
:104A50003349087002E00020314908703149354877
:104A6000FFF709FF04468CB902222E493148FFF7AF
:104A7000DBFD044634B92948007840F0020027499C
:104A8000087006E000202749087002E00020254950
:104A9000087025492848FFF7EEFE04468CB903222A
:104AA00021492548FFF7C0FD044634B91B4800786A
:104AB00040F004001949087006E000201A49087007
:104AC00002E00020184908701448007800F0020045
:104AD00048B11248007840F0400010490870FFF7D4
:104AE00009FD002010BD10491348FFF7C4FE04461D
:104AF0007CB903220C491048FFF796FD0446ECB937
:104B00000648007800E068E040F0040003490870BF
:104B10001BE017E0100C0140510000205C00002059
:104B200058000020590000205A0000205B0000209F
:104B30006C080020F9080020860900200020564952
:104B4000087002E000205449087054495448FFF7A7
:104B500092FE04468CB9022250495148FFF764FD89
:104B6000044634B94F48007840F002004D490870BF
:104B700006E000204949087002E00020474908701B
:104B800049494A48FFF7B4FD04468CB90122464919
:104B90004648FFF749FD044634B94248007840F0E2
:104BA00001004049087006E000203F49087002E01B
:104BB00000203D490870FFF79DFC3A48007800F05E
:104BC000020038B13748007840F04000354908709D
:104BD000002087E7032001F0F9F84FF0FF3081E76C
:104BE00070B506460D4606B10DB9012070BD2B48C3
:104BF00001782B48FFF70AFD274801782C48FFF77A
:104C000005FD002408E02648005D3D2802D1601E15
:104C1000C4B205E0601CC4B2204800788442F2DDD2
:104C200000BF1E480078844225DD002408E02048AB
:104C3000005D3D2802D1E01EC4B205E0601CC4B294
:104C4000154800788442F2DD00BF134800788442A2
:104C500001DD0120CAE72C7022461549C91C3046E7
:104C60001DF067F81348047022461149491C124888
:104C70001DF05FF80EE02C7022460949491C3046B1
:104C80001DF057F80B48047022460549491C0A4894
:104C90001DF04FF80020A9E75A000020590000201D
:104CA000F90800205C000020580000206C0800205B
:104CB000860900205B000020130A00201CB501219A
:104CC0003C20FDF7C7FD0420ADF8040003208DF85B
:104CD000060018208DF8070001A9FE48FDF778FAB4
:104CE0000820ADF8040003208DF8060004208DF89C
:104CF000070001A9F748FDF76BFA4FF4C050ADF873
:104D0000040003208DF8060004208DF8070001A997
:104D1000F148FDF75DFA0420ADF8040003208DF89A
:104D2000060010208DF8070001A9EC48FDF750FAA5
:104D30004FF48060ADF8040003208DF806001020C9
:104D40008DF8070001A9E448FDF742FA0220ADF80A
:104D5000040003208DF8060010208DF8070001A93B
:104D6000DD48FDF735FA4FF48070ADF804000320FC
:104D70008DF8060010208DF8070001A9D848FDF72E
:104D800027FA4FF40070ADF8040003208DF80600F8
:104D900010208DF8070001A9D148FDF719FA4FF44A
:104DA0000071CF48FDF7C1FA0421CC48FDF7BDFAE8
:104DB0004FF48061C848FDF7B8FA4FF48071C848D5
:104DC000FDF7B3FA0221C448FDF7B1FA552000F00F
:104DD0008BFF0221C048FDF7A8FA4FF4007000F0E5
:104DE00083FF26208DF8000001208DF801000020AF
:104DF0008DF8020001208DF803006846FCF725FBC2
:104E00001CBD1CB501213C20FDF724FD0420ADF89C
:104E1000040003208DF8060018208DF8070001A972
:104E2000AC48FDF7D5F90820ADF8040003208DF853
:104E3000060004208DF8070001A9A648FDF7C8F96F
:104E40004FF40060ADF8040003208DF80600042044
:104E50008DF8070001A9A048FDF7BAF90220ADF8C6
:104E6000040003208DF8060010208DF8070001A92A
:104E70009948FDF7ADF902219748FDF756FA04204D
:104E8000ADF8040003208DF8060010208DF807000F
:104E900001A99248FDF79CF904219048FDF747FAD3
:104EA0004FF40070ADF8040003208DF806001020C8
:104EB0008DF8070001A98A48FDF78AF94FF40071BF
:104EC0008748FDF734FA26208DF8000001208DF880
:104ED000010000208DF8020001208DF803006846D3
:104EE000FCF7B3FA1CBD1FB501214804FDF7BFFC58
:104EF0007C48FEF759FE4FF4E13000900020ADF8F9
:104F00000400ADF80600ADF80800ADF80C000C2068
:104F1000ADF80A0069467348FEF789FE2021714802
:104F2000FEF7F9FF012240F225516E48FEF717FF08
:104F300001216C48FEF707FF1FBD0EB50C210220B2
:104F4000FDF75CFA4FF48050019000208DF80800C6
:104F500008208DF8090001208DF80A0001A8FCF74F
:104F600079FD28208DF8000001208DF801008DF8D2
:104F700002008DF803006846FCF767FA0EBD70B5B5
:104F80004FF400615448FDF7B6F905461DB1012DF7
:104F900003D1002401E0022400BF00BF204670BD01
:104FA00010B5FFF7ECFF0446022C0AD104214B4850
:104FB000FDF7BBF9052000F097FE04214748FDF7F7
:104FC000B6F910BD70B505460E4600240BE0295D0C
:104FD0004448FEF725FF00BF4248008800F08000EB
:104FE0000028F9D0641CB442F1D370BD2DE9F04122
:104FF00005460E464FF08077002400BF12E004E023
:105000007F1E17B90120BDE8F0813648008800F006
:1050100020000028F4D03348FEF706FF28554FF053
:105020008077641CB442EAD30020ECE710B5044654
:1050300024B1012C09D0022C0DD105E04FF40071F0
:105040002748FDF774F906E005E04FF400712448A5
:10505000FDF76BF900BF00BF10BD002070470020B6
:10506000704710B5FFF7CDFEFFF73DFFFFF765FF77
:1050700010BD70B504460D46FFF7F1FF00B170BDDD
:105080004FF480611448FDF752F9032000F02CFE24
:1050900029462046FFF796FF4FF480610E48FDF742
:1050A00044F900BFEBE72DE9F04106460F461446F0
:1050B0001D464FF00008002240F225510948FEF736
:1050C0004EFE39463046FFF77DFF29462046FFF762
:1050D0008DFF09E00008014000100140001401406C
:1050E000000C01400044004000F0FF08012240F2A3
:1050F0002551F848FEF733FE4046BDE8F0812DE922
:10510000F04389B005460C461646202101A81CF044
:10511000B1FE0027B846B94601208DF804002920C9
:105120008DF80500FC208DF8060003208DF807009F
:1051300020788DF8080060788DF809008DF80A60F5
:1051400007279DF80A000A3000F0FF0843462A4668
:10515000394601A8FFF7A7FF00F0FF09484609B04C
:10516000BDE8F0832DE9F047CAB007460E46144665
:105170004FF4847108A81CF07DFE202168461CF0C5
:1051800079FE4FF00009CA460025A84601208DF897
:10519000200027208DF82100FC208DF82200E01C43
:1051A000C0B28DF8230030788DF8240070788DF827
:1051B00025008DF8264000BF05E0795DE81D08AAAE
:1051C0001154681CC5B2A542F7DB9DF8230000F11D
:1051D00004094FF0070A53466A46494608A8FFF7F4
:1051E00062FF00F0FF08B8F1000F04D19DF806003F
:1051F00008B14FF0010840464AB0BDE8F0872DE9FC
:10520000F0418AB006460D464FF00008B2A0006893
:1052100009900024B1A103C9CDE90101083401A915
:1052200008192A4631461CF084FD2C440D2001A9A2
:105230000855641C002240F22551A648FEF78FFD58
:10524000214601A8FFF7BEFE062101A8FFF7CEFE0A
:105250000746012240F225519E48FEF780FD384660
:105260000AB0BDE8F0811CB500249FA00068019041
:105270009EA0006800900220FFF7D8FE032201A93B
:105280006846FFF76FFFC4B20CB120461CBD00207A
:10529000FFF7CCFE00BFF9E7F0B589B00546002660
:1052A0008DA000680890002491A103C9CDE90001F8
:1052B0000834002240F225518648FEF750FD214671
:1052C0006846FFF77FFE1F216846FFF78FFE0746FF
:1052D000012240F225517F48FEF741FD10220DF1D9
:1052E0000B0128461CF025FD002009B0F0BD38B5A3
:1052F000054600200090002405F109007F49C1F80F
:10530000140C02217D48FFF771FEC0B200909DF899
:10531000000008B1102038BD78480078552803D126
:1053200076484078AA2801D01120F4E7012173487B
:10533000801CFFF75BFEC0B200909DF8000008B132
:105340001020E8E702216D48C01CFFF74FFEC0B2F5
:1053500000909DF8000008B11020DCE76748007954
:105360006649C97801F07F0140EA0124B4F5A06FD5
:1053700001D91220CFE76148C4600121401DFFF729
:1053800035FEC0B200909DF8000008B11020C2E7C1
:1053900001215A48801DFFF729FEC0B200909DF8F8
:1053A000000008B11020B6E702215448C01DFFF7E5
:1053B0001DFEC0B200909DF8000008B11020AAE7C1
:1053C0004E48007A4D49C97940EA0124B4F5836F0B
:1053D00001D912209FE74949D1F8140C2146FFF763
:1053E00005FEC0B200909DF8000008B1102092E7C1
:1053F00001214348FFF7FAFDC0B200909DF800007C
:1054000008B1102087E702213D48401CFFF7EEFD60
:10541000C0B200909DF8000008B110207BE737482B
:1054200090F81D0CCC2804D1344890F81E0C332879
:1054300001D014206FE73148016829604168696034
:10544000007A28722D48C068C11D6A46A81C00F069
:1054500057FE2A4890F81C0C9DF80010884201D095
:10546000132058E725484079512826D123488078D1
:1054700018B122488078012809D120482246D0F866
:10548000141C14301CF055FC1C4804610DE01B4A30
:10549000D2F8141C13691432981822461CF049FCE7
:1054A0001648006920441549086114480069A04263
:1054B00001D100202FE720202DE7104840795828FF
:1054C00001D1212027E70D48407959281AD12220FF
:1054D00021E7000000440040000B000041542B4E27
:1054E000414D453D000000000007000058020C003F
:1054F00041542B475645520D00000000340A00204D
:1055000050160020002006E7F8B505460E4600209C
:105510000090002405F10900FE49C1F8180CB41CE4
:1055200008460472200AC871241D08460472200A25
:10553000C87108460168296041686960007A28726C
:10554000F448B0F80900A5F80900F2483246D0F84E
:10555000181C05F10B001CF0ECFBE41C6A4621460C
:10556000A81C00F0CDFDA41C9DF800002855641C6B
:10557000E84890F81D0C2855641CE64890F81E0C6D
:105580002855641C21462846FFF773FDF8BD70B509
:1055900005460E461020E0490870002415E031460B
:1055A0002846FFF766FD1E20DC4908600AE0DA485D
:1055B0000078212802D1D848007870BDD74800680B
:1055C00000B900E0F3E700BF641C032CE7D301201F
:1055D000F3E770B5ADF5A06D0DF10900CD49C1F847
:1055E000180C08460669B6F5406F03D971200DF511
:1055F000A06D70BDC74890F81F0C18B94120C5496F
:10560000487104E04520C349487103200861C1483E
:10561000008A000ABF49C8710846017C017200690E
:10562000B0F5806F7ED900250020BA4988708BE0E4
:10563000B8480069B0F5806F39D9B6488078401C09
:10564000B44988708420C8700421B24801710922CD
:10565000014668461CF0B2FBAE48143041194FF4C5
:1056600080620DF109001CF064FB0020A94981F85B
:105670001C0C01F61C4240F207410DF1020000F043
:105680003FFDA44890F81C0C8DF80904CC208DF83F
:105690000A0433208DF80B0440F20C4605F58065B2
:1056A0009C480069A0F580609A49086144E09948E7
:1056B0008078401C974988700846008A001D000ABF
:1056C000C8700846007C001DC1B2924801710922D1
:1056D000014668461CF072FB8E480269143041197D
:1056E0000DF109001CF025FB00208A4981F81C0CF3
:1056F00008460069C11D8A4A0DF1020000F000FD54
:10570000844890F81C1C006909300DF80010CC2169
:10571000804800690A300DF8001033217D48006987
:105720000B3000E016E00DF800107A48006900F137
:105730000C0600207749086131466846FFF727FFCD
:1057400004460CB1204652E77248006900287FF4F5
:105750006FAF47E000206F4988700846008A001D3F
:10576000000AC8700846007C001DC1B2694801717A
:105770000020684981F81C0C092268461CF01EFBB9
:10578000644800F1140102690DF109001CF0D1FA1E
:1057900060480069C11D624A0DF1020000F0B0FCD2
:1057A0005C4890F81C1CD0F8180C5A4A12698154B5
:1057B000CC215848D0F8182C0069401C11543321D2
:1057C0005448D0F8182C0069801C115451480069C5
:1057D00000F10C0631466846FFF7D9FE04460CB1CD
:1057E000204604E7002002E70020704710B50221A0
:1057F0004C48FCF79AFD022000F076FA0221494855
:10580000FCF795FD0A2000F06FFA02214548FCF7ED
:105810008CFD0A2000F068FA10BD1FB54248FEF763
:10582000C3F94FF4E13000904FF48050ADF804001C
:105830000020ADF806004FF48060ADF808000020AD
:10584000ADF80C000C20ADF80A0069463648FEF7AA
:10585000EEF901213448FEF776FA1FBD70B5044613
:105860000D4629462046FFF7C1FB08B1012070BD57
:105870002078792801D00120F9E70020F7E710B55A
:1058800002460B460020002103E0545C60404C1CA3
:10589000A1B29942F9DB10BD2DE9F041CCB005462B
:1058A00088460024287801287ED1002206211FA0E6
:1058B0000DF0A6F9002240F225511B48FEF74FFAE1
:1058C00001224BA91D4802F031FE9DF82C015528FC
:1058D0000FD11B491948401C02680A6042684A609F
:1058E0008068886015490D31E02216481CF021FAC5
:1058F00072E015A2D2E900109268CDE90102009190
:105900000C2421466846FFF75DFB1F216846FFF720
:105910006DFB21E0340A0020600000206C000020B4
:10592000501600200010014000440040C0B6D1C015
:10593000C9FDBCB6D6D02E2E2E00000000A2030852
:10594000541B0020601B002041542B4C4244414416
:1059500044523F0D0000000018B101204CB0BDE8DA
:10596000F081BB48DDF80B100160DDF80F104160DD
:10597000DDF8131081600C220146B64802F0FBFDF1
:105980000D22B5A168461CF019FA0D24214668467F
:10599000FFF718FBF2216846FFF728FBB2A1684623
:1059A0001CF06AF9074600E083E00FB90220D5E752
:1059B0000A37E0223946AF481CF0BBF9E022AD4976
:1059C000A4480C3002F0D7FD55204B9001224BA982
:1059D000A048401E02F0CFFDFFF71FFF0120FFF798
:1059E00025FBFFF703FF7F208DF8000001216846AB
:1059F000FFF7E8FA01216846FFF730FF08B10320FE
:105A0000ACE700208DF80000FF208DF80100022196
:105A10006846FFF7D7FA0F216846FFF71FFF08B166
:105A200004209BE792208DF800006D208DF8010086
:105A300002216846FFF7C6FA02216846FFF70EFF0B
:105A400008B105208AE7FFF7D1FE7F208DF800001E
:105A500001216846FFF7B6FA01216846FFF7FEFE0E
:105A600008B103207AE744208DF80000BB208DF8B0
:105A7000010002216846FFF7A5FA01216846FFF7F9
:105A8000EDFE08B1062069E7FF208DF800008DF8D3
:105A9000010000208DF8020003216846FFF792FA0A
:105AA00001216846FFF7DAFE08B1072056E700201B
:105AB00054E7287802284CD1A8F1050086B231209D
:105AC0008DF80000CE208DF8010002216846FFF716
:105AD00079FA01216846FFF7C1FE08B108203DE7C9
