:020000040800F2
:10000000B838002045010008F91E0008C51700088F
:10001000F51E00089D040008053E000800000000D1
:100020000000000000000000000000006131000836
:100030000D1200080000000091210008E53A0008B8
:100040005F0100085F0100085F0100085F01000810
:100050005F0100085F0100085F0100085F01000800
:100060005F0100085F0100085F0100085F010008F0
:100070005F0100085F0100085F0100085F010008E0
:100080005F0100085F0100085F010008D13B000824
:100090006D3D00085F0100085F0100085F01000876
:1000A0005F0100085F0100085F0100085F010008B0
:1000B0005F0100085F0100085F0100085F010008A0
:1000C0005F0100085F0100085F0100085F01000890
:1000D0005F0100085F0100085F0100085F01000880
:1000E0005F0100085F010008813B00085F01000814
:1000F0005F0100085F0100085F0100085F01000860
:100100005F010008392B00085F0100085F0100084B
:100110005F0100085F0100085F0100085F0100083F
:100120005F0100085F0100085F010008F70D00088B
:10013000DFF80CD000F050F800480047514A0008A2
:10014000B83800200648804706480047FEE7FEE72B
:10015000FEE7FEE7FEE7FEE7FEE7FEE7FEE7FEE777
:10016000E93A00083101000840EA01039B0703D087
:1001700009E008C9121F08C0042AFAD203E011F8E6
:10018000013B00F8013B521EF9D27047D2B201E0A8
:1001900000F8012B491EFBD270470022F6E710B58C
:1001A00013460A4604461946FFF7F0FF204610BDE5
:1001B000421C10F8011B0029FBD1801A704730B592
:1001C00004460020034600E05B1C934203D2E05C3F
:1001D000CD5C401BF8D030BD064C074D06E0E06812
:1001E00040F0010394E8070098471034AC42F6D37E
:1001F000FFF7A2FF98560008B856000870B58C1893
:1002000010F8015B15F0070301D110F8013B2A112A
:1002100006D110F8012B03E010F8016B01F8016B17
:100220005B1EF9D12B0705D40023521E0DD401F813
:10023000013BFAE710F8013BCB1A921C03E013F8DC
:10024000015B01F8015B521EF9D5A142D8D3002011
:1002500070BDF0B50346002401B9F0BDC3F311052C
:1002600045F0006004E010F8017B2546641C4F5502
:100270009442F8D300BFF0E72DE9F74F0746154643
:1002800078192049884201D9BDE8FE8FC7F31109CA
:100290001D4809EA000A4AF0006AC9F30A08C8F5CD
:1002A0000064AC4200D92C462E46DDF804B000BFF5
:1002B000B4F5006F05D24FF4006214495046FFF7C1
:1002C000C8FF124901EB080022465946FFF74CFFD0
:1002D000504601F02DF84FF40061504601F034F81B
:1002E0000AF5006A4FF00008361BA344B6F5006F0C
:1002F00002D94FF4006400E03446002ED8D100BF8C
:10030000C2E70000FFFF030801F80300A820002057
:1003100070B5454800787B2807D0002042498860A6
:100320006D2008730020487370BD3F48407807284F
:100330006DD2DFE800F00418263442505E003BA086
:10034000FFF736FF054638492A46486937A1FFF7C7
:100350000BFF36A0FFF72CFF33498860902008730D
:100360000020487359E000F0DFFA0446B4F5104F5E
:1003700002D000202C498860200A2B4908734C7356
:100380004BE000F03DFA0446B4F5104F02D00020D7
:1003900025498860200A244908734C733DE000F029
:1003A000F3F90446B4F5104F02D000201E498860CE
:1003B000200A1D4908734C732FE000F073FA0446BD
:1003C000B4F5104F02D0002017498860200A164962
:1003D00008734C7321E000F085FA0446B4F5104F21
:1003E00002D0002010498860200A0F4908734C731E
:1003F00013E000F0D5FA0446B4F5104F02D0002007
:1004000009498860200A084908734C7305E00020F8
:10041000054988604FF4DA4400BF00BF200A024952
:1004200008734C7300BF7FE774180020312E352EFF
:10043000372E31340000000010B5044624B1012CE1
:1004400007D0022C15D10AE01021012002F04AFF4A
:1004500010E04FF48051022002F0ECFE0AE010217F
:10046000012002F03FFF4FF48051022002F0E2FE33
:1004700000E000BF00BF10BD10B5034607E01878CC
:100480000C78A04201D0002010BD5B1C491C10005C
:10049000A2F10104A2B2F2D10120F5E700BFFEE70C
:1004A0000146CAB20B1243EA0220704710B500247D
:1004B00004E0AD48005DAD490855641CAC480088B7
:1004C0008442F6D3A9484068AA494860A748806892
:1004D0008860A74800881F280FD00220FFF7ACFFD4
:1004E0000020A2490860487B1A22052102F0BEFFC5
:1004F0000021012002F09CFF10BD9C48C07B2828F1
:1005000003D09A48C07B2A2816D19848407C01061F
:100510009648807C41EA00419448C07C41EA002032
:100520009249097D0843944908609048C17D807DC7
:1005300041EA0020914908608C480068904988424F
:1005400072D18A48407B8F490968884207D887481A
:10055000807B012803DB8548807B10280DDD02208D
:10056000FFF76AFF8149487B2422052102F07EFFC4
:100570000021012002F05CFFF3E07C48C07B2828CA
:100580006CD01CDC152872D00EDC082870D006DC7C
:1005900000285ED0032833D004286AD175E00A28E9
:1005A00068D01228F9D130E01A380C2861D2DFE87F
:1005B00000F03C31BC7C36BCBCBCBC46BC4B8A2881
:1005C00072D00EDC552865D006DC2A2853D02F289F
:1005D00056D04328E1D19EE05A282BD08828DCD180
:1005E00076E0AA2870D006DC8F286ED09E2874D0C2
:1005F000A828D2D163E0AF2869D0FF28CDD18FE001
:100600005A49487B02F0E2F89DE05849487B01F0E6
:10061000B9FF98E05549487B02F0ECF893E0534964
:10062000487B02F0E7F88EE08EE05049487B01F00D
:10063000F5FF88E04D49487B01F0E6FF83E04B4938
:10064000487B02F07FF87EE04849487B02F02CF8B6
:1006500079E04649487B02F0D5F874E04349487B8D
:1006600046490A684449096801F0E2FF6BE016E078
:1006700020E05AE036E03D49487B01F0A3FF62E00C
:100680003A49487B02F038FA5DE03849487B01F08E
:1006900061FF58E03549487B01F094FF53E033494E
:1006A000487B01F08FFF4EE026E03049487B01F0A7
:1006B00089FF48E02D49487B01F084FF43E02B4946
:1006C000487B01F07FFF3EE011E01FE005E018E00D
:1006D0002649487B01F076FF35E02449487B01F04C
:1006E00071FF30E02149487B01F06CFF2BE01F498E
:1006F000487B01F067FF26E01C49487B01F062FF60
:1007000021E01A49487B01F05DFF1CE01749487B56
:1007100001F058FF17E01549487B01F053FF12E044
:100720001249487B02F08AF80DE00220FFF784FEB0
:100730000E49487B2022052102F098FE002101206D
:1007400002F076FE00BF0CE00220FFF775FE0749BD
:10075000487B2022052102F089FE0021012002F0C1
:1007600067FE00BFC8E60000241000202418002007
:10077000DE00002044180020E0000020E4000020FB
:1007800055534243400100203EB50024002500207F
:100790000190029016A0006800901648407904026B
:1007A000144880790444082C03D04FF4E0452846CF
:1007B0003EBD10482246016901A8FFF7D5FC08227A
:1007C0000D4901A8FFF7FBFC28B10020094988600A
:1007D0004FF4E0450AE001220DF101010748FFF75F
:1007E0004BFD0020034988604FF410452846DFE7A1
:1007F00000AA000074180020EC010020105E000820
:100800003EB50020029000242148807804EB00448B
:100810001F48C07804EB00241D48007904441C489C
:100820004079000202901A488079029908440290A7
:10083000174805691CB9174800210160416002A8EA
:100840002B4600220121CDE90005134800F058FA9B
:10085000124802A92B460F4ACDE9001000210E488C
:1008600000F04EFA0D48029908440A4950F8082D44
:100870000A60406848600A48044429462046029AB3
:10088000FFF7FAFC0020024988604FF410403EBD9B
:1008900074180020EC010020005E0008A820002051
:1008A0000060000810B5002402F010FA044614B9E4
:1008B00002F00CFA0446200E094949690870200C20
:1008C000074949694870200A0549496988700449FF
:1008D0004969CC700420024988604FF4104010BD73
:1008E0007418002070B5002500240E48807804EBB1
:1008F00000440C48C07804EB00240A480079044402
:1009000000BF08484079050206488079054405493A
:100910002A464869214601F0D1F9024885604FF422
:10092000104070BD7418002010B500241A4880785B
:1009300020B101280ED0022825D117E01648102238
:1009400041691648FFF785FC1020134988604FF471
:1009500010441EE01048102201691048FFF78CFC7B
:1009600000200D4988604FF4104412E00A480A2222
:1009700001690A488030FFF77FFC00200649886043
:100980004FF4104405E046F68624002002498860B2
:1009900000BF00BF204610BD74180020005E000894
:1009A00070B5002500240F48807804EB00440D4802
:1009B000C07804EB00240B480079044400BF0948C8
:1009C00040790502074880790544AAB205490869BB
:1009D000214601F099F90020024988604FF4104047
:1009E00070BD00007418002008B50020009022E1BE
:1009F0009748008800F00F00964908700846007874
:100A000000287CD1944800689449088008460088F2
:100A100000F03000924908809048008800F440506F
:100A20008E4908808C4909684BF6BF7201EA0200C2
:100A300080F4005080F0200040F4004141F080013B
:100A4000854A11608248008800F0100090BB104673
:100A5000006848F60F7108401146086000F0B4FEC7
:100A60007D4909684BF6BF7201EA02007B4909889B
:100A700001F4805109B180F480507849098801F46B
:100A8000005109B180F400507549098801F0100146
:100A900009B180F010007249098801F0200109B104
:100AA00080F0200081B241F4004141F080016A4AA7
:100AB000116008BDFFE76848006880B20090BDF88B
:100AC000000000F40060B0B363480068C0F30E009B
:100AD00048F68F7108406049086002F0DBFC5E490F
:100AE00009684BF6BF7201EA02005C49098801F40B
:100AF000805109B180F480505849098800E056E0DF
:100B000001F4005109B180F400505549098801F001
:100B1000100109B180F010005149098801F020014D
:100B200009B180F0200081B241F4004141F0800120
:100B3000494A1160BDE7FFE7BDF8000000F400403E
:100B4000002878D044480068C0F30E0048F68F7142
:100B500008404149086001F0AFFA3F4909684BF687
:100B6000BF7201EA02003D49098801F4805109B1D0
:100B700080F480503949098801F4005109B180F4AA
:100B800000503749098801F0100109B180F01000C8
:100B90003349098801F0200109B180F0200081B2B9
:100BA00041F4004141F080012B4A116081E729485E
:100BB00000782C4901EB8000D0F8000C80B2009046
:100BC000BDF8000000F40040C0B12248007801EBFD
:100BD0008000D0F8000CC0F30E0048F68F7108407A
:100BE0001C4909781F4A02EB8101C1F8000C194920
:100BF0000978491E1C4A52F821008047BDF80000C0
:100C000000F08000B8B113480078164901EB80006D
:100C1000D0F8000C48F60F7108400E490978114AC7
:100C200002EB8101C1F8000C0A490978491E0F4AFC
:100C300052F82100804708484430006880B20449D7
:100C4000088000F4004000287FF4D2AE00BF30E7F7
:100C500004010020FC070020005C00401008002078
:100C6000120800200050004024010020080100204C
:100C70000B4A02EB8001D1F8001C01F4804171B1F4
:100C800002EB8001D1F8001C48F68F7211404CF243
:100C900080021143024B03EB8002C2F8001C704734
:100CA000005000400B4A02EB8001D1F8001C01F01B
:100CB000400171B102EB8001D1F8001C48F68F723F
:100CC000114048F2C0021143024B03EB8002C2F80C
:100CD000001C704700500040084A02EB8001D1F828
:100CE000001C48F68F62114048F280021143034B0A
:100CF00003EB8002C2F8001C704700000050004067
:100D00002DE9FF4FADF5057D81468A469B46939FB1
:100D1000929EB9F1000F04D0BBF1000F01D006B1D3
:100D20002FB94FF0FF300DF5097DBDE8F08F5D461E
:100D30003468BAF1000F04D0494624A803F02DFB13
:100D400003E0494624A803F039FB8798E0B907E09F
:100D50003A46294624A803F083F808350837083CAA
:100D6000082CF5DA002C44DDC4F108012819FFF73E
:100D700014FA3A46294624A803F072F8C4F108018F
:100D800030680844306034E0BAF1000F06D04946BC
:100D900003A803F029FE0020029005E0494603A8BD
:100DA00003F04DFE01200290E11704EB5171C910D0
:100DB000A4EBC101A9B1A046E21704EB5272D21014
:100DC000A4EBC202C2F108012819FFF7E6F9204698
:100DD000E11704EB5171C910A4EBC101C1F1080185
:100DE0000C44CDE90057224603A8879B029903F0E3
:100DF000F6FA002097E770472DE9F0472848006889
:100E000000F110052E8826480068077AD6B9042F0D
:100E100018D12448007801280FD100212248006809
:100E200080B2801C214A42F81010302020490880EE
:100E300000BF00201B49087003E0072710201C4951
:100E4000088027E0AC88A64201D8042000E00220F8
:100E50000746B44200D93446A0B2A9688847804604
:100E6000002000F009FC8146A2B24946404602F04B
:100E7000CBFFA1B2002002F027FA2888001B2880AF
:100E800068882044688030200949088000020949A8
:100E9000088000BF024909680F72BDE8F0870000B2
:100EA00000080020FA070020505C0040006000406D
:100EB00012080020100800202DE9F04128480068A1
:100EC00000F110042688A068C0B1BEB1A588B54263
:100ED00000D93546A8B2A168884707462088401B3C
:100EE0002080608828446080002000F097FB8046C6
:100EF000AAB24146384601F007F900BF208850B138
:100F00004FF44050174908800021084602F0DCF9F0
:100F10003020154908802088A188884204DB0320FE
:100F20000F490968087218E02088002804DD0520B0
:100F30000B490968087210E0208870B9062008493A
:100F40000968087200210948006880B2801C084ABC
:100F500042F81010302004490880BDE8F0810000FC
:100F6000000800201008002012080020505C0040FB
:100F7000006000402DE9F84F9B4800684578002745
:100F8000BA46062D1BD198480068007800F07F0013
:100F9000002813D1944909688878012803D193491E
:100FA0000968CF690AE0022803D1904909680F6AED
:100FB00004E0032802D18D4909684F6A94E0002DAE
:100FC00064D189480068408800285FD1864800685D
:100FD000C08802285AD1844800680079002855D179
:100FE00081480068007800F07F0028B97E480068DA
:100FF000808808B97E4F77E07B480068007800F071
:101000007F00012810D17849096848797749096833
:101010008A6900219047002866D173480068807A69
:10102000002861D0724F5FE06F480068007800F0E0
:101030007F00022858D16C480068407900F00F0604
:1010400069480068407900F0700967480068407995
:1010500000F0800038B1674901EB8600D0F8000C41
:1010600000F0300806E0634901EB8600D0F8000C80
:1010700000F4405860480078B04235D9B9F1000F0B
:1010800032D1B8F1000F2FD0594F2DE0082D07D1E4
:1010900055480068007800F07F0028BB574F23E0D8
:1010A0000A2D21D150480068007800F07F00012807
:1010B0001AD14D480068807AB0B14B48006840882A
:1010C00090B949480068007970B947480068C088FD
:1010D000012809D1444909684879444909688A695D
:1010E0000021904700B9464F57B13F480068A0F82B
:1010F00012A03D48006887610020B84700240FE037
:10110000394A12685078394A12681169884704468A
:10111000032C05D10920344909680872BDE8F88F0D
:1011200031480068008A4FF6FF71884204D10920D7
:101130002D4909680872F1E7022C03D02A4800689B
:10114000008A20B90820284909680872E6E726487D
:101150000068007800F08000E0B323480068C08891
:10116000009021480068008A0099884204D91E49ED
:1011700000980968088223E01B480068008A1A4921
:101180000968C98888421BDA17480068008A17492D
:10119000096891F82C10884203DA00201949087078
:1011A0000EE011480068008A1049096891F82C1077
:1011B00090FBF1F201FB120010B9012011490870F7
:1011C0000A48006890F82C10074800688182FFF7F1
:1011D00013FE07E0FFE703200349096808720003D4
:1011E0000949088000BF99E7000800200408002092
:1011F000353700080050004044010020B93600088F
:1012000009370008FA070020100800207047000086
:101210004FF0E021096921F004014FF0E022116153
:10122000C21700EB5272C2F3C702074B1A7019467D
:10123000097801EB4102C2EBC1114FF6FF7202EADD
:10124000C101024A11807047F4070020F607002010
:1012500001460D4A12884A434FF0E0235A610022AA
:101260009A6101221A6100BF4FF0E022106900F07C
:1012700001021AB100F48032002AF5D000224FF0AA
:10128000E0231A619A617047F607002010B501F05B
:10129000A5FE01F055FE01F0FFFE00F00CFA10BDB6
:1012A00010B500F07BFD10BD10B500F0C5FD10BD00
:1012B00030B5044604254FF4302000F0ABF8054665
:1012C000042D17D10C48006940F002000A4908615A
:1012D00008464461006940F0400008614FF4302046
:1012E00000F098F805460448006941F6FD71084091
:1012F00001490861284630BD0020024004200B4906
:10130000C96801F0010109B101200EE00749C9686F
:1013100001F0040109B1022007E00449C96801F0A5
:10132000100109B1032000E00420704700200240B2
:1013300010B504462046FFF7BBFF002010BD10B5D6
:1013400000F05CF8002010BD70B506460D46002484
:1013500005F0030060B12C4603E0FF200B4908555F
:10136000641C4FF6FC7105EA0100001DA042F4D890
:10137000002406E005480159304600F009F8361D02
:10138000241DAC42F6D3002070BD0000A820002030
:1013900078B506460C46042500200090E80200F0CF
:1013A00039F80546042D24D11348006940F00100A6
:1013B000114908613480E80200F02CF80546042D3C
:1013C00010D1B01C0090200C00990880E80200F0B9
:1013D00021F805460848006941F6FE7108400649B3
:1013E000086106E00448006941F6FE7108400249C0
:1013F0000861284678BD00000020024002480349E9
:101400004860034848607047230167450020024058
:10141000AB89EFCD00B502460423FFF76FFF03460B
:1014200003E0FFF76BFF0346521E012B01D1002A98
:10143000F7D102B90523184600BD000010B51821E8
:101440000348FEF7AAFE034801490861486110BD40
:10145000741800208C1800202DE9F0410246002568
:101460000026002000230024002791F803C00CF080
:101470000F0591F803C00CF0100CBCF1000F03D065
:1014800091F802C04CEA050591F800C0BCF1000FCC
:1014900031D0146800202BE04FF0010C0CFA00F35F
:1014A000B1F800C00CEA03069E4220D183004FF041
:1014B0000F0C0CFA03F7BC4305FA03FC4CEA0404D6
:1014C00091F803C0BCF1280F06D14FF0010C0CFAC3
:1014D00000FCC2F814C00AE091F803C0BCF1480F48
:1014E00005D14FF0010C0CFA00FCC2F810C0401CF2
:1014F0000828D1D31460B1F800C0BCF1FF0F34DD6F
:10150000546800202EE000F1080C4FF0010808FAA2
:101510000CF3B1F800C00CEA03069E4221D183000F
:101520004FF00F0C0CFA03F7BC4305FA03FC4CEA2E
:10153000040491F803C0BCF1280F05D100F1080C98
:1015400008FA0CF8C2F8148091F803C0BCF1480FF7
:1015500007D100F1080C4FF0010808FA0CF8C2F8A6
:101560001080401C0828CED35460BDE8F0810000F4
:10157000F0B50A46002300240021002500F00046B3
:10158000B6F1004F02D11D4EF16901E01B4E7168AA
:10159000C0F3034583B200F44016B6F5401F08D1EE
:1015A00021F07061154E766826F07066134F7E60EC
:1015B00012E000F48016B6F5801F06D1032606FA65
:1015C00005F4A14341F0706106E0460D360103FACF
:1015D00006F6B14341F0706122B1460D360103FABF
:1015E00006F6314300F00046B6F1004F02D1034E3B
:1015F000F16101E0014E7160F0BD000000000140AA
:101600000246002093680B400BB1012000E000204F
:10161000704741617047016170470000014605480D
:10162000006880B200EBC100001D034A32F81000D0
:1016300080B27047505C00400060004001460648A0
:10164000006880B200EBC100801D044A32F810002F
:10165000C0F3090070470000505C0040006000408B
:101660000146044A02EB8100D0F8000C00F440501F
:10167000704700000050004001460548006880B2F5
:1016800000EBC100034A32F8100080B2704700003E
:10169000505C004000600040014629B90120034A27
:1016A00012681082002070470148FCE70008002003
:1016B00040010020704770B500240FE00021204653
:1016C00000F00FF8002505E00221002000F01EF8D0
:1016D000681CC5B2832DF7DB601CC4B2412CEDDB66
:1016E00070BD70B505460C4645F0B000012100F014
:1016F0000DF8102141EA2410012100F007F804F050
:101700000F00012100F002F870BD000038B5054659
:101710000C464020ADF8000003208DF80200102098
:101720008DF8030069461748FFF796FE4FF4005105
:101730001548FFF770FF4FF400511348FFF769FF9A
:10174000012C04D140210F48FFF763FF03E0402143
:101750000C48FFF760FF284601F028FC4FF40051C9
:101760000948FFF758FF4020ADF8000003208DF82E
:10177000020004208DF8030069460248FFF76CFE62
:1017800038BD000000080140000C014070B505465E
:101790000E4600244FF400510948FFF73AFF00BFFE
:1017A00005E0285D0221FFF7B1FF601CC4B2B4421E
:1017B000F7DB4FF400510248FFF72DFF70BD00002A
:1017C000000C014000BFFEE710B518480068047A1D
:1017D000022C01D0042C05D1FFF70EFB1348006842
:1017E000047A1CE0062C19D11048006840780528BE
:1017F0000ED10E480068007800F07F0040B90B4918
:101800000968C87801F0B6FC09490968086A804788
:101810000849096888688047082400E008240349CB
:1018200009680C7200F0B6FC10BD00000008002032
:101830000C0800200408002010B5064CA07A18B14E
:1018400005200549086002E001200349086002F014
:101850004BF910BD8C200020D401002008B50121D7
:101860000C2000F00BFD01212C48FFF781FE4FF406
:101870000040ADF80000ADF8000002208DF8020035
:1018800010208DF8030069462548FFF7E5FD4FF469
:1018900000412348FFF7BFFE0820ADF800000220FA
:1018A0008DF8020028208DF8030069461D48FFF7D7
:1018B000D3FD4FF48050ADF8000002208DF80200F7
:1018C00010208DF8030069461548FFF7C5FD4FF459
:1018D00000411348FFF79FFE0820ADF800000220EA
:1018E0008DF8020028208DF8030069460D48FFF7A7
:1018F000B3FD4FF40040ADF8000002208DF8020067
:1019000014208DF8030069460748FFF7A5FD4FF442
:1019100000410548FFF77DFE08BD000000023000D1
:10192000000C0140001001400008014010B50821E2
:101930000148FFF76EFE10BD000C014010B50821F4
:101940000148FFF768FE10BD000C0140014640F25F
:10195000FF30074A10604FF40060064A10600448E8
:10196000006812685043044A10600020704700006D
:101970001800002010000020080000202DE9F04190
:1019800006460F4614461D46FF2229462046FEF70E
:10199000FDFB0020BDE8F08170B505460024144829
:1019A0000068007800F07F00212810D1FE2D0ED1B4
:1019B0000F480068408850B90D480068808830B9E9
:1019C0000B480068C088012801D10A4C01E00220C0
:1019D00070BD0CB90220FBE7054800688461002156
:1019E0000348006841820020A0470020F0E7000083
:1019F000000800209916000810B504460249204648
:101A000001F070FE10BD0000A401002010B50446D6
:101A10000249204601F066FE10BD00009C01002036
:101A200070B5054606480068C478052C01DD002025
:101A300070BD044800EBC401284601F053FEF7E7EF
:101A400000080020AC0100200246002901DD022030
:101A50007047002A01DD0220FAE70020F8E70000C5
:101A600010B5044611480068007800F07F00212876
:101A70001AD1FF2C18D10D4800684088A0B90B4836
:101A80000068808880B909480068C08860B9012072
:101A9000FFF708F90220FFF7EBF805480549086051
:101AA00000200549087010BD0220FCE70008002056
:101AB0005553424324180020DC00002010B50020BC
:101AC000324988723248C079324909684872002028
:101AD00001F048FB4FF40071002001F023FC2021AD
:101AE000002001F0FFFB1821002001F06BFB2A48C9
:101AF00090F82C10002001F077FB5821002001F015
:101B0000D3FB0020FFF7E8F8002001F0B3FB002131
:101B1000012001F007FC9821012001F0C5FB2021E4
:101B2000012001F0DFFB0021012001F083FB0021F7
:101B3000022001F0F7FBD821022001F043FB1648F8
:101B400090F82C10022001F04FFB4FF4405102207E
:101B500001F070FB0021022001F0C4FB0E4890F858
:101B60002C10002001F040FB002001F083FB00203E
:101B700001F000FB01200949086009480949086093
:101B800000200949087002F0F5F810BD8C200020F3
:101B9000964C00080008002048010020D4010020D5
:101BA0005553424324180020DC0000207047704742
:101BB00010B5FFF77FFD002005490968887200F025
:101BC0000DFB02F0DFF800200249086010BD0000A4
:101BD00000080020D40100202DE9F0410646884687
:101BE00017461C46A7F12000050141463046FFF785
:101BF00078FD60190821FFF7C9FD0835711CC8B2CE
:101C00004146FFF76EFD60190821FFF7BFFDBDE8F3
:101C1000F08100002DE9F04104460D461746984634
:101C2000002600BF15E005F10800802802DDA01C99
:101C3000C4B20025601C072800DD0024BA5D074BF4
:101C400029462046FFF7C8FF05F10800C5B2701C01
:101C5000C6B24645E7DBBDE8F0810000F401002094
:101C60002DE9F04105460C46164600274FF0FF08C7
:101C700010211148FFF7CDFC032000F067F8C4F3F2
:101C8000074000F063F8C4F3072000F05FF8E0B20B
:101C900000F05CF800BF04E000F01AF828706D1C3A
:101CA0007F1CB742F8D34FF0000810210248FFF71D
:101CB000B2FC4046BDE8F0810008014070B5054621
:101CC0000E461446A2B231462846FFF7C9FF70BD42
:101CD00010B5002400BF02210A4801F005F90028D0
:101CE000F9D0A521074801F00BF900BF01210548F3
:101CF00001F0FAF80028F9D0024801F0FEF8C4B269
:101D0000204610BD003001402DE9F04105460C464B
:101D10001646FF27102221460A48FFF7CFFF102260
:101D200008490948FEF7A8FB10B9204600F0F8FF63
:101D300032462146284600F00CFF00273846BDE811
:101D4000F0810000A82800201408002010B50446E7
:101D500000BF0221094801F0C7F80028F9D0214648
:101D6000064801F0CDF800BF0121044801F0BCF89D
:101D70000028F9D0014801F0C0F810BD0030014042
:101D800010B5044800680449884202D00220FEF7DA
:101D900053FB10BD241800205553424310B5224870
:101DA000007802281BD0032830D0042802D0052850
:101DB00036D100E000BF00201B4908704FF44051AD
:101DC000022001F037FA0220FFF74AFCB0F5805FED
:101DD00004D14FF44051022001F02CFA21E01348C5
:101DE000C07B282802D0FF280ED108E00F49487B8D
:101DF0000F490A680F49096800F01AFC04E00B4912
:101E0000487B00F01BFD00BF00BF0AE0012100205D
:101E100001F00EFB4FF44051022001F00BFA00E0FC
:101E200000BF00BF10BD0000DC000020241800200F
:101E3000E4000020E000002010B51B48C47B1B49D3
:101E4000022001F0B1FF1A4908801A48007810B149
:101E5000012818D102E0FEF729FB22E0FF2C04D173
:101E60001149487B00F0EAFC1BE00120FEF7E4FA90
:101E70000D49487B2422052101F0F8FA00210220B7
:101E800001F0D6FA0DE00220FEF7D6FA0649487BAB
:101E90002422052101F0EAFA0021022001F0C8FA0B
:101EA00000BF00BF10BD0000241800202410002037
:101EB000DE000020DC00002010B508480068807AB1
:101EC00058B10520064908600120FEF7EBFE02200C
:101ED000FEF7CEFE00200349087010BD0008002068
:101EE000D4010020DC000020042001490860704774
:101EF000D401002000BFFEE77047704770B5002195
:101F000000230F22C47804B3154C246804F4E06461
:101F1000C4F5E064210AC1F10403CA40447804FA1C
:101F200003F184781440214309010E4C0678A15531
:101F3000047804F01F050124AC4005786D11AD0054
:101F400005F1E025C5F8004109E0047804F01F051B
:101F50000124AC40044D0678761145F8264070BD4A
:101F60000CED00E000E400E080E100E00249014304
:101F7000024A1160704700000000FA050CED00E015
:101F800070B50226474800684478464800680078E3
:101F900000F07F00002844D1092C03D101F04AFC55
:101FA00006465FE0052C14D13E480068C0787F28C3
:101FB0000BDC3C480068807838B93A480068808873
:101FC00018B938480068807A08B1082565E000260D
:101FD00048E0032C0ED133480068C078012807D1AF
:101FE00030480068808818B901F048FC064639E09E
:101FF000022637E0012C35D12A480068C078012834
:102000000DD128480068808848B926480068407A81
:1020100000F0200018B101F099FA064622E00226ED
:1020200020E020480068007800F07F00012805D1FA
:102030000B2C17D101F09EFC064613E019480068EE
:10204000007800F07F0002280BD1012C03D101F0B1
:102050007DFA064606E0032C04D101F023FC064677
:1020600000E002264EB1E0B20F4A1268516988477B
:102070000646032E01D109250FE00EB108250CE01C
:10208000062500210948006880B2801C084A42F8F1
:10209000101030200749088000BF024909680D72FE
:1020A00070BD00000008002004080020505C0040C3
:1020B000006000401208002010B511480068047A42
:1020C000022C01D0042C01D1082412E0032C01D0F1
:1020D000052C05D1FEF7F0FE09480068047A08E0F7
:1020E000072C05D107490968C8688047082400E023
:1020F0000824034909680C7200F04CF810BD000078
:102100000008002004080020F0B5561C7510074E8A
:1021100006EB41042B4605E034F8047B20F8017BF4
:10212000401C5B1E002BF7D1F0BD0000006000409A
:1021300010B5002410E008210948FFF761FA50B1FA
:10214000601CC4B2C820FFF783F8052C04D101201D
:1021500000F064F801E000E0EDE700BF10BD000012
:102160000010014010B504462CB14FF4004107485F
:10217000FFF751FA09E04FF480510448FFF74BFA9A
:102180004FF400410148FFF744FA10BD000C014034
:102190007047000010B50D4890F82C10002001F099
:1021A00023F80B480068007A082805D14002094945
:1021B000088010200849088005480068007A09282E
:1021C00001D1012010BD0020FCE7000048010020E3
:1021D00000080020100800201208002010B501207F
:1021E00001F0D0FC01240B48046000200A4908805B
:1021F00008460088074908600020091D08604FF460
:10220000E05005490880084600880249086000201F
:1022100010BD0000405C00400A08002010B50446D4
:102220000020FFF79FFF34B100BF08210248FFF7ED
:10223000E7F90028F9D110BD0010014029B1064A84
:10224000D2690243044BDA6104E0034AD269824353
:10225000014BDA61704700000010024029B1064AC4
:1022600012690243044B1A6104E0034A1269824373
:10227000014B1A61704700000010024029B1064A64
:1022800092690243044B9A6104E0034A92698243D3
:10229000014B9A61704700000010024029B1064AC4
:1022A000D2680243044BDA6004E0034AD2688243F6
:1022B000014BDA60704700000010024001490860DD
:1022C00070470000D800424270B504460D461646DD
:1022D0003748007870B9374850F8240068433649C9
:1022E0000860344850F824007043344908600120E5
:1022F0002F4908702E480078012846D130480068E0
:10230000C0B92C4830F8240083B22E4A2A4801680C
:102310002046FFF733FB40222A49812001F05BFD74
:10232000244850F8240040382549086040202649B8
:10233000086011E02348244A126881184022812055
:1023400001F049FD1E48006840381D4908601E48DC
:10235000006840301C4908604021012000F0B4FFB3
:102360003021012000F0BEFF1348006840301249C0
:1023700008601248006840381049086013488068B7
:10238000403812498860FFF7D9FA0C48006870B9E4
:1023900000200B4908600C490860074908600320C9
:1023A0000B490870002002490870FFF7BFFA70BDA2
:1023B0003400002010000020380000203C000020E5
:1023C00024000020240800202800002044180020B9
:1023D000DC00002070B50546072D01D02E480570A1
:1023E0002D48007808284ED2DFE800F004111A20AA
:1023F0002B384E4F2948006828B900F053F80620C2
:102400002549087002E005202349087041E000F0EA
:1024100049F804202049087001202049086038E06C
:1024200002201D4948700320087032E01A484078A5
:10243000401E194948700846407808B904200870C1
:1024400027E01748006884B244F010041448046080
:102450000520114908700A2048701AE00E4840789B
:10246000401E0D4948700846407858B90C4800682D
:1024700084B224F010040A4804600620087000208A
:102480000649086005E000BF00BF06200249087049
:1024900000BF00BF70BD0000D9010020DC0100209A
:1024A000405C004010B50748006884B224F0040482
:1024B00004480460FFF7C0F94FF43F400149086049
:1024C00010BD0000405C00402DE9F04104460D467F
:1024D00017461E46B8191C4951F82410884213D9D2
:1024E0002A2D02D10220FDF7A7FF0020FDF7A4FF4F
:1024F00021220521204600F0B9FF0021012000F033
:1025000097FF0020BDE8F08110488168104850F81E
:1025100024007043814214D02A2D03D10220FDF7FC
:102520008BFF02E00020FDF787FF0849487B24224B
:10253000052100F09BFF0021012000F079FF002021
:10254000E0E70120DEE7000018000020241800204A
:102550001000002010B504462046FFF7F7F968B1D7
:102560000749487B3A22022100F080FF01210846FA
:1025700000F05EFF0020FDF75FFF10BD00BFFCE72D
:102580002418002070B506460B48007C00F00100BE
:1025900010B10A4D052409E006B9094D0648C07C72
:1025A000242802DC0448C47C00E024242146284678
:1025B00001F0CAFA70BD0000241800204800002075
:1025C0004D00002010B504460E48806818B9002060
:1025D000FDF732FF0BE00B48007B00F0800018B1E4
:1025E0000020FDF729FF02E00220FDF725FF054945
:1025F000487B2022052100F039FF0021012000F056
:1026000017FF10BD2418002010B504460821024809
:1026100001F09AFA10BD00009900002010B50446A0
:102620000421024801F090FA10BD0000950000203E
:1026300070B506460C4615461948007820BB194966
:10264000487B2B4622462821FFF73EFF00B970BD8C
:102650001448007B00F0800040B10220104908704F
:102660002A4621463046FFF72FFE0CE00220FDF7F8
:10267000E3FE0C49487B2422052100F0F7FE0121EE
:10268000084600F0D5FEE2E705480078022804D1AC
:102690002A4621463046FFF717FE00BFD7E7000065
:1026A000DC0000202418002010B504462046FFF767
:1026B0004DF968B11F49487B3A22022100F0D6FE4D
:1026C0000121084600F0B4FE0020FDF7B5FE10BD64
:1026D000194850F82400401E000E1849087016488A
:1026E00050F82400401E000C4870134830F82400B5
:1026F000401E000A8870104810F82400401EC87060
:102700000F4850F82400000E08710D4850F82400BE
:10271000000C48710A4830F82400000A8871084803
:1027200010F82400C8710821044801F00DFA00BF18
:10273000CDE700002418002018000020B30000207E
:102740001000002010B504462046FFF7FFF868B1DE
:102750001A49487B3A22022100F088FE01210846EE
:1027600000F066FE0020FDF767FE10BD144850F82B
:102770002400000E13490871114850F82400000C81
:1027800048710F4830F82400000A88710C4810F88E
:102790002400C8710C4850F82400000C48720A4804
:1027A00030F82400000A8872074810F82400C87224
:1027B0000C21044801F0C8F900BFD6E72418002016
:1027C00018000020BB0000201000002070B5054656
:1027D0000648C07C122802DC0448C47C00E01224B5
:1027E0002146034801F0B0F970BD00002418002014
:1027F000A100002010B504460121002000F018FEC1
:1028000010BD000010B504462046FFF79FF868B1E0
:102810000949487B3A22022100F028FE012108469E
:1028200000F006FE0020FDF707FE10BD012100208C
:1028300000F0FEFD00BFF8E72418002070B5064642
:10284000A348007800287BD1A248007B00F08000DC
:1028500078B901209E49087000209F4908709F495F
:1028600008609F4908804FF44051022000F0E2FCCC
:1028700064E09C48007860BB9B48007A801C9B49C0
:10288000087099480089801C000A48709648806842
:1028900030B19548826841699448801CFDF764FC1A
:1028A0009148017B8068801C904A11548E48417B7E
:1028B0008068C01C11548C480089001D8C49088018
:1028C000002087490880022081490870012085493D
:1028D000087084480078012824D185480088402861
:1028E00001DD402001E082480088044622467F49FD
:1028F000812001F070FA2146012000F0E5FC302132
:10290000012000F0EFFC76480088204474490880DC
:1029100077480088001B7649088076488068001B4D
:10292000744988607248008840B900206C4908806A
:1029300003206749087000206A49087070BDFFE7EE
:1029400063480078012876D163480078002855D183
:102950006648007864490870644840784870634865
:10296000807888706148C078C870604800790871C4
:102970005E48407948715D488079887108464078A2
:1029800020B1042803D0052804D101E000BF00BF16
:10299000002506E054488179407901EB002085B29A
:1029A00000BF00BF392D18DDA5F139004B49086083
:1029B0004D49392208694D49C91DFDF7D5FB39201C
:1029C0004749088044480078401C434908704FF448
:1029D0004051022000F02EFC78E000203F490860C2
:1029E00041492A4608694149C91DFDF7BDFBFDF76C
:1029F0008FFC0121002000F01BFD67E037480068D4
:102A0000402819D938490969354A1288881840225E
:102A10003649FDF7A9FB324800884030304908802C
:102A20002E48006840382D4908604FF4405102207C
:102A300000F000FC4AE010E02B490969284A12889E
:102A4000881826490A682949FDF78EFBFDF760FCC6
:102A50000121002000F0ECFC38E01D48007802283D
:102A600034D120480078012822D12148008840280C
:102A700001DD402001E01E48008804461B48184A3A
:102A8000128881182246812001F0A5F921460120F3
:102A900000F01AFC3021012000F024FC10480088CE
:102AA00020440F49088012480088001B1049088004
:102AB0000F48008850B900200949088003200449C4
:102AC00008700020074908700A49886000BF35E790
:102AD000DC00002024180020E0010020E401002098
:102AE000E801002034000020741800202410002089
:102AF000EA0100204418002010B504460D48806803
:102B000048B90C48007C00F0040020B901210020E5
:102B100000F08EFC0CE00220FDF78EFC0549487B9E
:102B20002422052100F0A2FC0021012000F080FCFD
:102B300010BD000024180020704721B1028842F027
:102B40004002028004E002884FF6BF731A40028000
:102B500070472DE9F05F07460E4614464FF0000817
:102B6000C146C2460025AB4606F0FF0ACAF1000086
:102B7000C5B22046E11704EB1161C1F30728E11744
:102B800004EB11610912A4EB012101F0FF09BAF174
:102B9000000F20D1B8F1000F05D12246314638464A
:102BA00000F068F864E009E04FF48072314638467E
:102BB00000F060F806F5807607F580775FEA080098
:102BC000A8F1010101F0FF08EED14A46314638462E
:102BD00000F050F84CE0B8F1000F18D1A94510DD15
:102BE000A9EB050000F0FF0B2A463146384600F0FD
:102BF00041F82E442F445A463146384600F03AF800
:102C000036E022463146384600F034F830E0601BAA
:102C100084B22046E11704EB1161C1F30728E117E4
:102C200004EB11610912A4EB012101F0FF092A460E
:102C30003146384600F01EF82E442F4409E04FF488
:102C400080723146384600F015F806F5807607F5B3
:102C500080775FEA0800A8F1010101F0FF08EED1DA
:102C6000B9F1000F04D04A463146384600F002F868
:102C7000BDE8F09F70B505460C46164600F088F892
:102C800010211148FEF7C5FC0220FFF75FF8C4F3DE
:102C90000740FFF75BF8C4F30720FFF757F8E0B2EF
:102CA000FFF754F803E02878FFF750F86D1C300068
:102CB000A6F101018EB2F6D110210348FEF7ABFC5C
:102CC00000F04EF870BD0000000801402DE9F04111
:102CD0000024002500260027A04610210F48FEF7FB
:102CE00098FC9F20FFF732F8FEF7F2FF0546FEF74B
:102CF000EFFF0646FEF7ECFF0746FEF7E9FF8046CA
:102D000010210648FEF787FC280640EA064040EA04
:102D1000072040EA08042046BDE8F0810008014091
:102D200010B5044600F034F810210C48FEF771FC91
:102D30002020FFF70BF8C4F30740FFF707F8C4F3B0
:102D40000720FFF703F8E0B2FFF700F8102103486F
:102D5000FEF761FC00F004F810BD0000000801401F
:102D600010B5002410210948FEF753FC0520FEF79A
:102D7000EDFF00BFFEF7ACFF044604F001000028A1
:102D8000F8D110210148FEF746FC10BD00080140B3
:102D900010B510210548FEF73CFC0620FEF7D6FFD3
:102DA00010210248FEF737FC10BD0000000801406A
:102DB00000B587B001210520FFF760FA0121080363
:102DC000FFF75CFA01210803FFF758FA2020ADF85D
:102DD000180018208DF81B0003208DF81A0006A992
:102DE0002948FEF739FB4020ADF8180018208DF86F
:102DF0001B0003208DF81A0006A92348FEF72CFBC0
:102E00008020ADF8180018208DF81B0003208DF8E5
:102E10001A0006A91C48FEF71FFB1020ADF8180089
:102E20008DF81B0003208DF81A0006A91648FEF73E
:102E300013FB10211448FEF7EEFB0020ADF8040050
:102E40004FF48270ADF806000020ADF808000220B3
:102E5000ADF80A000120ADF80C004002ADF80E00FC
:102E60000820ADF810000020ADF812000720ADF8E2
:102E7000140001A9054800F045F801210348FFF7B7
:102E80005CFE07B000BD00000008014000300140BA
:102E900010B504461148844208D101218014FFF77F
:102EA000FDF90021A014FFF7F9F916E00C4884425F
:102EB00008D101210014FFF7D1F900212014FFF7F8
:102EC000CDF90AE00748844207D10121C013FFF77A
:102ED000C5F90021E013FFF7C1F910BD0030014032
:102EE00000380040003C00400246002013890B409F
:102EF0000BB1012000E0002070470146888970472F
:102F00008181704710B50022028802F441520B887B
:102F10004C8823438C882343CC8823430C89234348
:102F20004C8923438C892343CC8923431A43028051
:102F3000838B4FF2FF74234083830B8A038210BD7F
:102F400000B585B01848FFF7A3FF01210803FFF77C
:102F500095F900211448FFF7F0FD0020ADF80000BE
:102F60004FF48270ADF802000020ADF8040002209A
:102F7000ADF806000120ADF808004002ADF80A00E7
:102F80000820ADF80C000020ADF80E000720ADF8C9
:102F9000100069460448FFF7B5FF01210248FFF71A
:102FA000CCFD05B000BD00000030014010B5044666
:102FB00000BF02210848FFF797FF0028F9D02146FB
:102FC0000548FFF79DFF00BF80210348FFF78CFFF6
:102FD0000028F9D110BD00000030014008B50121E2
:102FE0000C20FFF74BF94FF48040ADF800000320B0
:102FF0008DF8020010208DF8030069462448FEF782
:103000002BFA4FF480412248FEF705FB4020ADF833
:10301000000004208DF8030069461E48FEF71CFAE4
:103020004FF40050ADF8000010208DF80300694601
:103030001748FEF711FA4FF400511548FEF7EBFA66
:103040004FF48050ADF8000069461148FEF704FACD
:103050004FF480510E48FEF7DCFA2020ADF8000056
:1030600003208DF8020018208DF8030069460948F6
:10307000FEF7F2F98020ADF8000003208DF8020081
:1030800018208DF8030069460248FEF7E5F908BDEF
:10309000000C01400008014010B54FF480412F485A
:1030A000FEF7B7FA0120FEF7D3F84FF480412B4822
:1030B000FEF7B1FA0520FEF7CBF80121E220FEF77A
:1030C00025FB0120FEF7C4F801212F20FEF71EFB8F
:1030D0000120FEF7BDF801212320FEF717FB012098
:1030E000FEF7B6F80121A320FEF710FB0120FEF742
:1030F000AFF801218120FEF709FB01212420FEF712
:1031000005FB0120FEF7A4F80121C820FEF7FEFA16
:103110000120FEF79DF80121A020FEF7F7FA01201B
:10312000FEF796F801214020FEF7F0FA0120FEF7A5
:103130008FF80121A620FEF7E9FA0120FEF788F8B2
:103140000121AF20FEF7E2FA0120FEF781F84FF4EB
:1031500000510248FEF75DFA10BD0000000C01406E
:10316000704700004FF6F8710140014A1160704746
:10317000505C004030B501460F4B1A78002014E037
:1031800003060E4C04EB9353D3F8003C48F68F74BF
:10319000234048F280042343C4B223430406074D6E
:1031A00005EB9454C4F8003C401C9042E8D341F035
:1031B0008003034C236030BD4401002000500040D8
:1031C0004C5C004010B54A105300054A126892B298
:1031D00002EBC002121D034C44F8123010BD000077
:1031E000505C00400060004010B502460F48006887
:1031F00080B200EBC200801D0D4C04EB40033E2961
:103200000BDD481101F01F040CB9441EA0B24FF4AD
:10321000004444EA80241C6007E0481001F00104E7
:103220000CB1441CA0B284021C6010BD505C004074
:103230000060004030B50E4C04EB8003D3F8003C36
:103240004BF68F7403EA040201F480530BB182F44D
:10325000805201F400530BB182F4005242F4004357
:1032600043F08003024D05EB8004C4F8003C30BD00
:103270000050004010B50B4B03EB8002D2F8002C3D
:103280004BF68F7302EA030181F4805181F40051FF
:1032900041F4004242F08002024C04EB8003C3F888
:1032A000002C10BD0050004010B54A105200044BD5
:1032B0001B689BB203EBC003024C44F8132010BD03
:1032C000505C004000600040044A126892B202EB79
:1032D000C002921C024B43F812107047505C004031
:1032E0000060004030B50E4C04EB8003D3F8003C86
:1032F00048F6BF7403EA040201F010030BB182F038
:10330000100201F020030BB182F0200242F40043CE
:1033100043F08003024D05EB8004C4F8003C30BD4F
:103320000050004010B5074B03EB8002D2F8002C90
:1033300048F68F131A400A43024C04EB8003C3F88B
:10334000002C10BD0050004010B500F001F810BD79
:103350000CB50020019000903348006840F48030A4
:103360003149086000BF3048006800F40030009028
:103370000198401C0190009818B90198B0F5A06F11
:10338000F1D12948006800F4003010B1012000900C
:1033900001E0002000900098012843D123480068F4
:1033A00040F01000214908600846006820F0030042
:1033B00008600846006840F0020008601A4840684B
:1033C000194948600846406848600846406840F42B
:1033D000806048600846406820F47C1048600846D9
:1033E000406840F4E81048600846006840F080708B
:1033F000086000BF0C48006800F000700028F9D099
:103400000948406820F003000749486008464068C2
:1034100040F00200486000BF0348406800F00C0024
:103420000828F9D10CBD0000001002400020024025
:1034300070B505460C460A480A49086008460573F7
:103440000D22812000F0C7FC0520074908702CB12F
:103450000420087030210120FFF744FF70BD0000F8
:103460005553425344180020DC000020014B997052
:103470001A737047A100002010B500F093FB10BD37
:1034800010B50020FEF71AFF0121C805FEF7D6FE91
:1034900010BD000038B501242948006880B2001D25
:1034A000284931F8100080B201EB40000090264816
:1034B0000068007A092832D000980078224909680B
:1034C00008700098401C0090009800781E49096818
:1034D00048700098401C0090009800EB4400009059
:1034E000009931F8020B0091FCF7DAFF16490968E0
:1034F0004880009800EB44000090009931F8020BDE
:103500000091FCF7CDFF104909688880009800EB16
:1035100044000090009800880B490968C880012089
:1035200009490968087208480068C08810B9FEF7A0
:1035300027FD01E0FDF71EFDFEF72CFE38BD000063
:10354000505C004000600040000800202DE9F0477A
:1035500054480068007800F07F08B8F1000F0AD1E5
:1035600050480068407A00F0DF004E490968487210
:103570000020BDE8F087B8F1020F7CD1494800680F
:10358000408818B947480068007908B10220F0E780
:10359000DFF8149143480068477927F080052C46EE
:1035A00040480068407900F0800038B13F4901EBA5
:1035B0008400D0F8000C00F0300606E03B4901EB37
:1035C0008400D0F8000C00F4405699F80000A8429E
:1035D00004D91EB133480068807A08B90220C8E7D0
:1035E00007F0800080B1314901EB8400D0F8000C75
:1035F00000F0300010284BD1E0B2FDF753FBE0B2F1
:103600003021FFF76FFE43E0284901EB8400D0F83A
:10361000000C00F44050B0F5805F39D1E4B9244A81
:1036200092F82C10E0B2FFF7DFFD204A02EB840194
:10363000D1F8001C4BF68F7201EA020080F4805032
:1036400080F4005040F4004141F08001174B03EB3F
:103650008402C2F8001C1BE0E0B2FDF709FB134A2C
:1036600002EB8401D1F8001C4BF68F7201EA0200D4
:1036700080F4805000E011E080F4005040F40041FC
:1036800041F08001094B03EB8402C2F8001C00BF2B
:10369000084909684869804700206AE700BF02209E
:1036A00067E70000000800204401002000500040AF
:1036B000480100200C08002010B504462CB9012058
:1036C000064909680882002010BD05490968086894
:1036D0008047024800680A30F6E700000008002032
:1036E0000C08002010B5024606480068438A32B92B
:1036F0008888C01A034C24682082002010BD086806
:103700001844FBE70008002010B504462CB901203E
:10371000064909680882002010BD054909688868C3
:103720008047024800680C30F6E7000000080020DF
:103730000C08002010B504462CB90220394909684C
:103740000882002010BD00203749088035480068F5
:10375000007800F07F0018BB32490968487A00F011
:10376000200131B13049097841F002012E4A11702F
:1037700005E02D49097801F0FD012B4A117000F098
:10378000400131B12849097841F00101264A117000
:1037900005E02549097801F0FE01234A11703AE05D
:1037A00020480068007800F07F00012801D11E4801
:1037B000C8E71C480068007800F07F00022828D184
:1037C000184A1268517901F00F0001F080027AB1B5
:1037D000164B03EB8002D2F8002C02F03002102AC4
:1037E00016D1114A127842F001020F4B1A700FE005
:1037F0000E4B03EB8002D2F8002C02F44052B2F5DB
:10380000805F05D1084A127842F00102064B1A7017
:1038100001E0002096E706490968086980470248E8
:1038200090E7000000080020F8070020005000404A
:103830000C08002010B50E480068C0780D49497882
:10384000884213DC0A480068807878B90848006824
:10385000808858B906480068C078054909688872A8
:103860000549096848688047002010BD0220FCE730
:1038700000080020440100200C08002010B5074873
:103880000068407A40F02000044909684872044901
:103890000968C8698047002010BD000000080020AA
:1038A0000C0800202DE9F0412E480068467926F0EA
:1038B00080073C462B480068407900F0800038B112
:1038C000294901EB8400D0F8000C00F0300506E037
:1038D000254901EB8400D0F8000C00F44055234842
:1038E0000078A04208D91F480068408820B91DB15F
:1038F0001C480068807A10B90220BDE8F08106F00B
:103900008000A0B1184A02EB8401D1F8001C48F6EF
:10391000BF7201EA020080F0100040F4004141F063
:103920008001114B03EB8402C2F8001C14E00E4A24
:1039300002EB8401D1F8001C4BF68F7201EA020001
:1039400080F4805040F4004141F08001064B03EBCD
:103950008402C2F8001C00BF0549096888698047D5
:103960000020CAE700080020005000404401002069
:103970000C08002010B5174B1B68D978154B1B6835
:103980005879154B1B689A6990470446114800689E
:10399000807AE8B13CB90F480068007918B90D4841
:1039A0000068807808B1022010BD8CB90B49096805
:1039B000C868804707480068407906490968C872A6
:1039C00004480068C0780349096808730020EBE7E1
:1039D0000220E9E700080020040800200C0800206D
:1039E00038B50021002200230093394B1B6898B2A0
:1039F00000BF09E0374C04EB8103D3F8003C9BB2D5
:103A0000354C44F82130491C0829F3D340F4806038
:103A10002F4B186040F00100186020F00100186082
:103A200000BF2B4B1B1D1B6803F48063002BF8D0D9
:103A30004FF6FF33264C241D2360002109E0264B5E
:103A400053F821309BB2234D05EB8104C4F8003CB0
:103A5000491C0829F3D340F008001D4B18601B686F
:103A600098B240F004001A4B18601C4B1B6800937E
:103A70001A4B1A6822F0030242F001021A60184B36
:103A80001B6843F00403164C2360114B1B1D1B687D
:103A900003F4805333B930BF23461B6823F004037B
:103AA000236014E04EF6FF73094C241D2360231F8E
:103AB0001B6898B220F00800231F1860074C009B79
:103AC0002360074B1B6823F00403054C236038BDBB
:103AD000405C00400050004054180020007000403E
:103AE00010ED00E07047000010B51348006840F08A
:103AF00001001149086008464068104908400E4915
:103B00004860084600680E4908400B4908600846AE
:103B1000006820F4802008600846406820F4FE0019
:103B200048604FF41F008860FFF70EFC4FF0006004
:103B30000449086010BD0000001002400000FFF8BA
:103B4000FFFFF6FE08ED00E070B505460C46224684
:103B50002946812000F03FF930210120FFF7C2FB08
:103B600003200549087005488068001B03498860E8
:103B70000020087370BD0000DC0000204418002005
:103B80007047000010B5044624B104210448FDF735
:103B900042FD03E004210248FDF73BFD10BD00009B
:103BA0000010014008B501211020FEF767FB04203A
:103BB000ADF8000003208DF8020010208DF80300FE
:103BC00069460248FDF748FC08BD000000100140AE
:103BD0007047000010B508480849086002200968CD
:103BE00008720748074908600748084908600549FE
:103BF00009680868804710BD8C200020000800205C
:103C00004801002004080020780100200C08002052
:103C100008B54FF4A060FEF7A9F914208DF8000054
:103C200002208DF8010000208DF8020001208DF89F
:103C300003006846FEF762F92A208DF80000002094
:103C40008DF801006846FEF759F931208DF8000023
:103C500000208DF801008DF802006846FEF74EF94D
:103C60003B208DF8000000208DF801006846FEF72B
:103C700045F908BD10B5374800683749088008463F
:103C8000008800F4004035490988084008B1FCF775
:103C9000ABFE3148008800F4806030490988084054
:103CA00030B14FF6FF302B4908602D4948688047F6
:103CB0002948008800F4005028490988084018B1B4
:103CC0004DF6FF70234908602348008800F48050B7
:103CD00022490988084030B14EF6FF701D4908603E
:103CE0000020FEF777FB1C48008800F400601B49A9
:103CF0000988084060B11B48007810B1FFF770FEDA
:103D000002E00220FEF766FB4FF2FF7011490860E7
:103D10001148008800F4007010490988084040B13B
:103D20004FF6FF500B4908600F480078401C0E49C1
:103D300008700948008800F4807008490988084024
:103D400030B14FF6FF60034908600720FEF742FBE1
:103D500010BD0000445C0040040100200A0800205F
:103D600048010020D80100200601002010B5FFF70F
:103D700081FF10BD10B510210148FDF74AFC10BDB0
:103D8000000C01400020064908604FF43F400549FF
:103D90000880084600880249091F08600020704713
:103DA000445C00400A0800202DE9F04104460E461C
:103DB000002504F07F00FDF741FC054604F07F007C
:103DC000FDF72CFC07462A4639463046FEF79CF99B
:103DD0002846BDE8F0812DE9F04104460E4615461F
:103DE00004F07F00FDF748FC0746AAB2394630468A
:103DF00000F00AF8A9B204F07F00FFF765FA00208E
:103E0000BDE8F08100BFFEE7F0B5144604F1010CF7
:103E10004FEA6C07DFF824C00CEB41033D460AE093
:103E20000678401C90F800C046EA0C2223F8022BCA
:103E30009B1C401C6D1E002DF2D1F0BD00600040A7
:103E400002E008C8121F08C1002AFAD17047704763
:103E5000002001E001C1121F002AFBD170470000C1
:103E60002DE9F04384460D4616460CF104042878EB
:103E7000000695F8018040EA084095F8028040EA83
:103E8000082095F8038040EA08022879000695F892
:103E9000058040EA084095F8068040EA082095F839
:103EA000078040EA080383EA121000F00F314B400C
:103EB00082EA011283EA124081B24B4082EA014257
:103EC00082EA930000F033314A4083EA810382EAB8
:103ED000132000F0FF114A4083EA0123580040EA12
:103EE000D37382EA030000F0AA314B404A405000ED
:103EF00040EAD272002790E001CC80EA030101F091
:103F00003F00DFF8E48358F82000DFF8E083C1F3D6
:103F1000052958F8298080EA0800DFF8D483C1F326
:103F2000054958F8298080EA0800DFF8C883C1F302
:103F3000056958F8298080EA0800424001CC4FEA20
:103F4000037848EA131880EA080101F03F00DFF81F
:103F5000A88358F82000DFF8A483C1F3052958F896
:103F6000298080EA0800DFF89883C1F3054958F8F2
:103F7000298080EA0800DFF88C83C1F3056958F8CE
:103F8000298080EA0800424001CC80EA020101F069
:103F90003F00DFF8548358F82000DFF85083C1F366
:103FA000052958F8298080EA0800DFF84483C1F326
:103FB000054958F8298080EA0800DFF83883C1F302
:103FC000056958F8298080EA0800434001CC4FEA8F
:103FD000027848EA121880EA080101F03F00DFF891
:103FE000188358F82000DFF81483C1F3052958F826
:103FF000298080EA0800DFF80883C1F3054958F8F2
:10400000298080EA0800DFF8FC82C1F3056958F8CE
:10401000298080EA080043407F1C082FFFF66CAF20
:10402000002790E001CC80EA020101F03F00DFF8B8
:10403000B88258F82000DFF8B482C1F3052958F897
:10404000298080EA0800DFF8A882C1F3054958F802
:10405000298080EA0800DFF89C82C1F3056958F8DE
:10406000298080EA0800434001CC4FEA027848EA00
:10407000121880EA080101F03F00DFF87C8258F84E
:104080002000DFF87882C1F3052958F8298080EAFA
:104090000800DFF86C82C1F3054958F8298080EAEE
:1040A0000800DFF86082C1F3056958F8298080EACA
:1040B0000800434001CC80EA030101F03F00DFF833
:1040C000288258F82000DFF82482C1F3052958F827
:1040D000298080EA0800DFF81882C1F3054958F802
:1040E000298080EA0800DFF80C82C1F3056958F8DE
:1040F000298080EA0800424001CC4FEA037848EA70
:10410000131880EA080101F03F00DFF8EC8158F84D
:104110002000DFF8E881C1F3052958F8298080EAFA
:104120000800DFF8DC81C1F3054958F8298080EAEE
:104130000800DFF8D081C1F3056958F8298080EACA
:10414000080042407F1C082FFFF66CAF002790E06C
:1041500001CC80EA030101F03F00DFF88C8158F8C0
:104160002000DFF88881C1F3052958F8298080EA0A
:104170000800DFF87C81C1F3054958F8298080EAFE
:104180000800DFF87081C1F3056958F8298080EADA
:104190000800424001CC4FEA037848EA131880EA4D
:1041A000080101F03F00DFF8508158F82000DFF8E7
:1041B0004C81C1F3052958F8298080EA0800DFF80E
:1041C0004081C1F3054958F8298080EA0800DFF8EA
:1041D0003481C1F3056958F8298080EA080042401B
:1041E00001CC80EA020101F03F00DFF8FC8058F8C2
:1041F0002000DFF8F880C1F3052958F8298080EA0B
:104200000800DFF8EC80C1F3054958F8298080EAFE
:104210000800DFF8E080C1F3056958F8298080EADA
:104220000800434001CC4FEA027848EA121880EABD
:10423000080101F03F00DFF8C08058F82000DFF8E7
:10424000BC80C1F3052958F8298080EA0800DFF80E
:10425000B080C1F3054958F8298080EA0800DFF8EA
:10426000A480C1F3056958F8298080EA080043401A
:104270007F1C082FFFF66CAFD80740EA530383EA90
:10428000020000F0AA314B404A40D00740EA5202F7
:1042900083EA122000F0FF114B4082EA012283EAF8
:1042A000920000F033314B4082EA810282EA1340EF
:1042B00081B24A4083EA014382EA131000F00F31D1
:1042C0004A4083EA0113180E3070180C7070180AF7
:1042D000B070F370100E3071100C7071100AB07164
:1042E000F2710020BDE8F08318540008185200084D
:1042F00018500008184E00081853000818510008FC
:10430000184F0008184D00082DE9F04106460D46EB
:1043100017463946304600F0DBF907F1080105F190
:10432000800000F0D5F9002433E0C4F11E0056F8F7
:10433000200045F82400C4F11F0056F82010601C2E
:1043400045F82010C4F13E0055F8201004F120007B
:1043500046F82010C4F13F0055F8201004F1210068
:1043600046F8201056F824101F3046F82010601C24
:1043700056F82010403046F8201055F82410401E02
:1043800045F82010601C55F82010403045F82010EA
:10439000A41C202CC9DBBDE8F08130B5E1B0054696
:1043A0000C462246291D01A8FFF7AEFF4FF4C0714D
:1043B00001A8FBF7F2FE002061B030BD30B5E1B0DE
:1043C00005460C46224601A9281DFFF79DFF4FF424
:1043D000C07101A8FBF7E1FE002061B030BD2DE9FE
:1043E000FC478246894616461F46DDE90A8506F0E7
:1043F000070018B16FF03100BDE8FC87B9F1010F7B
:104400001AD116E0002405E018F80400395D484090
:104410002855641C082CF7DB2A462946504600F034
:104420002DF8286838606868786008F10808083551
:10443000083E002EE6D11EE01BE0D8F800000090F8
:10444000D8F8040001902A464146504600F016F87C
:10445000002404E0285D395D48402855641C082C80
:10446000F8DB009838600198786008F10808083592
:10447000083E002EE1D10020BEE700002DE9F04308
:1044800007460C4615463E1D2078000694F801802C
:1044900040EA084094F8028040EA082094F803803B
:1044A00040EA08022079000694F8058040EA0840B6
:1044B00094F8068040EA082094F8078040EA080350
:1044C00083EA121000F00F314B4082EA011283EAB6
:1044D000124081B24B4082EA014282EA930000F02E
:1044E00033314A4083EA810382EA132000F0FF114E
:1044F0004A4083EA0123580040EAD37382EA03006A
:1045000000F0AA314B404A40500040EAD2724FF0CE
:10451000000C91E001CE80EA030101F03F00DFF8DA
:10452000908158F82000DFF88C81C1F3052958F8F4
:10453000298080EA0800DFF88081C1F3054958F836
:10454000298080EA0800DFF87481C1F3056958F812
:10455000298080EA0800424001CE4FEA037848EA09
:10456000131880EA080101F03F00DFF8548158F881
:104570002000DFF85081C1F3052958F8298080EA2E
:104580000800DFF84481C1F3054958F8298080EA22
:104590000800DFF83881C1F3056958F8298080EAFE
:1045A0000800424001CE80EA020101F03F00DFF83E
:1045B000008158F82000DFF8FC80C1F3052958F885
:1045C000298080EA0800DFF8F080C1F3054958F837
:1045D000298080EA0800DFF8E480C1F3056958F813
:1045E000298080EA0800434001CE4FEA027848EA79
:1045F000121880EA080101F03F00DFF8C48058F883
:104600002000DFF8C080C1F3052958F8298080EA2E
:104610000800DFF8B480C1F3054958F8298080EA22
:104620000800DFF8A880C1F3056958F8298080EAFE
:10463000080043400CF1010CBCF1080FFFF66AAF13
:10464000D80740EA530383EA020000F0AA314B4046
:104650004A40D00740EA520283EA122000F0FF11DC
:104660004B4082EA012283EA920000F033314B4052
:1046700082EA810282EA134081B24A4083EA01431E
:1046800082EA131000F00F314A4083EA0113180E3A
:104690002870180C6870180AA870EB70100E28713A
:1046A000100C6871100AA871EA710020BDE8F0834F
:1046B000185400081852000818500008184E000836
:1046C0001853000818510008184F0008184D00082A
:1046D000F0B503460A4616783606577846EA074686
:1046E000977846EA0726D77846EA0700167936060D
:1046F000577946EA0746977946EA0726D77946EA80
:10470000070180EA111606F00F35684081EA0511AD
:1047100081EA000606F010356840694000F00F0697
:10472000AF4F57F82660F600C0F3032C57F82C70F3
:1047300046EA8706AA4FC0F3034C57F82C7046EAA6
:104740004706A74FC0F3036C57F82C703E43A44FA5
:10475000C0F3431C57F82C7046EAC716A04FC0F3AD
:10476000433C57F82C7046EA87169D4FC0F3435CD4
:1047700057F82C7046EA47160F2707EA5077DFF8FC
:1047800060C25CF8277046EA0710964EC1F34307F3
:1047900056F82760F600934FC1F3432C57F82C705E
:1047A00046EA87078F4EC1F3434C56F82C6047EA20
:1047B00046068C4FC1F3436C57F82C703E43894F2B
:1047C000C1F3031C57F82C7046EAC716854FC1F396
:1047D000033C57F82C7046EA8716824FC1F3035CFE
:1047E00057F82C7046EA47160F2707EA1177DFF8CB
:1047F000F4C15CF8277046EA071120F0704021F000
:1048000070410024E8E0022C03DB082C01D00F2CBF
:104810000AD1460046EAD06626F070404E0046EACD
:10482000D16626F0704109E0860046EA906626F0DF
:1048300070408E0046EA916626F070414FF01056A7
:1048400006EA00164FF0805707EA00773E434FF024
:10485000006707EA80373E434FF0027707EA804758
:104860003E434FF0807707EA80173E434FF400172E
:1048700007EA40273E434FF4801707EA50073E43BC
:104880004FF4802707EA80273E434FF4003707EABA
:1048900080073E434FF4803707EA90273E434FF4AA
:1048A000005707EA51373E434FF4805707EA111784
:1048B0003E434FF4006707EA81173E434FF4806799
:1048C00007EA51073E434FF4007707EA91373E432A
:1048D00001F480773E43202707EA51173E43102713
:1048E00007EA91273E43082707EAD1073E430427FA
:1048F00007EA91473E43022707EA91673E43C1F327
:1049000000673E4340C34FF0005606EAC0364FF002
:10491000805707EA40473E434FF0006707EA802789
:104920003E434FF0806707EA80573E434FF00077E1
:1049300007EA90073E434FF0807707EA40073E437F
:104940004FF4001707EA00473E434FF4801707EA89
:10495000C0273E434FF4002707EAC0073E434FF409
:10496000802707EA90173E434FF4003707EAC03725
:104970003E434FF4803707EA10173E434FF4005789
:1049800007EA91073E434FF4805707EA01273E4369
:1049900040F6080707EA91373E434FF4806707EA7D
:1049A00051273E4301F400773E434FF4807707EAF6
:1049B000C1173E43202707EAD1173E43112707EAD4
:1049C000D1073E43042707EA81073E43022707EA4F
:1049D00051573E4340C3641C102CFFF614AFF0BD8A
:1049E000185500085855000870B504460E46314663
:1049F000201DFFF76DFE00251DE0211D51F825004B
:104A0000C5F11E0251F8222041F82520C5F11E02F1
:104A100041F8220000206A1C51F82200C5F11F0253
:104A200051F822306A1C41F82230C5F11F0241F8CA
:104A300022000020AD1C102DDFDB002070BD70B502
:104A400004460D462946201DFFF742FE002070BD9A
:104A5000ADF6280D00240020099075A3D3E90012BB
:104A6000D3E90203CDE90703CDE90512FEF704FD02
:104A7000FEF706FDFCF763FC012209A97048FBF76D
:104A8000E8FB9DF82400AA280FD16E4840686E49C3
:104A90000860084600686D4908606A49086880F344
:104AA000088800BF6948006880474820FCF7B0FBD1
:104AB000FCF7D4FEFCF7EAFBFCF7D0FE64A0FBF7A2
:104AC00077FB05462B4662A200210846FDF7A2F8B7
:104AD00061A0FBF76DFB05462B465FA2002102207B
:104AE000FDF798F8FEF764F9FCF7A8FCFFF790F8DB
:104AF000FFF770F89DF8240055287DD159A0FBF7E9
:104B000057FB8046434657A200210846FDF782F82E
:104B1000012357A218210420FDF77CF8042202A9E2
:104B20004748401CFBF795FB9DF8080000069DF8E0
:104B3000091000EB01409DF80A1000EB01209DF8E0
:104B40000B104418B4F5503F6CD800250020049099
:104B5000274654E0B4F5006F02D94FF4006000E03E
:104B60002046049005F580110AA8049AFDF7A6F8DE
:104B70000AA804A90AAB0022CDE90010012130489F
:104B80001038FCF7BDF82F4968180AA9049AFBF7FA
:104B900073FB0498241A0498054464206843B0FB0E
:104BA000F7F0C6B2642096FBF0F03030C0B203904C
:104BB000012303AA00210420FDF72CF8642096FBB2
:104BC000F0F100FB11600A2190FBF1F03030C0B22F
:104BD0000390012303AA08210420FDF71BF80A20F3
:104BE00096FBF0F100FB11603030C0B2039001235E
:104BF00003AA1021042000E015E0FDF70BF8002CBB
:104C0000A8D1AA200990012209A90D48FBF734FB7D
:104C100018A0FBF7CDFA8046434616A200210620D5
:104C2000FCF7F8FF00BF01E0FDF782FAFCE70000A7
:104C30001122334455667788990011223344556612
:104C4000105E000800600008000000200400002042
:104C5000426F6F7456657200312E352E372E313407
:104C6000000000005550444154494E4700000000E8
:104C700025000000706C65617365207265626F6F5E
:104C8000740000001201000200000040C2226022F5
:104C900000020102000109022000010100C03209E6
:104CA00004000002080650040705810240000007C6
:104CB0000502024000000403090426035A004600CE
:104CC00054002000200020002000200020002000B0
:104CD00020002000200020002000200020002000D4
:104CE0002603510050004F005300200020004D00CB
:104CF0006100730073002000530074006F007200A5
:104D000061006700650010035A00460054004D0022
:104D10006100730073000000000401010000000046
:104D20000000010004040101040001010404010069
:104D30000400000000000100000400000004010164
:104D40000404010100040000040400010400010146
:104D50000000000104000000040400000004000141
:104D60000004000100040100000401000000010132
:104D7000000001010404000104000100040000011E
:104D80000400000104000100000000000404000011
:104D900004040100000000010000010004040101FE
:104DA00004000000000001010004010100000001F6
:104DB00000000001000400000400010100000100E7
:104DC00000040100040000010004000004000000D1
:104DD00004040001040401000404010104000100B2
:104DE00000000101040400010400000104040000AB
:104DF0000404010000040101040400000004000197
:104E00000004000100000000040001000004010093
:104E1000000000000400010120801080008000805C
:104E20000080000020801000000010002000000022
:104E300020001080208000802000008020801080D2
:104E400000801080000000800080008000001000C2
:104E500020000000200010800080100020001000C2
:104E60002080008000000000000000800080000022
:104E70002080100000001080200010002000008022
:104E800000000000008010002080000000801080E2
:104E90000000108020800000000000002080100032
:104EA0002000108000001000208000800000108092
:104EB00000801080008000000000108000800080D2
:104EC00020000000208010802080100020000000C2
:104ED0000080000000000080208000000080108022
:104EE00000001000200000802000100020800080C2
:104EF0002000008020001000008010000000000052
:104F000000800080208000000000008020001080D1
:104F100020801080008010000802000000020208BB
:104F20000000000008000208000200080000000065
:104F30000802020000020008080002000800000841
:104F40000800000800000200080202080800020031
:104F5000000002080802000000000008080000002D
:104F60000002020800020000000202000000020825
:104F700008000208080202000802000800020200FD
:104F800000000200080200080800000008020208F1
:104F900000020000000000080002020800000008F3
:104FA00008000200080200000000020000020208DF
:104FB00000020008000000000002000008000200DB
:104FC00008020208000200080800000800020000B1
:104FD00000000000080002080802000800000200AB
:104FE0000000000808020208080000000802020091
:104FF0000002020008000008000002080802000881
:105000000802000000000208080202000800000078
:105010000800020800020200012080008120000038
:10502000812000008000000080208000810080003E
:10503000010080000120000000000000002080002E
:10504000002080008120800081000000000000001E
:1050500080008000010080000100000000200000AE
:10506000000080000120800080000000000080001F
:10507000012000008020000081008000010000006D
:105080008020000080008000002000008020800040
:1050900081208000810000008000800001008000ED
:1050A00000208000812080008100000000000000BE
:1050B00000000000002080008020000080008000B0
:1050C000810080000100000001208000812000009C
:1050D000812000008000000081208000810000000D
:1050E00001000000002000000100800001200000FD
:1050F00080208000810080000120000080200000CE
:10510000000080000120800080000000000080007E
:105110000020000080208000000100000001080243
:105120000000080200010042000008000001000029
:1051300000000040000008020001084000000800D4
:105140000001000200010840000100420000084286
:1051500000010800000000400000000200000840BC
:10516000000008400000000000010040000108426B
:105170000001084200010002000008420001004056
:1051800000000000000000420001080200000002D0
:105190000000004200010800000008000001004279
:1051A00000010000000000020000004000000802B2
:1051B0000001004200010840000100020000004020
:1051C0000000084200010802000108400001000040
:1051D000000000020000084200010842000108002F
:1051E0000000004200010842000008020000000028
:1051F0000000084000000042000108000001000219
:10520000000100400000080000000000000008400D
:1052100000010802000100401000002000004020B2
:10522000004000001040402000004020100000001E
:10523000104040200000400000400020104040008E
:10524000000040001000002010004000004000203E
:10525000000000201040000000000000100040008E
:10526000104000200040000000404000104000209E
:10527000100000001000402010004020000000003E
:10528000104040000040402010400000004040001E
:1052900000404020000000200040002010000000DE
:1052A000100040200040400010404020000040001E
:1052B00010400000100000200000400000400020CE
:1052C000000000201040000010000020104040208E
:1052D00000404000000040201040400000404020BE
:1052E00000000000100040201000000000400000FE
:1052F000000040201040400000400000100040002E
:10530000104000200000000000404020000000206D
:105310001000400010400020000020000200200487
:105320000208000400000000000800000208000459
:1053300002082000000820040208200400002000C9
:105340000000000002000004020000000000000451
:1053500002002004020800000008000402082000E7
:1053600002002000000800040200000400002004E5
:1053700000082004020020000000200400080000B3
:1053800002080000020820040008200002000000BB
:1053900000000004000820000000000400082000B5
:1053A000000020000208000402080004020020049B
:1053B000020020040200000002002000000000049F
:1053C000000800040000200000082004020800007B
:1053D0000208200000082004020800000200000467
:1053E0000208200400002004000820000000000043
:1053F0000200000002082004000000000208200053
:10540000000020040008000002000004000800045E
:1054100000080000020020004010001000100000F2
:1054200000000400401004100000001040100010A4
:1054300040000000000000104000040000000410C4
:10544000401004100010040000100410401004006C
:105450000010000040000000000004104000001098
:105460000010001040100000001004004000040074
:105470004000041000100410401000000000000064
:105480000000000040000410400000100010001058
:10549000401004000000040040100400000004005C
:1054A0000010041000100000400000004000041034
:1054B0000010000040100400001000104000000028
:1054C0004000001000000410400004100000001014
:1054D0000000040040100010000000004010041004
:1054E00040000400400000100000041000100010F4
:1054F00040100010000000004010041000100400D4
:1055000000100400401000004010000040000400A3
:105510000000001000100410000000000100000056
:105520000001000001010000000001000100010075
:105530000001010001010100000000010100000163
:105540000001000101010001000001010100010151
:105550000001010101010101000000000000000143
:105560000000010000000101000100000001000135
:105570000001010000010101010000000100000123
:105580000100010001000101010100000101000111
:10559000010101000101010101020407080B0D0EC8
:1055A00010131516191A1C1F20232526292A2C2F03
:1055B00031323437383B3D3E40434546494A4C4FF3
:1055C00051525457585B5D5E61626467686B6D6EE3
:1055D00070737576797A7C7F80838586898A8C8FD3
:1055E00091929497989B9D9EA1A2A4A7A8ABADAEC3
:1055F000B0B3B5B6B9BABCBFC1C2C4C7C8CBCDCEB3
:10560000D0D3D5D6D9DADCDFE0E3E5E6E9EAECEFA2
:10561000F1F2F4F7F8FBFDFE0101010101010101C6
:10562000FEFEFEFEFEFEFEFE1F1F1F1F0E0E0E0ED6
:10563000E0E0E0E0F1F1F1F1011F011F010E010EC8
:105640001F011F010E010E0101E001E001F101F156
:10565000E001E001F101F10101FE01FE01FE01FEA8
:10566000FE01FE01FE01FE011FE01FE00EF10EF142
:10567000E01FE01FF10EF10E1FFE1FFE0EFE0EFEDC
:10568000FE1FFE1FFE0EFE0EE0FEE0FEF1FEF1FE2E
:10569000FEE0FEE0FEF1FEF1B8560008000000203A
:1056A00024080000FC010008005B0008240800201A
:1056B00094300000503E0008014D36058002022063
:1056C00038145A46542051504F53424F4F542043A0
:1056D00044524F4D200115312E302059244B535444
:1056E0001538104E414E4420466C61736820446961
:1056F000736B244203620612704205420A7224232D
:1057000003FF420839054202141201014B14010E35
:105710002314AAD438373B141A03511250124F12D3
:1057200053297D011213A1120C1808FB1E040A153F
:10573000A920398F197813B11B1408BD1A1B08ADA5
:10574000081AAF041399191B0861101A49041A0D9D
:10575000041AF9101A2108413240293CDAB94C8B5D
:10576000811D0C1AE90413844C3308121A96082977
:10577000B61AB60832041ABA0832265AE00822E8E5
:1057800033201A13064D0336081072F84333301CC9
:10579000100C0603912C40C07803112C043F040325
:1057A000212D7088FC0829261820FF211E14F008DE
:1057B000F033E0184D211C031E11338870000C10CB
:1057C0001E2123241927211010160E45E01804026B
:1057D00025071820403D020418E0692C201807070F
:1057E000174080F08040403F0202010F0102284232
:1057F000F01D0101011F04912B80B066B1191D2914
:1058000001913A30CE492C146018042C6018061D02
:105810001EE010080810711F0F102020100FEF530A
:1058200010F83620203F20203C700808C11E302888
:10583000242221431E3008888848082E1820202062
:1058400011CB3BC0203227070424243F241AF82020
:105850002308084B19212036E0108888184B0F11B7
:10586000101E380808C8382021523F1A702E2960AF
:105870008F1C222121221C90111D312222119029DE
:1058800062CAC0C26A80C659081C40201051170164
:1058900002040810204A4001114A04012119152A66
:1058A000403219251B0402F21B7048D23AF0501AFC
:1058B000360F1EC030C828E871280807182724238F
:1058C000140B6F2A387F280D203C23020227382032
:1058D00008F88888A04B203FF11BC0303F1B0838D8
:1058E00030191019781B08F80F194039201B100FB8
:1058F000103E8888E8081010AC23201810112A03E5
:105900005E2940223829402C221E024019A4180981
:10591000F808203F21010121252A08522981294226
:105920004149112EC08080807F0E2FF888C0281832
:1059300008501C0126382F2940292F29801B203090
:105940001012F81AF81413203F190229204B30C006
:10595000601A2074123F4BE010B06B0F10B029D0CA
:105960001AF0301980220179203F18242438504F32
:10597000C04C888870C0140C30204B7088C1173818
:10598000202121221C3A189F4A188239A049D0119F
:105990002A1F90121F240878881BC838151C073846
:1059A0000E60191A1AF8201114033C0714073C035F
:1059B0004814081868808068180820302C03032CCD
:1059C00030200838C82F5950298F29102F20382609
:1059D000212020681145FE020202257F4040401A26
:1059E0000CE0611C0106380B191D42FE191D527F87
:1059F0001A04120211045A80011930D91D391621D6
:105A0000180819242222223F20AB390F115F3F11C1
:105A10002020110E21311A0E104B2011104B88F846
:105A2000102A10B359401A1F3F2B22130F16F0886B
:105A30008888181A20D029D1497A21176B94949418
:105A400093603960190F4C203F21F3548098987966
:105A50003059121AC02719D1193039311F203F246B
:105A6000022D30212A0812893069D7294B290319C0
:105A70000BC96079A019BF2B201FDD390F9C80FF57
:105A8000A1E0191229D03BA0FF0C39501941122076
:105A90008A01C01B3324012A190F3AE041395229E7
:105AA0000F392349603C103F202C29053F010E305F
:105AB00008060170291038080F300C030C300F2C29
:105AC00049A14E312E0E31200C29621D818E701895
:105AD0003059D1215721302C22213055807C0202AF
